:020000040800F2
:10000000002800206D1200089111000893110008CB
:1000100095110008971100089911000800000000D0
:100020000000000000000000000000009B1100081C
:100030009D110008000000009F110008A111000898
:10004000B5120008B5120008B5120008B512000874
:10005000B5120008B5120008B5120008B512000864
:10006000B5120008B5120008B5120008B512000854
:10007000B5120008B5120008B5120008B512000844
:10008000B5120008B5120008B5120008B512000834
:10009000B5120008B5120008B5120008A511000835
:1000A000B5120008B5120008B5120008B512000814
:1000B000B5120008B512000800000000B5120008D3
:1000C000B51200080000000000000000B512000892
:1000D00000000000AD110008B5120008000000008B
:1000E000B5120008B5120008B512000800000000A3
:1000F0000000000000000000000000000000000000
:0C01000000000000000000005FF808F1A3
:1001100010B5054C237833B9044B13B10448AFF341
:1001200000800123237010BDD401002000000000D6
:100130006064000808B5034B1BB103490348AFF3E3
:10014000008008BD00000000D801002060640008A5
:1001500010F8012B11F8013B012A28BF9A42F7D071
:10016000D01A7047034613F8012B002AFBD1181A46
:100170000138704781F0004102E000BF83F0004386
:1001800030B54FEA41044FEA430594EA050F08BF32
:1001900090EA020F1FBF54EA000C55EA020C7FEAF6
:1001A000645C7FEA655C00F0E2804FEA5454D4EB73
:1001B0005555B8BF6D420CDD2C4480EA020281EA3D
:1001C000030382EA000083EA010180EA020281EA75
:1001D0000303362D88BF30BD11F0004F4FEA0131C7
:1001E0004FF4801C4CEA113102D0404261EB4101D6
:1001F00013F0004F4FEA03334CEA133302D052425C
:1002000063EB430394EA050F00F0A780A4F1010417
:10021000D5F1200E0DDB02FA0EFC22FA05F2801851
:1002200041F1000103FA0EF2801843FA05F3594137
:100230000EE0A5F120050EF1200E012A03FA0EFCB6
:1002400028BF4CF0020C43FA05F3C01851EBE371E0
:1002500001F0004507D54FF0000EDCF1000C7EEBFD
:1002600000006EEB0101B1F5801F1BD3B1F5001F3B
:100270000CD349085FEA30004FEA3C0C04F101045A
:100280004FEA445212F5800F80F09A80BCF1004F83
:1002900008BF5FEA500C50F1000041EB045141EA05
:1002A000050130BD5FEA4C0C404141EB0101013CCE
:1002B00028BFB1F5801FE9D291F0000F04BF0146BD
:1002C0000020B1FA81F308BF2033A3F10B03B3F18F
:1002D00020020CDA0C3208DD02F1140CC2F10C021F
:1002E00001FA0CF021FA02F10CE002F11402D8BF7D
:1002F000C2F1200C01FA02F120FA0CFCDCBF41EA49
:100300000C019040E41AA2BF01EB0451294330BD17
:100310006FEA04041F3C1CDA0C340EDC04F11404F4
:10032000C4F1200220FA04F001FA02F340EA0300CB
:1003300021FA04F345EA030130BDC4F10C04C4F111
:10034000200220FA02F001FA04F340EA03002946F1
:1003500030BD21FA04F0294630BD94F0000F83F43B
:10036000801306BF81F480110134013D4EE77FEA1E
:10037000645C18BF7FEA655C29D094EA050F08BF6A
:1003800090EA020F05D054EA000C04BF194610464B
:1003900030BD91EA030F1EBF0021002030BD5FEA8F
:1003A000545C05D14000494128BF41F0004130BDB7
:1003B00014F580043CBF01F5801130BD01F000450B
:1003C00045F0FE4141F470014FF0000030BD7FEA7E
:1003D000645C1ABF194610467FEA655C1CBF0B4679
:1003E000024650EA013406BF52EA033591EA030F90
:1003F00041F4002130BD00BF90F0000F04BF002188
:10040000704730B54FF4806404F132044FF00005BA
:100410004FF0000150E700BF90F0000F04BF002133
:10042000704730B54FF4806404F1320410F0004599
:1004300048BF40424FF000013EE700BF42004FEA94
:10044000E2014FEA31014FEA02701FBF12F07F4311
:1004500093F07F4F81F06051704732F07F4208BFC8
:10046000704793F07F4F04BF41F40021704730B5CF
:100470004FF4607401F0004521F000411CE700BF1B
:1004800050EA010208BF704730B54FF000050AE09E
:1004900050EA010208BF704730B511F0004502D59F
:1004A000404261EB41014FF4806404F132045FEAA1
:1004B000915C3FF4D8AE4FF003025FEADC0C18BF4A
:1004C00003325FEADC0C18BF033202EBDC02C2F13C
:1004D000200300FA03FC20FA02F001FA03FE40EACE
:1004E0000E0021FA02F11444BDE600BF70B54FF0D2
:1004F000FF0C4CF4E06C1CEA11541DBF1CEA1355B0
:1005000094EA0C0F95EA0C0F00F0DEF82C4481EA17
:10051000030621EA4C5123EA4C5350EA013518BF37
:1005200052EA033541F4801143F4801338D0A0FB24
:1005300002CE4FF00005E1FB02E506F00042E0FBD1
:1005400003E54FF00006E1FB03569CF0000F18BFD7
:100550004EF0010EA4F1FF04B6F5007F64F540747F
:1005600004D25FEA4E0E6D4146EB060642EAC62112
:1005700041EA55514FEAC52040EA5E504FEACE2E7F
:10058000B4F1FD0C88BFBCF5E06F1ED8BEF1004F82
:1005900008BF5FEA500E50F1000041EB045170BDFE
:1005A00006F0004646EA010140EA020081EA030142
:1005B000B4EB5C04C2BFD4EB0C0541EA045170BD3E
:1005C00041F480114FF0000E013C00F3AB8014F1B8
:1005D000360FDEBF002001F0004170BDC4F1000401
:1005E000203C35DA0C341BDC04F11404C4F1200582
:1005F00000FA05F320FA04F001FA05F240EA0200DD
:1006000001F0004221F0004110EBD37021FA04F612
:1006100042EB06015EEA430E08BF20EAD37070BDCC
:10062000C4F10C04C4F1200500FA04F320FA05F02B
:1006300001FA04F240EA020001F0004110EBD3702D
:1006400041F100015EEA430E08BF20EAD37070BD9D
:10065000C4F1200500FA05F24EEA020E20FA04F376
:1006600001FA05F243EA020321FA04F001F0004125
:1006700021FA04F220EA020000EBD3705EEA430E96
:1006800008BF20EAD37070BD94F0000F0FD101F0C5
:100690000046400041EB010111F4801F08BF013CFE
:1006A000F7D041EA060195F0000F18BF704703F03C
:1006B0000046520043EB030313F4801F08BF013DC3
:1006C000F7D043EA0603704794EA0C0F0CEA13557F
:1006D00018BF95EA0C0F0CD050EA410618BF52EA39
:1006E0004306D1D181EA030101F000414FF000003F
:1006F00070BD50EA410606BF1046194652EA43064D
:1007000019D094EA0C0F02D150EA013613D195EAC0
:100710000C0F05D152EA03361CBF104619460AD108
:1007200081EA030101F0004141F0FE4141F4700112
:100730004FF0000070BD41F0FE4141F4780170BD02
:1007400070B54FF0FF0C4CF4E06C1CEA11541DBF67
:100750001CEA135594EA0C0F95EA0C0F00F0A7F869
:10076000A4EB050481EA030E52EA03354FEA013196
:1007700000F088804FEA03334FF0805545EA1313A9
:1007800043EA12634FEA022245EA111545EA106571
:100790004FEA00260EF000419D4208BF964244F108
:1007A000FD0404F5407402D25B084FEA3202B61A27
:1007B00065EB03055B084FEA32024FF480104FF4FB
:1007C000002CB6EB020E75EB030E22BFB61A75466F
:1007D00040EA0C005B084FEA3202B6EB020E75EB02
:1007E000030E22BFB61A754640EA5C005B084FEA6A
:1007F0003202B6EB020E75EB030E22BFB61A754637
:1008000040EA9C005B084FEA3202B6EB020E75EB41
:10081000030E22BFB61A754640EADC0055EA060E02
:1008200018D04FEA051545EA16754FEA06164FEA45
:10083000C30343EA52734FEAC2025FEA1C1CC0D1F1
:1008400011F4801F0BD141EA00014FF000004FF07E
:10085000004CB6E711F4801F04BF01430020B4F13F
:10086000FD0C88BFBCF5E06F3FF6AFAEB5EB030CF7
:1008700004BFB6EB020C5FEA500C50F1000041EBF4
:10088000045170BD0EF0004E4EEA113114EB5C04C1
:10089000C2BFD4EB0C0541EA045170BD41F4801194
:1008A0004FF0000E013C90E645EA060E8DE60CEA9C
:1008B000135594EA0C0F08BF95EA0C0F3FF43BAFB9
:1008C00094EA0C0F0AD150EA01347FF434AF95EA70
:1008D0000C0F7FF425AF104619462CE795EA0C0F54
:1008E00006D152EA03353FF4FDAE1046194622E721
:1008F00050EA410618BF52EA43067FF4C5AE50EAFB
:1009000041047FF40DAF52EA43057FF4EBAE12E7EA
:100910004FF0FF3C06E000BF4FF0010C02E000BFCB
:100920004FF0010C4DF804CD4FEA410C7FEA6C5CAE
:100930004FEA430C18BF7FEA6C5C1BD001B050EA51
:10094000410C0CBF52EA430C91EA030F02BF90EA3C
:10095000020F0020704710F1000F91EA030F58BFFB
:10096000994208BF90422CBFD8176FEAE37040F05D
:10097000010070474FEA410C7FEA6C5C02D150EAFB
:10098000013C07D14FEA430C7FEA6C5CD6D152EAB6
:10099000033CD3D05DF8040B704700BF844610467B
:1009A00062468C461946634600E000BF01B5FFF77A
:1009B000B7FF002848BF10F1000F01BD4DF808ED4A
:1009C000FFF7F4FF0CBF012000205DF808FB00BF1B
:1009D0004DF808EDFFF7EAFF34BF012000205DF875
:1009E00008FB00BF4DF808EDFFF7E0FF94BF0120C2
:1009F00000205DF808FB00BF4DF808EDFFF7CEFFC3
:100A000094BF012000205DF808FB00BF4DF808ED01
:100A1000FFF7C4FF34BF012000205DF808FB00BFD2
:100A20004FEA410C7FEA6C5C02D150EA013C0AD1EA
:100A30004FEA430C7FEA6C5C02D152EA033C02D1DC
:100A40004FF0000070474FF0010070474FEA41023D
:100A500012F5001215D211D56FF47873B3EB625210
:100A600012D94FEAC12343F0004343EA505311F037
:100A7000004F23FA02F018BF404270474FF00000C9
:100A8000704750EA013005D111F0004008BF6FF007
:100A9000004070474FF00000704700BF4FEA41022E
:100AA000B2F1E04324BFB3F5001CDCF1FE5C0DD9CC
:100AB00001F0004C4FEAC0024CEA5070B2F1004F16
:100AC00040EB830008BF20F00100704711F0804F19
:100AD00021D113F13872BCBF01F00040704741F4DE
:100AE00080114FEA5252C2F11802C2F1200C10FAE2
:100AF0000CF320FA02F018BF40F001004FEAC123C6
:100B00004FEAD32303FA0CFC40EA0C0023FA02F369
:100B10004FEA4303CCE77FEA625307D150EA01333F
:100B20001EBF4FF0FE4040F44000704701F000400F
:100B300040F0FE4040F40000704700BF10B50E4C7E
:100B400086B04FF40051204601F022F80B4A0346CC
:100B5000142101A802F040FE4FF40051204601F09C
:100B600022F801A8FFF7FEFA642382B201A9044823
:100B700001F0FFFE06B010BD0010014084640008C3
:100B8000E002002010B5142494B0224600210CA8E5
:100B900002F0E5FE22460DEB0400002102F0DFFE2C
:100BA0000021102201A802F0DAFE022401224FF4F3
:100BB0008033CDE90A23CDE911434FF4E0130AA8AD
:100BC0000E92139301F004F80F234FF48062CDE9E5
:100BD00005340023214605A8CDE90732099301F029
:100BE000B9F94FF4004301A80194039301F06EFAA0
:100BF00014B010BD000000002DE9F04F102599B091
:100C000000F07EFBFFF7BEFF2A4600210EA802F08F
:100C1000A6FE9B4B4FF400519A699A482A439A6169
:100C20009A694FF001092A400492049A9A690024B3
:100C300042F020029A619A694FF00C0A02F02002F9
:100C40000592059A9A694FF4602B42F004029A616A
:100C50009A69DFF8348202F004020692069A9A69D1
:100C60008A4F42F008029A619B69002203F0080350
:100C70000793079B00F092FF4FF40053CDE90E3924
:100C8000022380480EA9CDE9104300F0ABFE4FF4DB
:100C900080727F4B7F480EA9CDE90E23109400F09F
:100CA000A1FE22462146172000F0E2FD172000F0A9
:100CB0000FFE4FF4E13378494046C8E90013C8E914
:100CC0000244C8E905A4C8F81040C8F81C4001F067
:100CD00021FE724B3846724E3B6087F80C90C7F885
:100CE0001090CDE90E441094BC603C75C7F81CB060
:100CF0007C6000F02DFD0EA93846CDE90E59109408
:100D000000F0E4FB674B3046336086F80C90C6F881
:100D10001090CDE90E441094B4603475C6F81CB040
:100D2000746000F015FD0723CDE90E3906230EA9E6
:100D30003046109300F0CAFB2A4621460AA802F06A
:100D40000EFE1C2221460EA8CDE9084402F007FE43
:100D50004FF08043544DC5E900344FF6FF73C5E9A9
:100D6000033480232846AB61AC6001F02FFB4FF4C5
:100D700080530AA928460A9301F00FFC284601F087
:100D800051FB08A92846CDE9084401F0FBFC60238B
:100D900004220EA92846CDE90E341094129401F0D5
:100DA00099FB08220EA9284601F094FB52460EA991
:100DB000284601F08FFB284600F082F9384600F003
:100DC0003FFC304600F03CFC4A4640460FF2A0098A
:100DD000D9E90089354901F0E0FF0421284601F0F6
:100DE000CFFC0821284601F0CBFC5146284601F0F3
:100DF000C7FC6421384600F0B9FA6421304600F09F
:100E0000B5FA384600F05EFB0446304600F05AFB67
:100E1000C0B20290E0B2FFF7FFFA42464B46FFF73E
:100E200065FB02460B4614A1D1E90001FFF7A6F9C4
:100E30001F4B0022FFF784FCFFF730FEFFF7FEFA9E
:100E40001C4ACDE9000128210EA802F0C5FC0EA81D
:100E5000FFF788F9642382B20EA90B4801F089FDDF
:100E60004FF47A7000F070FAC3E700BFAFF3008070
:100E7000AD4F39268BFBC73FB0726891ED58764075
:100E80000010024000100140E00200203802002063
:100E900000002110000C01400038014000240140F6
:100EA000680200200028014098020020FC01002078
:100EB000000024409164000838B5044600F03EFA72
:100EC000074DB4F5807F286008D1064C2368C01A0E
:100ED000C82803D9FFF732FE2B68236038BD00BF56
:100EE0000002002028030020F0B5304C304994F96E
:100EF000003093B0C81810F8010C5A1C0D2852B2DB
:100F000003D02C4800780A284CD12270002203A874
:100F1000CA54274A284902F093FC03A8FFF722F994
:100F200003A982B26423254801F023FD0422244949
:100F30001F4802F01CFD60BB224E234F234D334659
:100F40003A4623491A48009502F09AFC4FF6FF7082
:100F50004FF080413A683368A2EB0222A3EB0323EF
:100F6000034402448A63CB632B68A3EB032303444B
:100F70000B64002194F900200D4802F0F0FC0023DE
:100F8000237001220B490D4813B0BDE8F04001F079
:100F900004BF10490648FFF7DBF80028E9D1FFF746
:100FA000CDFDE6E72270C854EBE700BFFD0100204D
:100FB00004020020FC010020B1640008E0020020CF
:100FC000B6640008F4010020F8010020F0010020C0
:100FD000BB640008C86400080E4B82B09A6942F0F6
:100FE00001029A619A6902F001020092009ADA699C
:100FF00042F08052DA61DB69074A03F080530193C3
:10100000019B536823F0E06343F00073536002B028
:10101000704700BF0010024000000140102210B5D0
:10102000044688B00DEB0200002102F098FC236812
:10103000164A93420BD1164B9A6942F400729A6198
:101040009B6903F400730193019B08B010BD114A22
:101050009342FAD10E4B10489A6904A942F4806277
:101060009A619A6902F480620292029A9A6942F045
:1010700004029A619B69802203F004030393039B9B
:101080000323CDE9042300F0ADFCDEE7002401409A
:10109000001002400028014000080140036882B0AF
:1010A000B3F1804F0AD103F50433DA6942F001024B
:1010B000DA61DB6903F001030193019B02B0704721
:1010C00010B5044686B01022002102A802F047FCA9
:1010D0002368B3F1804F13D103F504339A690948AB
:1010E00042F004029A619B690E2203F0040301930B
:1010F000019B022302A9CDE90223059300F072FCB3
:1011000006B010BD0008014010B5044686B010229C
:10111000002102A802F023FC22681B4B9A4230D126
:1011200003F558439A69194842F480429A619A69D2
:1011300002A902F480420092009A9A69002442F0C7
:1011400004029A619B694FF4007203F00403019357
:10115000019B0223CDE902230323059300F042FC07
:101160004FF48063094802A9CDE90234049400F0E9
:1011700039FC25202246214600F07AFB252000F08C
:10118000A7FB06B010BD00BF0038014000080140B9
:10119000FEE7FEE7FEE7FEE7FEE7704770477047B1
:1011A00000F0C0B84FF4807000F006BD014801F0B7
:1011B00091BC00BFE00200200120704708B502F09A
:1011C00033FC162303604FF0FF3008BD08B502F072
:1011D0002BFC16230360FEE770B50D4614460E4641
:1011E000731B9C4201DC204670BDAFF3008006F803
:1011F000010BF5E770B50D4614460E46731B9C4275
:1012000001DC204670BD16F8010BAFF30080F5E756
:101210004FF0FF3070474FF4005300204B60704791
:1012200001207047002070470B4A0346116810B533
:1012300009B90A491160106809490A4C0344091B9D
:101240008B4206D902F0F0FB0C2303604FF0FF3015
:1012500010BD1360FCE700BF2C03002080040020B9
:10126000002800200004000070470000FFF7FCFF8A
:101270000B480C490C4A002302E0D458C4500433F4
:10128000C4188C42F9D3094A094C002301E01360C9
:101290000432A242FBD302F0CDFBFFF7ADFC704756
:1012A00000000020D4010020A0680008D401002024
:1012B00080040020FEE7000038B50E4B05461A7882
:1012C0004FF47A73B3FBF2F30B4A1068B0FBF3F000
:1012D00000F00CFB044658B90F2D09D802462946E8
:1012E0004FF0FF3000F0C4FA2046044B1D6038BDBB
:1012F0000120FCE70400002000000020080000207E
:10130000074A08B51368032043F01003136000F088
:101310009DFA0F20FFF7D0FFFFF75EFE002008BD0B
:1013200000200240034A044B11681B780B441360F1
:10133000704700BF3003002004000020014B1868F4
:10134000704700BF3003002038B50446FFF7F6FFB2
:101350000546631C1EBF044B1B78E418FFF7EEFF25
:10136000431BA342FAD338BD04000020F7B5002682
:1013700004460D460196FFF7E1FF236807469A6889
:10138000D20508D50120A36A84F8246043F0200325
:10139000A36203B0F0BD5A68D60503D4DB6A13F428
:1013A000700F3FD0414B02201E6800F009FF2368F8
:1013B0003F4A1969B6FBF0F611423E4A53D1D8684C
:1013C0003D4908424FD1196911425DD1DA683B4B62
:1013D0001A4214BF292314235E43019BB34225D232
:1013E0006A1C5CD0002D55D1019BB34257D2A36A31
:1013F00043F00403A36200230BE0681C13D065B91B
:1014000023681B6813F002030CD1A26A42F00402A5
:10141000A262032084F82430BBE7FFF78FFFC01BD4
:10142000A842EDD8226813689907E6D56FF0120339
:1014300022681360A36A43F40073A362936803F401
:101440006023B3F5602F2ED1207B00282BD1A36A17
:1014500023F48073A362A36ADB0424D4A36A43F059
:101460000103A36295E71969114203D1D968134AB0
:1014700011420BD01969124A114209D1DB6813429B
:1014800014BFFC235423A7E72923A5E75423A3E78C
:10149000FC23A1E7FFF752FFC01BA842A4D8019B81
:1014A0000133019399E7002073E700BF000000209B
:1014B00024499224922449122449920092244900FA
:1014C000499224000368D86C70470000002373B56C
:1014D000019390F824300446012B6CD0012380F84E
:1014E00024304D680268062D086805EB850322D874
:1014F0001F26556B053B9E4025EA060500FA03F3BF
:101500002B43536309288B6800EB40054FF007011C
:1015100029D9D6681E3DA94026EA0101AB400B43FC
:10152000D360A0F11003012B25D90020002384F8FB
:10153000243002B070BD0C2D4FF01F0509D8166B7A
:10154000233B9D4026EA050500FA03F32B43136372
:10155000D8E7D66A413B9D4026EA050500FA03F329
:101560002B43D362CEE71069A94020EA0101AB40CA
:101570000B431361D9E7114B9A4216D193681B02B2
:10158000D3D49368102843F400039360CDD10C4B5F
:101590000C4A1B68B3FBF2F30A2253430193019BED
:1015A000002BC2D0019B013BF8E7A36A012043F066
:1015B0002003A362BAE70220BBE700BF002401407A
:1015C0000000002040420F00002337B5019303685C
:1015D00004469A68D20702D5002003B030BD9A684D
:1015E00042F001029A60144B144A1B68B3FBF2F3F9
:1015F0000193019BE3B9FFF7A1FE054623689B68B1
:10160000DB07E9D4FFF79AFE401B0228F6D92368CE
:101610009B6813F00103F1D1A26A012042F010028D
:10162000A262E26A84F8243042F00102E262D4E766
:10163000019B013BDCE700BF0000002040420F009F
:1016400010B590F824300446012B54D0012380F8C3
:101650002430FFF7B9FF002849D1A36A274A23F4B1
:10166000407323F0010343F48073A3622368934221
:1016700004D123494A6812F4702F2ED1A26A22F4B1
:101680008012A2625A68520541BFA26A22F44052F7
:1016900042F48052A262A26A12F480521CBFE26A33
:1016A00022F00602E262002284F824206FF0020297
:1016B0001A609A6802F46022B2F5602F13D10F4AC3
:1016C000934205D1A2F58062526812F4702F0AD1BC
:1016D0009A6842F4A0029A6010BDA26A42F4801295
:1016E000A2624A68CFE79A6842F48012F3E70023C7
:1016F00084F82430F0E70220EEE700BF0028014024
:101700000024014038B5036804469A68D10701D423
:10171000002038BD9A6822F001029A60FFF70EFEA1
:10172000054623689B68DB07F2D5FFF707FE401BE1
:101730000228F6D923689B68DA07F2D5A36A01204C
:1017400043F01003A362E36A43F00103E362E0E7BE
:10175000F8B5044600286DD0836A23B9C36280F8C7
:101760002430FFF75BFC2046FFF7CCFFA36A13F0A1
:10177000100361D100285FD1A26A616822F4885207
:1017800022F0020242F00202E569A668A262227B10
:101790002943B6F5807F41EA420136D0771E7D426B
:1017A0007D412D02277D012F06D182BBA269013A1E
:1017B00045EA423242F400652268B6F5807F5768F8
:1017C00027F4694745EA0705556097681D4D05EA06
:1017D000070545EA0105956001D0012E02D1236974
:1017E000013B1B05D56A25F470052B43D362926833
:1017F000154B1340994213D10023E362A36A23F0EF
:10180000030343F00103A362F8BD3546CAE7A26AA9
:1018100042F02002A262E26A42F00102E262CBE7F9
:10182000A36A23F0120343F01003A362E36A43F0B8
:101830000103E3620120E7E7A36A43F01003A36218
:10184000F8E700BFFDF7E1FFFE0E1FFF07490302A7
:10185000CA6803F4E06322F4E0621204120C13433A
:1018600043F0BF6343F40033CB60704700ED00E00A
:10187000154B30B5DC68C4F30224C4F10703251D01
:10188000042B28BF0423062D4FF0FF3594BF0024FE
:10189000033C05FA03F321EA0303A54022EA05020B
:1018A000A340002843EA0203ACBF00F16040074AAE
:1018B0004FEA0313DBB2ABBF00F5614000F00F004D
:1018C00080F80033135430BD00ED00E014ED00E06B
:1018D000002807DB01234109034A00F01F00834071
:1018E00042F82130704700BF00E100E00138B0F15C
:1018F000807F0BD24FF0E023F021054A586182F837
:1019000023100020072298611A6170470120704758
:1019100000ED00E090F821200346022A06D00422C0
:1019200082630120002283F8202070470268C06B88
:10193000116821F00E011160116821F001011160A0
:1019400001211A6C01FA02F24260002083F8211092
:10195000E8E7000010B590F82130022B03D00423F3
:101960008363012010BD03681A6822F00E021A601A
:101970001A6822F001021A60184A93421FD01432EA
:1019800093421ED0143293421DD0143293421DD084
:10199000143293421DD0143293420CBF4FF4801383
:1019A0004FF080730E4A00245360012380F82130E9
:1019B000436B80F820407BB198472046D2E7012353
:1019C000F0E71023EEE74FF48073EBE74FF480531A
:1019D000E8E74FF48033E5E71846C3E70800024024
:1019E000000002402DE9F74F00221646614F624B7E
:1019F000DFF888C1DFF888E10D6835FA06F402D116
:101A000003B0BDE8F08F4FF0010808FA06F805EAC8
:101A1000080438EA050576D14D68032D07D8013D45
:101A2000022D00F28180DFE805F091969C00122DD6
:101A300000F0948069D8112D00F08A80FF2C98BFA7
:101A400082464FF00F0988BF00F1040A4FEA86056D
:101A5000DAF8008088BF203D09FA05FB28EA0B0868
:101A600002FA05F548EA0505CAF80050D1F804A0C5
:101A70001AF0805F47D0BD6926F0030845F00105E4
:101A8000BD61BD6908F1804805F00105019508F5C3
:101A9000803806F0030B019D4FEA8B0BD8F80850F5
:101AA00009FA0BF925EA0909364DA8425DD005F57A
:101AB0008065A8425BD005F58065A8420CBF022571
:101AC000032505FA0BF545EA0905C8F808509D6895
:101AD0001AF4801F14BF2543A5439D60DD681AF4E6
:101AE000001F14BF2543A543DD605D681AF4003F65
:101AF00014BF2543A5435D601D681AF4803F14BFE1
:101B00002543A5431D60013676E7DFF87C904D45FF
:101B10000AD015D8754507D0A9F580394D4503D0B1
:101B2000A9F580194D4589D18A68E2B1012A08BF1B
:101B3000C0F810804FF0080218BFC0F814807DE78D
:101B4000DFF848904D45EFD06545ECE7CA6875E78A
:101B5000CA68043272E7CA6808326FE7CA680C3292
:101B60006CE700226AE7042268E70025A9E701255F
:101B7000A7E700BF0010024000040140000032103F
:101B80000000121000080140000022100000311077
:101B90008368194214BF0120002070470AB1016117
:101BA00070470904FBE7C36801EA030221EA030165
:101BB00041EA024101617047044A08B55169014296
:101BC00002D05061FFF778F908BD00BF0004014062
:101BD0002DE9F341054638B30368DB0710D42B68C1
:101BE0009F075ED42B68190700F195802B685A0770
:101BF00000F1C180E869002840F02C81002029E034
:101C0000904C636803F00C03042B07D0636803F067
:101C10000C03082B0AD16368DE0307D523689C03F5
:101C2000DDD56B68002BDAD1012013E06B68B3F5CA
:101C3000803F12D1236843F480332360FFF77EFB9B
:101C4000064623689803CAD4FFF778FB801B6428F4
:101C5000F7D9032002B0BDE8F0819BB9236823F4D3
:101C600080332360236823F480232360FFF766FB1F
:101C7000064623689903B2D5FFF760FB801B6428F2
:101C8000F7D9E6E7B3F5A02F236803D143F4802307
:101C90002360CFE723F480332360236823F4802379
:101CA000CBE7684C636813F00C0F07D0636803F050
:101CB0000C03082B10D16368DA030DD423689B074B
:101CC00002D52B69012BAFD123686A6923F0F80391
:101CD00043EAC203236085E72A695B4B6AB10122AC
:101CE0001A60FFF72BFB064623689F07ECD4FFF72B
:101CF00025FB801B0228F7D9ABE71A60FFF71EFB14
:101D00000646236898077FF56DAFFFF717FB801B2A
:101D10000228F6D99DE7AA694A4E4B4BE2B101224F
:101D2000C3F88024FFF70AFB0446736A9B070DD5AE
:101D30004FF4FA52454B1B68B3FBF2F3019300BF1B
:101D4000019B5A1E0192002BF9D14FE7FFF7F6FADB
:101D5000001B0228E9D97CE7C3F88024FFF7EEFADC
:101D60000446736A9F077FF541AFFFF7E7FA001B50
:101D70000228F6D96DE7334CE369D80024D4012753
:101D8000E36943F08053E361E36903F08053009318
:101D9000009B2F4E3368D90518D5EB68012B26D14F
:101DA000236A43F001032362FFF7C8FA41F288383F
:101DB0000646236A9B073FD5002F3FF41BAFE3691C
:101DC00023F08053E36115E70027E2E7336843F42B
:101DD00080733360FFF7B2FA80463368DA05DCD4EB
:101DE000FFF7ACFAA0EB08006428F6D931E7ABB9ED
:101DF000236A41F2883823F001032362236A23F027
:101E000004032362FFF79AFA0646236A9807D3D59C
:101E1000FFF794FA801B4045F7D91AE7052B236A90
:101E200003D143F004032362BAE723F001032362E2
:101E3000236A23F00403B6E7FFF780FA801B4045CE
:101E4000B7D906E70010024000004242000000201F
:101E5000007000402A4C636803F00C03082B3ED04E
:101E60000022284B02281A662CD1FFF767FA064693
:101E70002368990120D42B6AB3F5803F05D16268AD
:101E8000A96822F400320A436260696A62680B43FF
:101E900022F474121343012263601A4B1A66FFF78F
:101EA0004DFA054623689A013FF5A8AEFFF746FABA
:101EB000401B0228F6D9CCE6FFF740FA801B022827
:101EC000D6D9C6E6FFF73AFA054623689B017FF5A7
:101ED00095AEFFF733FA401B0228F6D9B9E6012880
:101EE0003FF4B8AE63682A6A03F4803191427FF40C
:101EF0009BAE6A6A03F4701393423FF47FAE93E69D
:101F000000100240000042420D4A536803F00C01E9
:101F1000082912D10B48C3F38341DB03405C09D588
:101F20005368094AC3F340435043084AD35CB0FBAB
:101F3000F3F07047064B584370470348704700BFA3
:101F400000100240EB64000800127A00FB640008F5
:101F500000093D002DE9F0410D46044610B901206D
:101F6000BDE8F081444A136803F007038B4228D38D
:101F700021688E0730D4CA0743D43F4A136803F060
:101F80000703AB4265D822683C4D12F0040F6CD1B8
:101F9000130706D56B68226923F4605343EAC20332
:101FA0006B60FFF7B1FF6B68354AC3F30313D35C73
:101FB000D840344B1860344B1868FFF77DF9002087
:101FC000CEE7136823F007030B431360136803F095
:101FD00007038B42C3D1CBE7284B11F0040F1EBF80
:101FE0005A6842F4E0625A60080742BF5A6842F4F5
:101FF00060525A605A68A06822F0F00202435A60A8
:10200000B9E762681D4E012A33681AD113F4003F04
:10201000A5D0736841F2883823F00303134373603B
:10202000FFF78CF907467368626803F00C03B3EBA3
:10203000820FA2D0FFF782F9C01B4045F3D90320DD
:102040008EE7022A02D113F0007FE1E713F0020FBE
:10205000DEE7136823F007032B431360136803F0D4
:102060000703AB427FF47BAF8DE76B68E16823F435
:10207000E0630B436B608BE70020024000100240DE
:10208000D36400080000002008000020044B054A2B
:102090005B68C3F30223D35C034A1068D8407047DF
:1020A00000100240E364000800000020044B054AD1
:1020B0005B68C3F3C223D35C034A1068D8407047FF
:1020C00000100240E36400080000002003682DE9CE
:1020D000F341D907054621D5364CE369DA0033D4FC
:1020E0000126E36943F08053E361E36903F0805321
:1020F0000193019B304F3B68DB0527D5236A6A6853
:1021000013F4407336D1236A6A6823F4407313438F
:1021100023621EB1E36923F08053E36128688307DB
:1021200006D52449AB684A6822F440421A434A6003
:1021300010F010001BD01F4AE9685368002023F4F8
:1021400080030B43536012E00026D3E73B6843F45F
:1021500080733B60FFF7F2F880463B68D805CDD42A
:10216000FFF7ECF8A0EB08006428F6D9032002B0D2
:10217000BDE8F08102F440729A42C4D001200F4AB7
:10218000236AC2F84004002023F44071C2F84004DE
:102190002162D907B7D5FFF7D1F841F28838074651
:1021A000236A9A07AFD4FFF7C9F8C01B4045F7D997
:1021B000DCE700BF00100240007000400000424217
:1021C000022808B544D0102803D0012822D00020CE
:1021D00034E0254B5A68186810F080702ED0C2F396
:1021E00083412248D20348BF5A68405C41BF20491E
:1021F000C2F34042895C1F4A5B684CBFB2FBF1F2FC
:102200001D4A5B0202FB00F018D403234000B0FB20
:10221000F3F013E040F20231134A136A1940B1F5AA
:10222000817F1ED003F44073B3F5007F07D149F6D8
:102230004043506A10F0020018BF184608BDB3F5BD
:10224000407FC4D110684FF2244310F40030F3E70C
:10225000FFF72CFF044B5B68C3F3813301335B0052
:10226000D5E74FF40040E9E700100240FD640008A4
:102270000D65000800127A0000093D00036A026A39
:1022800070B522F001020262446882690D6822F092
:1022900073022A438D6823F002032B430A4DA842A0
:1022A0000BD1CD6823F008032B4324F44074D1E90B
:1022B0000556354323F004032C43446082614A6889
:1022C0004263036270BD00BF002C0140036A026AD2
:1022D00070B522F4807202624468C2690D6822F00F
:1022E00073022A438D6823F4007343EA05230B4DE0
:1022F000A8420DD1CD6823F4006343EA052324F4FA
:102300004054D1E90556354323F4806344EA05146B
:102310004460C2614A68C263036270BD002C014020
:10232000036A026A30B522F4805202624468C269CC
:102330000D6822F4E64242EA05228D6823F4005338
:1023400043EA0533064DA84202BF4D6924F4804498
:1023500044EA85144460C2614A680264036230BD85
:10236000002C014070470000164A10B590420368E7
:1023700005D0B0F1804F02D0134CA04210D14C6870
:1023800023F07003904243EA040305D0B0F1804F7C
:1023900002D00D4A904203D1CA6823F4407313431C
:1023A0004A6923F08003134303608B68C3620B68A0
:1023B0008362044B984204BF0B69036301234361AA
:1023C00010BD00BF002C01400004004010B50446C1
:1023D00030B390F83D3003F0FF021BB980F83C2089
:1023E000FEF75CFE0223206884F83D30211DFFF7D4
:1023F000BBFF0123002084F8463084F83E3084F887
:102400003F3084F8403084F8413084F8423084F81A
:10241000433084F8443084F8453084F83D3010BDB2
:102420000120FCE710B5044630B390F83D3003F0CE
:10243000FF021BB980F83C20FFF794FF02232068BD
:1024400084F83D30211DFFF78FFF0123002084F821
:10245000463084F83E3084F83F3084F8403084F8C9
:10246000413084F8423084F8433084F8443084F8B2
:10247000453084F83D3010BD0120FCE7036A026A54
:1024800070B522F010020262446882690D6822F47D
:10249000E64242EA05228D6823F0200343EA051351
:1024A0000B4DA8420DD1CD6823F0800343EA0513FC
:1024B00024F44064D1E90556354323F0400344EA4F
:1024C0008504446082614A688263036270BD00BF14
:1024D000002C014070B590F83C300546012B50D0DF
:1024E0000123082A80F83C303BD007D8C2B1042A27
:1024F00027D01846002385F83C3070BD0C2AF8D14F
:102500000068FFF70DFFC3690A6943F40063C36104
:10251000C36923F48063C361C36943EA02232EE0E5
:102520000068FFF7ABFE83690A6943F00803836123
:10253000836923F00403836183691343836100206B
:10254000D8E70068FFF79AFF83690A6943F40063DC
:102550008361836923F480638361836943EA02238F
:10256000ECE70068FFF7B2FEC3690A6943F00803AD
:10257000C361C36923F00403C361C3691343C36127
:10258000DDE70220B9E710B584680A4324F47F44EC
:1025900042EA03222243826010BD38B590F83C30F5
:1025A0000446012B4FF0020000F08E80012284F8D7
:1025B0003D00206884F83C20836823F47F4323F0A7
:1025C000770383600B68602B4FD032D8402B64D0E8
:1025D00016D8202B0DD00AD833F0100109D00123D2
:1025E00084F83D30002384F83C30104638BD302B51
:1025F000F5D1826822F07002134343F0070328E00C
:10260000502BECD14A68CD68016A036A21F00A01B7
:1026100023F00103036283690A4323F0F00343EAD2
:10262000051383610262836823F0700343F057034C
:102630000FE0B3F5805F0DD0B3F5005F0CD0702BC9
:10264000CDD1CB68D1E90121FFF79DFF836843F02D
:10265000770383600022C2E7CB68D1E90121FFF74D
:1026600092FF836843F48043F3E7036A026A4D688C
:1026700022F01002C9680262826923F0A00322F4EA
:10268000704243EA051342EA0132826103628368C1
:1026900023F0700343F06703DBE74A68CD68016A03
:1026A000036A21F00A0123F00103036283690A43EC
:1026B00023F0F00343EA051383610262836823F089
:1026C000700343F04703C4E702468EE710B50124C8
:1026D000036A01F01F018C4023EA04030362036ACA
:1026E0008A401A43026210BD08B529B990F83E30FD
:1026F000012B21D0012008BD042907D190F83F30DB
:10270000012BF7D1022380F83F3018E0082907D1C8
:1027100090F84030012BEDD1022380F840300EE0DC
:1027200090F84130012BE5D10429EBD00829F3D0F2
:10273000022380F8413002E0022380F83E30006836
:102740000122FFF7C3FF0C4B98420AD1436C43F4BC
:1027500000434364836803F00703062B07D100207E
:10276000C9E7B0F1804FF5D0044B9842F2D003682E
:1027700043F001030360F2E7002C01400004004035
:10278000FFF7B2BF30B590F83C200346012A4FF066
:1027900002001ED01A6883F83D0054680D6824F0CA
:1027A00070042C43906854600A4CA24206D0B2F1E7
:1027B000804F03D0A4F59434A24204D1496820F09C
:1027C0008000014391600122002083F83D2083F8BE
:1027D0003C0030BD002C0140026802F10C0353E8BC
:1027E000003F23F490730C3242E800310268002964
:1027F000F2D102F1140353E8003F23F0010302F188
:10280000140C4CE800310029F3D1036B012B0BD1E0
:1028100002F10C0353E8003F23F0100302F10C0C0B
:102820004CE800310029F3D1202380F84230002306
:102830000363704710B504460368C1681A6922F43F
:1028400040520A431A6182680069D968024360698C
:1028500021F4B05121F00C0102430A43DA605A69B5
:10286000A16922F440720A435A610E4A934215D17B
:10287000FFF71CFC19234343626820689200B3FBF6
:10288000F2F36422B3FBF2F102FB11331B0132338A
:10289000B3FBF2F303EB0113836010BDFFF7F6FB0C
:1028A000E8E700BF00380140F8B504460E46174679
:1028B0001D462268136836EA030301D1002028E090
:1028C0006B1CF7D025B1FEF739FDC01B8542F0D255
:1028D000226802F10C0353E8003F23F4D0730C325A
:1028E00042E8003021680028F2D101F1140353E8D6
:1028F000003F23F0010301F1140040E80032002AF8
:10290000F3D12023032084F8413084F8402084F858
:102910004230F8BD10B5044648B390F8413003F09A
:10292000FF021BB980F84020FEF7EEFB242322684B
:1029300084F84130D368204623F40053D360FFF776
:1029400079FF236800201A6922F490421A615A69BB
:1029500022F02A025A61DA6842F40052DA60202337
:10296000606484F8413084F84230606310BD012017
:10297000FCE72DE9F843994690F841300446202BB6
:102980000E4617463CD100293CD0002A3AD02123DC
:102990000025456480F84130FEF7D0FCA3688046EE
:1029A000B3F5805FA784E78403D123690BB935466B
:1029B0001E46E38C9BB253B94B464246402120460B
:1029C000FFF772FF50B9202384F8413007E04B46EF
:1029D000424680212046FFF767FF10B10320BDE883
:1029E000F88322684EB935F8023BC3F308035360FD
:1029F000E18C013989B2E184DBE716F8013BF6E7A7
:102A00000220ECE70120EAE77047704708B5002391
:102A1000406AC385C384FFF7F8FF08BD704790F88C
:102A2000423007B5222B42D18168836AB1F5805FBD
:102A300002683FD1016900293FD15268C2F3080200
:102A400023F8022B8362C38D013B9BB2C385002B0D
:102A50002DD10268D16821F02001D160D16821F424
:102A60008071D160516921F001015161202280F80B
:102A700042204363026B012A026828D1036302F1FA
:102A80000C0353E8003F23F0100302F10C0C4CE858
:102A900000310029F3D11368DB0605D501911368D5
:102AA000019353680193019B818DFFF7B7FF03B03A
:102AB0005DF804FB39B9016929B95268D2B21A70BC
:102AC000836A0133BEE7526802F07F02F7E7FEF740
:102AD0000BFAECE7036873B51A6804461607D96861
:102AE0005D6908D1960668D58D0666D502B0BDE849
:102AF0007040FFF794BF05F0010001F490750543A5
:102B00005BD0D60705D5CD0542BF636C43F001030A
:102B10006364530704D518B1636C43F00203636424
:102B2000960704D518B1636C43F00403636415077A
:102B300007D501F0200303431EBF636C43F0080375
:102B40006364636C002B32D0920604D58B0602D5E9
:102B50002046FFF764FF266820467369626C03F025
:102B6000400302F0080253EA020522D0FFF734FEC8
:102B700073695E0618D5226802F1140353E8003F1A
:102B800023F04003143242E800310029F3D1E06B16
:102B900050B1744B4363FEF7DDFE40B1E06B436B15
:102BA00002B0BDE8704018472046FFF72EFF02B084
:102BB00070BDFFF72AFF6564F9E7206B012840F03C
:102BC0009480D50640F19180C80640F18E800022A5
:102BD00001921A6801925A680192019A5A69520642
:102BE0004DD5E16B0A68526892B2002ADFD0A08D01
:102BF0009042DCD9E2858A69202A36D003F10C02A2
:102C000052E8002F22F4807203F10C0040E800210A
:102C10000029F3D103F1140252E8002F22F001023F
:102C200003F1140040E800210029F3D103F114025C
:102C300052E8002F22F0400203F1140040E8002186
:102C40000029F3D1202284F84220216303F10C02F1
:102C500052E8002F22F0100203F10C0040E800219E
:102C60000029F3D1E06BFEF755FE02236363E38D89
:102C7000A18DC91A89B22046FFF7D0FE97E7E28DF1
:102C8000E08DA18D80B292B2002890D0891A89B2CD
:102C900000298CD003F10C0252E8002F22F490722C
:102CA00003F10C0545E800200028F3D103F11402DC
:102CB00052E8002F22F0010203F1140545E800203C
:102CC0000028F3D1202284F84220206303F10C0273
:102CD00052E8002F22F0100203F10C0545E8002015
:102CE0000028F3D102236363C5E7160628D50D0635
:102CF00026D594F84120212A7FF459AFA168226A91
:102D0000B1F5805F17D12169A9B932F8021BC1F36F
:102D1000080159602262E28C013A92B2E284002AF0
:102D20007FF445AFDA6822F08002DA60DA6842F0B8
:102D30004002DA603BE7511C216212785A60EAE7F0
:102D400050067FF534AF4A067FF531AFDA6820468A
:102D500022F04002DA60202384F84130FFF754FE6D
:102D600025E700BF0D2A00080023C2854364222303
:102D70008285026980F84230816203681AB1DA689C
:102D800042F48072DA605A69002042F001025A610E
:102D9000DA6842F02002DA60704770B490F842605E
:102DA000202E06D141B13AB10024046370BCFFF774
:102DB000DBBF022070BC70470120FBE7002B2DE930
:102DC000F0471F46BBBF03F100431F4600232D23DE
:102DD00088B01446129A109D1370149BDDF84CA015
:102DE00023F02008B8F1460F05D0B8F1450F00D107
:102DF0000135022300E0032307AA049206AACDE9C5
:102E000002A2CDE9003522463B4600F0D1FEB8F1E2
:102E1000470F064602D1119BDB0722D5B8F1460FBA
:102E200006EB050910D13378302B0AD1002200239C
:102E300020463946FDF7C2FD18B9C5F10105CAF8AB
:102E40000050DAF800309944002200232046394629
:102E5000FDF7B4FD08B1CDF81C903022079B4B451F
:102E600007D33046079B159A9B1B136008B0BDE83B
:102E7000F087591C07911A70F0E70346F7B500294F
:102E800003F8022BB6BF2D222B224942092942709A
:102E90002ADD0DF1070217460A2691FBF6F5944646
:102EA00006FB151430340CF8014C0C46632C2946F3
:102EB00002F1FF32F1DC3031ACF1020402F8011C06
:102EC0002246411CBA420AD30DF10902A2EB0C02C0
:102ED000BC4288BF00221344181A03B0F0BD12F898
:102EE000015B01F8015FEDE7302330318370C17081
:102EF000031DF1E72DE9F04F91B00C46DDF8688035
:102F000016461F46054600F045FD0368184609931E
:102F1000FDF728F900230E93D8F800300A90073304
:102F200023F0070303F1080294F81890D4F800B0D6
:102F3000C8F80020D3E900A852464346C4E912234A
:102F400028F000430B934FF0FF3250469C4B0B99F7
:102F5000FDF766FD70BB4FF0FF325046984B0B9962
:102F6000FDF740FD30BB0022002350464146FDF7EF
:102F70002FFD10B12D2384F84330924A924BB9F1C2
:102F8000470F94BF9046984603234FF0000A2361F1
:102F90002BF00403236033462146284600970FAAEE
:102FA00000F0D6F9013040F090804FF0FF3011B0C2
:102FB000BDE8F08F5246434650464146FDF730FD8E
:102FC00048B1B8F1000FB8BF2D23804AB8BF84F8CC
:102FD00043307F4BD3E7636809F0DF015A1C42D1CD
:102FE00006236360002206920EAACDE904920DAA80
:102FF0004BF4806303920DF13302CDE9013223607B
:10300000636852460093284643460B91FFF7D6FE6D
:103010000B99804647290D9908D1C81C02DB6368CB
:10302000994240DDA9F102095FFA89F9B9F1650F0A
:103030001FD84A46013904F150000D91FFF71DFFDA
:103040000E9A82461318012A236102DC2268D207F5
:1030500001D5013323619DF83330002B9BD02D2304
:1030600084F8433097E74729BCD1002BBAD101231C
:10307000B7E7B9F1660F18D1002963680BDD21614C
:1030800013B92268D00702D501330B4423614FF0F6
:10309000000AA165DFE713B92268D20701D5023320
:1030A000F4E70123F2E74FF067090E9B994205DB35
:1030B00023682161D807EAD54B1CE7E70029CCBF7C
:1030C0000122C1F102021344E0E723685A0507D444
:1030D0002369424631462846B84701302BD164E780
:1030E000B9F1650F40F2DD80D4E91201002200231E
:1030F000FDF764FC002833D0012331462846354AC9
:10310000B84701303FF451AFDDE90D239A4202DBAD
:103110002368D8070FD5DDE9092331462846B8478B
:1031200001303FF442AF4FF0000804F11A090E9B42
:10313000013B434509DC23689B0700F10481E068FB
:103140000F9B9842B8BF184631E701234A463146E3
:103150002846B84701303FF428AF08F10108E6E7F8
:103160000D9B002B38DC012331462846194AB8470D
:1031700001303FF41AAFDDE90D32134302D1236869
:10318000D907D8D5DDE9092331462846B8470130AB
:103190003FF40BAF4FF0000904F11A0A0D9B5B429C
:1031A0004B4501DC0E9B94E70123524631462846ED
:1031B000B84701303FF4F9AE09F10109EEE700BF6D
:1031C000FFFFEF7F0F650008136500081765000813
:1031D0001B6500084B6700080E9AA36D9A42A8BFB2
:1031E0001A46002A914637DC4FF0000B29EAE979AC
:1031F00004F11A02D4F858A0AAEB09035B4533DCAA
:10320000DDE90D239A423BDB2368DA0738D4DDE998
:103210000D32A2EB0309A2EB0A029145A8BF914629
:10322000B9F1000F34DC4FF0000829EAE97904F124
:103230001A0ADDE90D239B1AA3EB090343457FF727
:103240007AAF0123524631462846B84701303FF451
:10325000ACAE08F10108ECE7134631464246284679
:10326000B8470130C0D1A0E60123314628460B9271
:10327000B84701303FF499AE0B9A0BF1010BB9E757
:103280003146DDE909232846B8470130BFD18CE635
:103290004B463146284608EB0A02B8470130C2D1F6
:1032A00083E60E9A012A01DCDB0739D50123424669
:1032B00031462846B84701303FF477AEDDE90923AF
:1032C00031462846B84701303FF46FAED4E91201C9
:1032D00000220023DDF83890FDF770FBD8B909F122
:1032E000FF3308F1010231462846B84701300ED1BC
:1032F0005BE601234A4631462846B84701303FF491
:1033000054AE08F101080E9B013B4345F1DC5346E6
:1033100004F15002DEE64FF0000804F11A09F2E76A
:1033200001234246DFE701234A4631462846B84793
:1033300001303FF43AAE08F10108E3680F995B1AD7
:103340004345F0DCFBE64FF0000804F11909F4E70F
:103350002DE9F047164699468A680B69074693425D
:10336000B8BF1346336091F843200C46DDF8208047
:103370000AB1013333602368990642BF33680233D0
:103380003360256815F0060506D104F1190AE368D3
:1033900032689B1AAB422BDC94F84320131E226840
:1033A00018BF0123920630D44946384604F143023F
:1033B000C047013023D02368226903F00603042BA1
:1033C00014BF002533684FF0000608BFE56804F11C
:1033D0001A0408BFED1A54F8123C08BF25EAE57537
:1033E0009342C4BF9B1AED18B5421AD1002008E0E1
:1033F0000123524649463846C047013003D14FF0B9
:10340000FF30BDE8F0870135C1E73020E11881F8D1
:1034100043005A1C94F845102244023382F84310AA
:10342000C2E70123224649463846C0470130E6D06C
:103430000136D9E72DE9FF470F7E9146782F804668
:103440000C469A460C9D01F1430207D8622F0AD818
:10345000002F00F0D580582F00F0C18004F1420504
:1034600084F842703AE0A7F16303152BF6D801A166
:1034700051F823F0CD340008E13400085D34000831
:103480005D3400085D3400085D340008E134000854
:103490005D3400085D3400085D3400085D340008C8
:1034A000E73500080D350008A13500085D34000837
:1034B0005D340008093600085D3400080D35000849
:1034C0005D3400085D340008A93500082B681A1D1A
:1034D0001B682A6004F1420584F842300123A0E011
:1034E00020682B68070603F10401296001D51E68D6
:1034F00003E04606FBD5B3F90060002E03DA2D2366
:10350000764284F843300A23594812E02B68206839
:10351000191D2960050601D51E6802E04106FBD58C
:103520001E886F2F0CBF08230A235148002184F8FE
:1035300043106568002DA8BF2168A560A4BF21F0D5
:10354000040121600EB9002D4BD01546B6FBF3F1F6
:1035500003FB1167C75D05F8017D3746BB420E4688
:10356000F4D9082B0BD12368DE0708D523696168DD
:103570009942DEBF302305F8013C05F1FF35521BAF
:1035800022614B4621464046CDF800A003AAFFF732
:10359000DFFE01304AD14FF0FF3004B0BDE8F087C4
:1035A000236843F0200323607827324884F845706D
:1035B000236829681F0651F8046B02D45F0648BFD0
:1035C000B6B2DF0748BF43F02003296048BF23603D
:1035D0001EB9236823F0200323601023A6E72448A4
:1035E000E4E71546BDE72B682668181D6169286069
:1035F00035061B6801D5196002E07006FBD51980FD
:10360000002315462361BCE72B6800211A1D2A60A0
:103610001D686268284600F033FA08B1401B6060FC
:1036200063682361002384F84330AAE72A464946A9
:1036300040462369D0470130ADD023689B0713D49F
:10364000E068039B9842B8BF1846A6E701233246BC
:1036500049464046D04701309DD00135E368039983
:103660005B1AAB42F2DCEBE7002504F11906F5E743
:103670001F65000830650008002310B50446C0E946
:103680000033C0E90433836081814366C281836172
:10369000194608225C3000F062F9054B246263622F
:1036A000044BA362044BE362044B236310BD00BFD1
:1036B000D5380008FB3800083339000857390008AE
:1036C000024A0349034800F069B800BF0C0000201B
:1036D000515A00081800002041680C4B10B599425F
:1036E000044601D002F0B4F9A168094B994202D016
:1036F000204602F0ADF9E168064B994204D020461D
:10370000BDE8104002F0A4B910BD00BF3403002092
:103710009C0300200404002010B50B4B0B4C0C4AFA
:1037200020461A6004210022FFF7A6FF04F168007A
:1037300001220921FFF7A0FF04F1D0000222BDE819
:1037400010401221FFF798BF6C04002034030020C2
:10375000C1360008014800F091B900BF750400208F
:10376000014800F08CB900BF7504002010B5044674
:10377000FFF7F0FF236A1BB1BDE81040FFF7F0BF71
:10378000044B2362044B1B68002BF5D1FFF7C4FFE9
:10379000F2E700BFD93600086C0400202DE9F84399
:1037A0000746884614460026D4E90195B9F1010977
:1037B00005D52468002CF7D13046BDE8F883AB89E5
:1037C000012B07D9B5F90E30013303D0294638460D
:1037D000C04706436835E9E70CB430B5174B0C1EFB
:1037E0001D689DB008DA8B234FF0FF302B601DB0B1
:1037F000BDE8304002B070474FF40273ADF81430AA
:103800000CBF234604F1FF33049307934FF6FF7375
:1038100002900690ADF81630284621AB209A02A9F6
:10382000019301F077FC431CBCBF8B232B60002C61
:10383000DDD00022029B1A70D9E700BF640000208F
:103840000EB46FF0004100B59CB01DAB0290069025
:10385000079104910848094953F8042B0591006821
:1038600002A9019301F056FC0022029B1A701CB0C1
:103870005DF804EB03B07047640000200802FFFF0E
:103880000EB44FF4017230B59CB01FAC54F8045B19
:10389000ADF8142002900690FCF764FC0B4B0390EB
:1038A0000B9300230F9314934FF6FF730790084870
:1038B000ADF816302A46234602A90068019401F0AB
:1038C00081FD1CB0BDE8304003B07047F7380008F8
:1038D0006400002010B50C46B1F90E1000F080F81D
:1038E0000028ABBF636DA3891B1823F48053ACBFC2
:1038F0006365A38110BD002070472DE9F0411F468C
:103900008B890546DB050C46164605D502230022A9
:10391000B1F90E1000F052F8A389324623F4805317
:10392000A38128463B46B4F90E10BDE8F04100F0F3
:1039300069B810B50C46B1F90E1000F03FF8431C01
:10394000A38915BF606523F4805343F48053A3819A
:1039500018BFA38110BDB1F90E1000F01FB80346C7
:103960000244934200D1704703F8011BF9E710B5F8
:103970006AB10139841810F8012B11F8013F9A42FD
:1039800003D1A04201D0002AF5D1D01A10BD1046B3
:10399000FCE70000004870475801002038B50023BC
:1039A000054D044608462B60FDF732FC431C02D14E
:1039B0002B6803B1236038BD7004002038B504467D
:1039C000084611460022054D2A601A46FDF72AFCDA
:1039D000431C02D12B6803B1236038BD7004002062
:1039E00038B50446084611460022054D2A601A469D
:1039F000FDF7F2FB431C02D12B6803B1236038BDF5
:103A00007004002038B50446084611460022054DD2
:103A10002A601A46FDF7EEFB431C02D12B6803B166
:103A2000236038BD70040020014B1868704700BF48
:103A30006400002070B500260C4D0D4C641BA410D2
:103A4000A64209D102F00CFD00260A4D0A4C641B67
:103A5000A410A64205D170BD55F8043B9847013625
:103A6000EEE755F8043B98470136F2E798680008FE
:103A700098680008986800089C68000870477047BC
:103A8000034610B5C9B202449342184601D1002042
:103A900003E0047801338C42F6D110BD2DE9F74FD5
:103AA00003690C690746A3427FDB013C00F1140562
:103AB00001F1140805EB8403019358F8243055F8FC
:103AC000242001339A42B2FBF3F64FEA840B08EB51
:103AD000840931D34FF0000E4046AC46F24650F810
:103AE000042B93B206FB03E34FEA124E1A0C9BB26F
:103AF00006FB0E22AAEB0303DCF800A04FEA124EED
:103B00001FFA8AFA5344DCF800A092B2C2EB1A42C0
:103B100002EB23429BB243EA024381454FEA224A29
:103B20004CF8043BDBD255F80B302BB9019B043B1E
:103B30009D421A462DD33C61384601F093F9002886
:103B400023DB29460020013658F8042BD1F800C0A9
:103B500093B2C31A120C1FFA8CF00344C2EB1C423E
:103B600002EB23429BB243EA0243C1454FEA2240A3
:103B700041F8043BE8D255F8242005EB840322B930
:103B8000043B9D421A460AD33C61304603B0BDE86F
:103B9000F08F1268043B002ACDD1013CC8E71268BF
:103BA000043B002AF0D1013CEBE70020EEE70000E7
:103BB0002DE9F04F16461F46C46999B00546CDE978
:103BC0000467DDF8948074B9102000F01DFE0246F1
:103BD000E86120B9EF21AC4BAC4802F00BF8C0E92A
:103BE00001440460C460EB69196851B15A6801234B
:103BF00093404A608B60284600F0FAFE0022EB6991
:103C00001A603B1EAFBF0023012223F0004305933F
:103C1000A8BFC8F80030DDF814909D4BB8BFC8F8B5
:103C2000002033EA090319D142F20F73249A13607A
:103C3000C9F31303334300F08985269B53B9954B91
:103C400023E0954B03930833269A1360039819B029
:103C5000BDE8F08F8F4B03930333F5E7DDE90434C0
:103C6000CDE90C34DDE90C0100220023FCF7A6FEAF
:103C7000804660B10123249A1360269B002B00F03C
:103C80006285864B269A1360013B0393DEE716ABF1
:103C9000019317AB00932846DDE90C2301F08AF964
:103CA000C9F30A548246002C7ED0DDE90C010D9B3D
:103CB000A4F2FF34C3F3130343F07F5343F44013E0
:103CC000CDF84C8019460022754BFCF757FA68A3D3
:103CD000D3E90023FCF70AFC67A3D3E90023FCF730
:103CE0004FFA064620460F46FCF796FB64A3D3E93D
:103CF0000023FCF7FBFB02460B4630463946FCF737
:103D00003FFA06460F46FCF7A1FE00228346002339
:103D100030463946FCF75CFE48B15846FCF77CFB60
:103D200032463B46FCF74AFE08B90BF1FF3BBBF1BC
:103D3000160F57D8DDE90C015A4B03EBCB03D3E93F
:103D40000023FCF745FE00284ED000230BF1FF3B7B
:103D50000F93169B1B1B5A1E46BFC3F1010900237C
:103D60004FF00009099248BF0993BBF1000F3DDBFA
:103D7000099BCDF838B05B44099300230A93229B3A
:103D8000092B67D8052BC4BF043B2293229BC8BFD5
:103D90000024A3F10203D8BF0124032B00F2868084
:103DA000DFE803F02C393756DDE916431C4404F2F2
:103DB0003243202BC1BFC3F1400309FA03F904F2D7
:103DC000124326FA03F3D6BFC3F1200349EA0300E6
:103DD00006FA03F0FCF710FB0122A1F1F873013C95
:103DE00013926FE70123B3E70F90B2E7CBF1000323
:103DF0000A930023A9EB0B090E93C0E700230B9352
:103E0000239B002B55DC01231A460693089323922B
:103E10000BE00123F3E700230B93239B5B44069302
:103E20000133012B0893B8BF012300210422E86964
:103E300002F114069E4240D94160284600F098FDE8
:103E4000039000283CD1024640F2AF11164BC3E666
:103E50000123E1E7012400230B9422934FF0FF3369
:103E60000022069308931223D1E700BFAFF300802E
:103E700061436F63A787D23FB3C8608B288AC63F70
:103E8000FB799F501344D33F4E65000865650008D9
:103E90000000F07F4A650008416500084C67000893
:103EA0000000F83F50660008BD65000801230B9331
:103EB000D4E7239B06930893B7E701315200B7E795
:103EC000EB69039A1A60089B0E2B00F2A880002C65
:103ED00000F0A580BBF1000F34DD9A4B0BF00F0210
:103EE00003EBC2031BF4807FD3E90034CDE9103427
:103EF0004FEA2B1416D0DDE90C01934B0327D3E9CD
:103F00000823FCF71DFCCDE9040104F00F048E4EDC
:103F100054B9DDE91023DDE90401FCF711FCCDE91A
:103F2000040129E00227F2E7E10708D5DDE91001E5
:103F3000D6E90023FCF7DAFACDE910010137641065
:103F40000836E5E700F0A580DDE90C01CBF10004BF
:103F50007C4B04F00F0203EBC203D3E90023FCF710
:103F6000C5FA02270023CDE90401774E2411002C65
:103F700040F08480002BD2D1DDE90434CDE9103447
:103F80000F9B002B00F08780DDE9100100226F4BB2
:103F9000FCF71EFD00287ED0089B002B7BD0069BE3
:103FA000002B38DDDDE910010022694BFCF79EFA99
:103FB000CDE90401069C0BF1FF3801373846FCF7C8
:103FC0002BFADDE90423FCF791FA0022614BFCF7A0
:103FD000D7F8A1F15076CDE910011196002C5DD1F2
:103FE000DDE9040100225C4BFCF7C8F802460B46F1
:103FF000CDE904233346109AFCF708FD002840F071
:104000009582DDE90401109A06F10043FCF7E0FC1B
:10401000002840F08982DDE90C34CDE90434179B97
:10402000002BC0F25181BBF10E0F00F34D81454BC7
:1040300003EBCB03D3E90034CDE90634239B002BFB
:1040400080F2DA80089B002B00F3D68040F06B8270
:10405000DDE906010022404BFCF748FADDE90423C4
:10406000FCF7CAFC089C2646002840F04182312318
:10407000039F0BF1010B07F8013B3DE2E20705D579
:10408000D6E90023FCF732FA012301376410083621
:104090006DE7022770E7D846089C8FE70399294B04
:1040A000214412910B9903EBC403DDE9106753E936
:1040B0000223002954D000202849FCF741FB3B464D
:1040C0003246FCF75BF8CDE91001039FDDE90401FE
:1040D000FCF7BCFC0446FCF79FF902460B46DDE901
:1040E0000401FCF74BF802460B463034CDE90423BB
:1040F000DDE9102307F8014BFCF76AFC002873D1B7
:10410000DDE9042300201149FCF738F8DDE910232C
:10411000FCF75EFC002840F0B680129B9F423FF403
:104120007AAFDDE910010022094BFCF7DFF900222C
:10413000CDE91001DDE90401054BFCF7D7F9CDE924
:104140000401C3E750660008286600080000F03F3D
:104150000000244000001C40000014400000E03F2C
:1041600030463946FCF7C2F9129BCDE91001039C99
:104170001493DDE90401FCF769FC1590FCF74CF998
:1041800002460B46DDE90401FBF7F8FF159B0646E6
:10419000303304F8013B129B0F469C424FF0000263
:1041A00024D1DDE91001AF4BFBF7EAFF02460B46D5
:1041B00030463946FCF72AFC002863D1DDE910239C
:1041C0000020A849FBF7DAFF02460B463046394685
:1041D000FCF7FEFB00283FF41EAF149F7B1E1493D8
:1041E00017F8013C302BF8D0C3463BE09E4BFCF760
:1041F0007DF9CDE90401BCE7039FDDE90489DDE930
:10420000062340464946FCF79BFAFCF71FFC044690
:10421000FCF702F9DDE90623FCF768F902460B46D4
:1042200040464946FBF7AAFF04F1300607F8016B48
:10423000039EDDF820C0BE1BB44502460B4636D1B6
:10424000FBF79EFFDDE9062380468946FCF7DEFB8F
:1042500058BBDDE9062340464946FCF7AFFB08B1F1
:10426000E30722D45146284600F0C2FB0023249ADB
:104270003B700BF101031360269B002B3FF4E6AC6F
:104280001F60E3E427463B461F4613F8012D392AF9
:1042900007D1039A9A42F7D13022039908F1010815
:1042A0000A701A7801321A709EE7D846EBE70022AE
:1042B0006D4BFCF71BF90022002380468946FCF772
:1042C0007DFB00289BD0CDE70B9A002A00F0C4802C
:1042D000229A012A00F3A880139A002A00F0A080F5
:1042E00003F233434F460A9C099A01211A44284697
:1042F0009944099200F032FC06465FB1099B002BFD
:1043000008DDBB42A8BF3B46099AA9EB0309FF1A87
:10431000D31A09930A9BF3B10B9B002B00F0A080EA
:10432000002C10DD31462246284600F0D5FC5246CE
:1043300001460646284600F027FC8046514628469E
:1043400000F056FBC2460A9B1A1B04D05146284671
:1043500000F0C2FC82460121284600F0FFFB0E9BC4
:104360000446002B40F382801A460146284600F09E
:10437000B3FC229B0446012B7BDD4FF00008236930
:1043800004EB8303186900F09BFBC0F12000099B3C
:10439000184410F01F0000F09280C0F12003042B9D
:1043A00040F38580099BC0F11C000344814407440D
:1043B0000993B9F1000F05DD51464A46284600F041
:1043C000E5FC8246099B002B05DD21461A4628465E
:1043D00000F0DCFC04460F9B002B72D021465046B7
:1043E00000F040FD00286CDA002351460A222846DE
:1043F00000F020FB0B9B82460BF1FF3B002B00F0F3
:10440000AC81002331460A22284600F013FB069BAC
:104410000646002B00F39380229B022B59DC8EE092
:10442000169BC3F136035DE7089B5C1E0A9BA34203
:10443000BFBF0A9B0E9AE31AD218A8BF1C1B089B89
:10444000BEBF0A940E920024002BB5BFA9EB030750
:104450004F460023089B47E74F460A9C0B9E4CE7BC
:104460000A9A73E70000E03F00002440229B012BE2
:1044700018DC049BB3B9059BC3F3130393B9059BE5
:1044800023F000431B0D1B057BB14FF00108099B76
:1044900009F10109013309930E9B002B7FF46FAFE3
:1044A000012074E74FF00008F6E79846F4E780D063
:1044B000099A1C331A4499441F44099279E7034628
:1044C000F6E7089B002B34DC229B022B31DD089B96
:1044D0000693069B63B921460522284600F0AAFAF6
:1044E00001460446504600F0BDFC00283FF7BFAD32
:1044F000239B039F6FEA030B4FF0000821462846D9
:1045000000F076FA002E3FF4ADAEB8F1000F05D002
:10451000B04503D04146284600F06AFA31462846A5
:1045200000F066FA9EE600242646E1E7C3462646EA
:104530009DE50B9B002B00F0C880089B0693002F85
:1045400005DD31463A46284600F020FC0646B8F123
:10455000000F5BD02846716800F00AFA074628B9B8
:10456000024640F2EF21814BFFF736BB326906F17C
:104570000C01023292000C3001F02EFB0122394670
:10458000284600F003FCB0460646039B039A01331D
:104590000893069B13440B93049B03F001030A93B7
:1045A000089B2146013B50460493FFF777FA4146AA
:1045B000069000F13009504600F054FC3246099054
:1045C0002146284600F06AFCC268074602BB014645
:1045D000504600F047FC0246394628460C9200F04F
:1045E00007FA229B0C9A089F43EA02010A9B19438F
:1045F00010D1B9F1390F29D0099B002B02DD069BA0
:1046000003F13109049B83F8009077E73046BAE75D
:104610000122E1E7099B002B04DB22990B430A9955
:104620000B4320D1002AEDDD51460122284600F03F
:10463000ADFB2146824600F015FC002803DCE1D1E9
:1046400019F0010FDED0B9F1390FD8D13923049A0E
:1046500013703B461F4617F8012C013B392A6BD0DB
:1046600001321A704AE7002A07DDB9F1390FEDD09F
:10467000049A09F10103137040E7089B0B9A03F8B1
:10468000019C934242D0514600230A22284600F062
:10469000D1F9B04582464FF000034FF00A0241467F
:1046A000284607D100F0C6F980460646089B01332C
:1046B000089375E700F0BEF93146804600230A22D0
:1046C000284600F0B7F90646F0E7089B0693039FDB
:1046D00021465046FFF7E2F9039B00F1300907F845
:1046E000019BFA1A069B934207DD514600230A22DA
:1046F000284600F09FF98246EAE7069B4FF0000843
:10470000002BCCBF1F460127039B1F4451460122AB
:10471000284600F03BFB2146824600F0A3FB002820
:1047200097DC02D119F0010F93D13B461F4613F8D5
:10473000012D302AFAD0E1E6039A9A428AD1312338
:104740000BF1010B97E70A4BFFF79FBA269B002B53
:104750007FF477AA074BFFF798BA069B002BB6DCCD
:10476000229B022B3FF7B5AEB1E700BFBD65000845
:104770004B6700084165000838B50546002940D060
:1047800051F8043C0C1F002BB8BFE41800F0E4F80B
:104790001C4A136833B9636014602846BDE838408A
:1047A00000F0E0B8A34208D9206821188B4201BF6D
:1047B00019685B6809182160EDE71A465B680BB160
:1047C000A342FAD911685018A0420BD120680144C5
:1047D000501883421160E0D118685B68084410608B
:1047E0005360DAE702D90C232B60D6E72068211842
:1047F0008B4201BF19685B680918216063605460CF
:10480000CBE738BD78040020024B0146186800F061
:1048100023B800BF6400002070B50E4E0C4631680E
:10482000054611B901F0C8F930602146284601F06B
:10483000C3F9431C0AD0C41C24F00304A04207D0CF
:10484000211A284601F0B8F9013001D14FF0FF34A8
:10485000204670BD7C0400202DE9F843CD1C25F0D6
:10486000030508350C2D38BF0C25002D074601DB4C
:10487000A94205D90C2300263B603046BDE8F883E9
:10488000DFF8D08000F068F8D8F800301C465CBB38
:1048900029463846FFF7C0FF431C044655D1D8F8D7
:1048A00000402646002E45D1002C48D023683146D2
:1048B000384604EB030901F07FF981453FD12168B7
:1048C00038466D1A2946FFF7A7FF013037D0236815
:1048D0002B442360D8F80030002B38D05A68A2420D
:1048E0002BD100225A600FE02268521B1FD40B2AE2
:1048F00017D96119A342256018BF5960636808BFC2
:10490000C8F8001062514B60384604F10B0600F005
:1049100029F826F00706231DF21AAED09B1BA350E0
:10492000ABE7A3426268DDD1C8F80020ECE723467C
:104930006468ACE734467668B4E71346CCE70C23EA
:1049400038463B6000F00EF897E72560DCE75B60D7
:10495000FFDE00BF780400200148FFF78FB800BFDA
:10496000740400200148FFF78AB800BF74040020D7
:1049700070B5C66904460D4676B91020FFF744FFAE
:104980000246E06120B96B21174B184801F032F95B
:10499000C0E901660660C660E669F36883B1E36951
:1049A000DB6853F82500B8B9012101FA05F6721D3C
:1049B0002046920001F03CF960B1C0E901560EE0DA
:1049C00021220421204601F033F9E369F060DB681D
:1049D000002BE4D1002070BD026843F8252000239D
:1049E000C0E90333F7E700BF4E650008CE65000855
:1049F00070B5C66905460C4676B91020FFF704FF6E
:104A00000246E86120B98F21084B094801F0F2F80D
:104A1000C0E901660660C6603CB1EB696268DB68AC
:104A200053F82210216043F8224070BD4E65000803
:104A3000CE6500082DE9F04107460C461E460020D1
:104A40000D6901F1140CDCF80030013099B202FB61
:104A500001611E0C0B0C02FB063389B201EB034112
:104A600085424FEA13464CF8041BECDC0EB3A368F6
:104A7000AB4219DC616838460131FFF779FF8046A7
:104A800028B90246BA210C4B0C4801F0B3F8226950
:104A900004F10C01023292000C3001F09DF8214625
:104AA0003846FFF7A5FF444604EB850301355E61F8
:104AB00025612046BDE8F081BD650008CE6500088F
:104AC000020C12040346CAB90304102013F07F4FEE
:104AD00004BF1B02083013F0704F04BF1B010430E9
:104AE00013F0404F04BF9B000230002B05DB13F096
:104AF000804F00F1010008BF202070470020E5E74B
:104B00000368024613F007000BD0D90721D4980799
:104B100049BF5B089B08012013605CBF0220136043
:104B2000704799B209B910201B0CD9B209B90830E5
:104B30001B0A190704BF1B090430990704BF9B080F
:104B40000230D90703D45B0800F1010003D01360E1
:104B500070470020704720207047000010B50C46B9
:104B60000121FFF705FF024628B940F24511044B29
:104B7000044801F03FF801234461036110BD00BF08
:104B8000BD650008CE6500082DE9F04F91460A6921
:104B9000D9F810300C469A42BEBF0B464C46994697
:104BA0002769D9F810A0A368616807EB0A06B34229
:104BB00085B0B8BF0131FFF7DBFE30B902464FF4D4
:104BC000B171434B434801F015F800F114052B4631
:104BD000002205EB8608434521D304F1140303EBBF
:104BE000870709F1140303EB8A0202923A1B153A74
:104BF00022F00302043204F115018F4238BF04226F
:104C00000192029A03939A420CD8002E03DD58F8C1
:104C1000043D002B5AD0066105B0BDE8F08F43F883
:104C2000042BD8E7B3F800A0BAF1000F23D0A946AF
:104C30004FF0000C04F1140E5EF8042BD9F80010AC
:104C40001FFA82FB89B20AFB0B116144D9F800C03C
:104C5000120C4FEA1C4C0AFB02C202EB114289B251
:104C600041EA024177454FEA124C49F8041BE3D868
:104C7000019A45F802C0039A0433B2F80290B9F1E0
:104C8000000F21D0AE464FF0000A296804F1140C41
:104C9000BCF800B0BEF8022089B209FB0B225244D6
:104CA00041EA02414EF8041B5CF8041B4FEA114A2A
:104CB000BEF80010674509FB0A1101EB12414FEAEB
:104CC000114AE5D8019AA95004359AE7013E9CE7BC
:104CD000BD650008CE6500082DE9F843154612F0C1
:104CE000030206460F4607D0254C013A002354F82C
:104CF0002220FFF79FFE0746AD103DD0F4697CB936
:104D00001020FFF781FD0246F06128B940F2B3118F
:104D10001C4B1D4800F06EFFC0E901440460C460F4
:104D2000D6F81C80D8F808404CB940F271213046C2
:104D3000FFF714FF00230446C8F8080003604FF093
:104D40000009EB070AD5394622463046FFF71CFF1B
:104D5000804639463046FFF74BFE47466D100BD074
:104D6000206838B9224621463046FFF70DFF206003
:104D7000C0F800900446E4E73846BDE8F88300BF79
:104D8000186700084E650008CE6500082DE9F04759
:104D90000C46074691462369496803EB6218A368ED
:104DA0004FEA621A08F10106B3420BDB3846FFF7FF
:104DB000DFFD054648B902464FF4EF71274B2848FE
:104DC00000F018FF01315B00EEE7002300F1140151
:104DD00000F110021846534533DB20692AEAEA7ACB
:104DE00004F1140319F01F0901EB8A0103EB800C95
:104DF0002BD08A460022C9F1200E186800FA09F06B
:104E000010434AF8040B53F8042B9C4522FA0EF287
:104E1000F3D8ACEB0403153B23F00303043304F194
:104E20001500844538BF0423CA500AB108F10206B0
:104E3000013E384621462E61FFF7DAFD2846BDE8DF
:104E4000F08742F8040F0133C5E7043953F8042B07
:104E50009C4541F8042FF9D8EAE700BFBD6500087A
:104E6000CE65000803460A69006930B5801A0DD185
:104E70001433143103EB820401EB820154F8045D16
:104E800051F8042D954202D004D3012030BDA34235
:104E9000F4D3FBE74FF0FF30F8E700002DE9F84FBF
:104EA0000D460746114628461446FFF7DBFF061E4F
:104EB00011D131463846FFF75BFD024628B940F272
:104EC00037213A4B3A4800F095FE0123C0E90436F9
:104ED0001046BDE8F88FA4BF23462C4638466168CB
:104EE000A6BF1D4600260126FFF742FD024618B95F
:104EF00040F245212D4BE5E702F11408C2464FF080
:104F0000000C2769C6602E6904F1140005F114092C
:104F100000EB870E09EB8606103454F804BF59F8ED
:104F2000043B1FFA8BF161441FFA83FC1B0CA1EBBD
:104F30000C01C3EB1B4303EB214389B241EA03415C
:104F40004E454FEA234C4AF8041BE6D8731B153B29
:104F500023F0030315350433AE4238BF042318444D
:104F600043441E46054675450ED30EF10301091A4A
:104F700021F003010338864538BF00210B4453F864
:104F8000041D89B11761A3E755F8048B1FFA88F156
:104F900061440C1404EB184489B241EA04414FEA1D
:104FA000244C46F8041BDEE7013FE8E7BD65000836
:104FB000CE650008F7B5012117461C46089EFFF78D
:104FC000D7FC054630B9024640F20F31224B234848
:104FD00000F010FEC4F31303C4F30A5424BB002FE3
:104FE000019326D068460097FFF78AFDDDE900129D
:104FF000E8B1C0F1200302FA03F30B43C2406B6136
:105000000192019B002B14BF02210121AB61296198
:10501000BCB1A4F2334404443460C0F13500099BB0
:105020001860284603B0F0BD43F48013D7E76961E8
:10503000E7E701A8FFF764FD019B01216B612030C8
:10504000E5E7A0F2324005EB810330601869FFF715
:1050500037FDC0EB4110E2E7BD650008CE650008F2
:105060002DE9F0471F468E688246BE420C469046A8
:105070000B682CD88A8912F4906F26D0656909696B
:1050800005EB4505A3EB010905EBD5757B1C4B44EE
:105090006D109D4238BF1D46530527D52946FFF7A1
:1050A000DBFB064660B34A46216900F095FDA38903
:1050B00023F4906343F08003A38126614E4426606D
:1050C0003E466561A5EB0905A560BE4200D93E4696
:1050D00032464146206800F054FD0020A3689B1B27
:1050E000A360236833442360BDE8F0872A4600F0BC
:1050F000C5FD06460028E0D150462169FFF73CFB7C
:105100000C23CAF80030A3894FF0FF3043F040036E
:10511000A381E9E72DE9F04F98468B8907461B06E6
:105120000D4614469DB00ED50B6963B94021FFF7BB
:1051300093FB2860286120B90C233B604FF0FF30BF
:10514000D0E040236B610023099320238DF82930A0
:1051500030234FF00109CDF80C80DFF8A0818DF8E5
:105160002A3023469A4613F8012B0AB1252AF9D191
:10517000BAEB040B0BD05B46224629463846FFF7B4
:105180006FFF013000F0A980099A5A4409929AF8F9
:105190000030002B00F0A18000234FF0FF32CDE95A
:1051A00005230AF1010A049307938DF853301A93EB
:1051B0005446052214F8011B5048FEF761FC049A7E
:1051C000D8B9D00644BF20238DF85330110744BF0F
:1051D0002B238DF853309AF800302A2B15D05446E3
:1051E00000204FF00A0C079A214611F8013B303B92
:1051F000092B4DD9B0B1079214E0A0EB080309FACE
:1052000003F31343A2460493D2E7039B191D1B68C3
:105210000391002BBBBF5B4242F00202079307934E
:10522000B8BF049223782E2B0CD163782A2B34D16B
:10523000039B02341A1D1B680392002BB8BF4FF06A
:10524000FF330593DFF8B8A0032250462178FEF71C
:1052500017FC38B14022049BA0EB0A0082401343A4
:105260000134049314F8011B062226488DF82810F7
:10527000FEF706FC002838D0234B1BBB039B0733EB
:1052800023F0070308330393099B3344099368E72A
:105290000C4601200CFB0232A6E700234FF00A0C5B
:1052A000194601340593204610F8012B303A092A9B
:1052B00003D9002BC6D00591C4E7044601230CFB9B
:1052C0000121F0E703AB00932A4638460F4B04A9AF
:1052D000FDF710FE421C0646D6D1AB895B063FF5B2
:1052E0002DAF09981DB0BDE8F08F03AB00932A469F
:1052F0003846064B04A9FEF79DF8EBE72467000843
:105300002A6700082E670008F52E00086150000883
:1053100038B54B1C144603D14FF0FF35284638BD35
:105320009389CDB223F020039381636B52688BB1D4
:10533000A36B934208DD23685A1E226003F8015CC8
:10534000636801336360E9E7214600F0E2FB00286F
:10535000F1D0E1E72169236851B1994208D213F8ED
:10536000011CA94204D1013B013223606260D5E7F0
:10537000C4E90F3204F1440363630323A3632346A8
:1053800003F8465F23600123DCE710B50C46496B48
:1053900069B104F14403994201D0FFF7EDF900200F
:1053A000236C6063636013B1E36B236010BD2369FA
:1053B0004FF0FF30236000236360A38943F0200394
:1053C000A381F3E72DE9F0470C4600210646ADF531
:1053D000227DCDE94411A6490DF10408A091A5490B
:1053E000A54FDFF89892CDF81881A191009313781A
:1053F000002B00F05A81F95C551C11F0080119D0FE
:105400006368002B0FDD23681A78BA5C120701D499
:105410002A46ECE7459A01330132459262682360DF
:10542000013A6260ECE721463046A19B984700288C
:10543000E9D0EDE7252B12D09A466368002B40F3A4
:10544000928022681378534540F02F8163680132BF
:10545000013B6360459B226001334593D8E741914E
:10546000439153782A2B04BF1023951C4FF00A0256
:1054700008BF4193AA461AF8011BA1F13003092B7A
:105480001CD903227D48FEF7FBFA38B101235546AB
:10549000419AA0EB090083401343419315F8013B67
:1054A000782B06D8572B10D8252BC5D056D8002BD3
:1054B00064D0032347930A23429375E0439B5546E8
:1054C00002FB031130394391D4E7A3F15802202A9B
:1054D000EFD801A151F822F08B550008B354000811
:1054E000B3540008E9550008B3540008B354000849
:1054F000B3540008B3540008B3540008B354000870
:10550000B3540008FF550008E5550008635500082E
:105510006355000863550008B3540008A1550008FE
:10552000B3540008B3540008B3540008B35400083F
:105530000F560008DD55000883550008B3540008D5
:10554000B35400080B560008B3540008E555000892
:10555000B3540008B35400088B550008453B022B98
:10556000A7D805231FE021463046A19B9847002875
:105570003FF467AF4498002840F08D804FF0FF3033
:105580008FE0419A42F020024192419A42F4007227
:10559000419210226F2B34BF03230423429202E076
:1055A00000234293032347936368002B3DDD419B17
:1055B000590604D423681A78BA5C12073CD4479B76
:1055C000022B4BDC6B462246304641A900F072F8B4
:1055D00001286AD002287FF41BAFCBE7082342934F
:1055E0000423E0E70A22D5E72946404600F058FAAE
:1055F000419B054643F0400341930123D3E7419B80
:1056000043F0400341930023CDE70223CBE74198C9
:10561000C3063FF5FDAE009B459A191D00911B681E
:10562000C0074CBF1A801A60F2E621463046A19BA3
:1056300098470028BBD09DE7459A013245926268A1
:10564000013A002A626002DD01332360B2E721469D
:105650003046A19B98470028ACD08BE7042B0FDC89
:105660006B462246304641A900F07EF8B0E700BF05
:10567000115300088B530008976700082A67000839
:105680000B4B002B3FF4C4AE6B462246304641A97B
:10569000AFF300809CE7A38913F0400F18BF4FF0D1
:1056A000FF300DF5227DBDE8F0874498F9E700BF93
:1056B000000000002DE9F84315468A6880460C4634
:1056C00032B98A69002A0CBF01224FF0FF328A608A
:1056D00000272268DFF88C90D1065FBF1A68111D81
:1056E00019601668A06988B1012807D12B681A785B
:1056F00063699B5C53B9002F31D022E0022820D18E
:105700002B681B7819F803301B071AD4236801375C
:10571000DA065EBF2B681B7806F8013B2A686B68C7
:1057200001322A60A268013B013A6B60A26042B17B
:10573000002BD7DC29464046D4F880319847002812
:10574000D0D0236813F0100305D1E2680132E26083
:10575000A26902B13370002023693B442361BDE894
:10576000F88300BF976700082DE9F04F0C46984674
:10577000724B87B08246164693E8070003AB83E876
:1057800007006F4BA1696F4A2746032918BF1A46C5
:10579000A36801925A1EB2F5AE7F81BF6FF4AE7559
:1057A00003EB050940F25D13A36057F81C3B98BF5B
:1057B0004FF000093D464FF0000B43F45063236067
:1057C000316803AB0222097853F82B00FEF758F931
:1057D00028B3BBF1010F59D162682AB908232268A6
:1057E000636042F400722260226822F4A0622260A8
:1057F000A268511EA16092B13268511C31601278CA
:1058000005F8012B7268013A002A726007DC314604
:105810005046D4F880219047002840F085800BF155
:10582000010BBBF1030FCBD163680BB90A23636093
:10583000636845496069C91A00F032F94FF0000BFE
:10584000A3682268002B3DD03168606991F800C0E0
:1058500010F80C00002835D0BCF1300F24D1100511
:1058600022D50BF1010BB9F1000F03D0013309F17F
:10587000FF39A3607368013B002B73601BDD336845
:1058800001333360A368013BA360D9E7BBF1020F8A
:10589000AED1226802F4C061B1F5007FBFD1102300
:1058A00042F480726360A2E722F4106222600B78F7
:1058B00005F8013BDEE731465046D4F88031984781
:1058C0000028DFD02368D9050DD5BD4209D915F8C8
:1058D000011C32465046D4F87C3105F1FF39984717
:1058E0004D46BD4228D0226812F0100213D12A7012
:1058F000394663685046019EB047D8F800302168A9
:105900001A1DC8F8002011F0200F1B680FD0186076
:10591000E3680133E36000202369ED1B5D442B4401
:10592000236107B0BDE8F08F4FF0000BCAE7CA074C
:105930004CBF18801860EBE70120F2E7786400089C
:10594000C15E0008D95D0008456700088A89F8B57E
:10595000054610070C4657D44B68002B04DC0B6C33
:10596000002B01DC0020F8BDE66A002EFAD00023EF
:1059700012F480522F68216A2B6032D0606DA389A7
:105980005A0705D56368C01A636B0BB1236CC01A44
:1059900000230246E66A2846216AB047431CA389D1
:1059A00006D129681D292BD8284A0A41D60727D4B1
:1059B000002262602269D904226004D5421C01D110
:1059C0002B6803B96065616B2F600029CAD004F1B0
:1059D0004403994202D02846FEF7CEFE00206063C1
:1059E000C1E701232846B047411CC8D12B68002BD2
:1059F000C5D01D2B01D0162B01D12F60B2E7A38992
:105A000043F04003A381AEE70F69002FAAD09307AC
:105A100018BF00230E6808BF4B69F61B0F608B6030
:105A2000002E9FDD33463A462846216AD4F828C026
:105A3000E047002806DCA3894FF0FF3043F0400325
:105A4000A38190E70744361AEAE700BFFEFFBFDFF5
:105A500038B50B6905460C4613B90025284638BDF4
:105A600018B1036A0BB9FDF781FEB4F90C30002BB5
:105A7000F3D0626ED00704D4990502D4A06DFDF76F
:105A8000FDFF28462146FFF761FF636E0546DA07F2
:105A9000E4D4A3899B05E1D4A06DFDF7F0FFDDE719
:105AA00070B50B7804465E2B0BBF4B784A1C8A1CE2
:105AB000002108BF0121013804F1FF0500F8011F92
:105AC000A842FBD10BB9501E70BD81F001011046F8
:105AD000E154024612F8015B2D2D05D05D2D16D044
