:020000040800F2
:10000000002800208D1700088D15000893150008A2
:10001000991500089F150008A515000800000000AC
:10002000000000000000000000000000AB15000808
:10003000B715000800000000C3150008CF15000820
:10004000D5170008D5170008D5170008D5170008E0
:10005000D5170008D5170008D5170008D5170008D0
:10006000D5170008D5170008D5170008D5170008C0
:10007000D5170008D5170008D5170008D5170008B0
:10008000D5170008D5170008D5170008D5170008A0
:10009000D5170008D5170008D5170008DB1500088C
:1000A000D5170008D5170008D5170008D517000880
:1000B000D5170008D517000800000000D517000864
:1000C000D51700080000000000000000D517000848
:1000D00000000000ED150008D51700080000000022
:1000E000D5170008D5170008D51700080000000034
:1000F0000000000000000000000000000000000000
:0C01000000000000000000005FF808F1A3
:1001100010B5054C237833B9044B13B10448AFF341
:1001200000800123237010BDD401002000000000D6
:10013000D478000808B5034B1BB103490348AFF35B
:10014000008008BD00000000D8010020D47800081D
:1001500010F8012B11F8013B012A28BF9A42F7D071
:10016000D01A7047034613F8012B002AFBD1181A46
:100170000138704781F0004102E000BF83F0004386
:1001800030B54FEA41044FEA430594EA050F08BF32
:1001900090EA020F1FBF54EA000C55EA020C7FEAF6
:1001A000645C7FEA655C00F0E2804FEA5454D4EB73
:1001B0005555B8BF6D420CDD2C4480EA020281EA3D
:1001C000030382EA000083EA010180EA020281EA75
:1001D0000303362D88BF30BD11F0004F4FEA0131C7
:1001E0004FF4801C4CEA113102D0404261EB4101D6
:1001F00013F0004F4FEA03334CEA133302D052425C
:1002000063EB430394EA050F00F0A780A4F1010417
:10021000D5F1200E0DDB02FA0EFC22FA05F2801851
:1002200041F1000103FA0EF2801843FA05F3594137
:100230000EE0A5F120050EF1200E012A03FA0EFCB6
:1002400028BF4CF0020C43FA05F3C01851EBE371E0
:1002500001F0004507D54FF0000EDCF1000C7EEBFD
:1002600000006EEB0101B1F5801F1BD3B1F5001F3B
:100270000CD349085FEA30004FEA3C0C04F101045A
:100280004FEA445212F5800F80F09A80BCF1004F83
:1002900008BF5FEA500C50F1000041EB045141EA05
:1002A000050130BD5FEA4C0C404141EB0101013CCE
:1002B00028BFB1F5801FE9D291F0000F04BF0146BD
:1002C0000020B1FA81F308BF2033A3F10B03B3F18F
:1002D00020020CDA0C3208DD02F1140CC2F10C021F
:1002E00001FA0CF021FA02F10CE002F11402D8BF7D
:1002F000C2F1200C01FA02F120FA0CFCDCBF41EA49
:100300000C019040E41AA2BF01EB0451294330BD17
:100310006FEA04041F3C1CDA0C340EDC04F11404F4
:10032000C4F1200220FA04F001FA02F340EA0300CB
:1003300021FA04F345EA030130BDC4F10C04C4F111
:10034000200220FA02F001FA04F340EA03002946F1
:1003500030BD21FA04F0294630BD94F0000F83F43B
:10036000801306BF81F480110134013D4EE77FEA1E
:10037000645C18BF7FEA655C29D094EA050F08BF6A
:1003800090EA020F05D054EA000C04BF194610464B
:1003900030BD91EA030F1EBF0021002030BD5FEA8F
:1003A000545C05D14000494128BF41F0004130BDB7
:1003B00014F580043CBF01F5801130BD01F000450B
:1003C00045F0FE4141F470014FF0000030BD7FEA7E
:1003D000645C1ABF194610467FEA655C1CBF0B4679
:1003E000024650EA013406BF52EA033591EA030F90
:1003F00041F4002130BD00BF90F0000F04BF002188
:10040000704730B54FF4806404F132044FF00005BA
:100410004FF0000150E700BF90F0000F04BF002133
:10042000704730B54FF4806404F1320410F0004599
:1004300048BF40424FF000013EE700BF42004FEA94
:10044000E2014FEA31014FEA02701FBF12F07F4311
:1004500093F07F4F81F06051704732F07F4208BFC8
:10046000704793F07F4F04BF41F40021704730B5CF
:100470004FF4607401F0004521F000411CE700BF1B
:1004800050EA010208BF704730B54FF000050AE09E
:1004900050EA010208BF704730B511F0004502D59F
:1004A000404261EB41014FF4806404F132045FEAA1
:1004B000915C3FF4D8AE4FF003025FEADC0C18BF4A
:1004C00003325FEADC0C18BF033202EBDC02C2F13C
:1004D000200300FA03FC20FA02F001FA03FE40EACE
:1004E0000E0021FA02F11444BDE600BF70B54FF0D2
:1004F000FF0C4CF4E06C1CEA11541DBF1CEA1355B0
:1005000094EA0C0F95EA0C0F00F0DEF82C4481EA17
:10051000030621EA4C5123EA4C5350EA013518BF37
:1005200052EA033541F4801143F4801338D0A0FB24
:1005300002CE4FF00005E1FB02E506F00042E0FBD1
:1005400003E54FF00006E1FB03569CF0000F18BFD7
:100550004EF0010EA4F1FF04B6F5007F64F540747F
:1005600004D25FEA4E0E6D4146EB060642EAC62112
:1005700041EA55514FEAC52040EA5E504FEACE2E7F
:10058000B4F1FD0C88BFBCF5E06F1ED8BEF1004F82
:1005900008BF5FEA500E50F1000041EB045170BDFE
:1005A00006F0004646EA010140EA020081EA030142
:1005B000B4EB5C04C2BFD4EB0C0541EA045170BD3E
:1005C00041F480114FF0000E013C00F3AB8014F1B8
:1005D000360FDEBF002001F0004170BDC4F1000401
:1005E000203C35DA0C341BDC04F11404C4F1200582
:1005F00000FA05F320FA04F001FA05F240EA0200DD
:1006000001F0004221F0004110EBD37021FA04F612
:1006100042EB06015EEA430E08BF20EAD37070BDCC
:10062000C4F10C04C4F1200500FA04F320FA05F02B
:1006300001FA04F240EA020001F0004110EBD3702D
:1006400041F100015EEA430E08BF20EAD37070BD9D
:10065000C4F1200500FA05F24EEA020E20FA04F376
:1006600001FA05F243EA020321FA04F001F0004125
:1006700021FA04F220EA020000EBD3705EEA430E96
:1006800008BF20EAD37070BD94F0000F0FD101F0C5
:100690000046400041EB010111F4801F08BF013CFE
:1006A000F7D041EA060195F0000F18BF704703F03C
:1006B0000046520043EB030313F4801F08BF013DC3
:1006C000F7D043EA0603704794EA0C0F0CEA13557F
:1006D00018BF95EA0C0F0CD050EA410618BF52EA39
:1006E0004306D1D181EA030101F000414FF000003F
:1006F00070BD50EA410606BF1046194652EA43064D
:1007000019D094EA0C0F02D150EA013613D195EAC0
:100710000C0F05D152EA03361CBF104619460AD108
:1007200081EA030101F0004141F0FE4141F4700112
:100730004FF0000070BD41F0FE4141F4780170BD02
:1007400070B54FF0FF0C4CF4E06C1CEA11541DBF67
:100750001CEA135594EA0C0F95EA0C0F00F0A7F869
:10076000A4EB050481EA030E52EA03354FEA013196
:1007700000F088804FEA03334FF0805545EA1313A9
:1007800043EA12634FEA022245EA111545EA106571
:100790004FEA00260EF000419D4208BF964244F108
:1007A000FD0404F5407402D25B084FEA3202B61A27
:1007B00065EB03055B084FEA32024FF480104FF4FB
:1007C000002CB6EB020E75EB030E22BFB61A75466F
:1007D00040EA0C005B084FEA3202B6EB020E75EB02
:1007E000030E22BFB61A754640EA5C005B084FEA6A
:1007F0003202B6EB020E75EB030E22BFB61A754637
:1008000040EA9C005B084FEA3202B6EB020E75EB41
:10081000030E22BFB61A754640EADC0055EA060E02
:1008200018D04FEA051545EA16754FEA06164FEA45
:10083000C30343EA52734FEAC2025FEA1C1CC0D1F1
:1008400011F4801F0BD141EA00014FF000004FF07E
:10085000004CB6E711F4801F04BF01430020B4F13F
:10086000FD0C88BFBCF5E06F3FF6AFAEB5EB030CF7
:1008700004BFB6EB020C5FEA500C50F1000041EBF4
:10088000045170BD0EF0004E4EEA113114EB5C04C1
:10089000C2BFD4EB0C0541EA045170BD41F4801194
:1008A0004FF0000E013C90E645EA060E8DE60CEA9C
:1008B000135594EA0C0F08BF95EA0C0F3FF43BAFB9
:1008C00094EA0C0F0AD150EA01347FF434AF95EA70
:1008D0000C0F7FF425AF104619462CE795EA0C0F54
:1008E00006D152EA03353FF4FDAE1046194622E721
:1008F00050EA410618BF52EA43067FF4C5AE50EAFB
:1009000041047FF40DAF52EA43057FF4EBAE12E7EA
:100910004FF0FF3C06E000BF4FF0010C02E000BFCB
:100920004FF0010C4DF804CD4FEA410C7FEA6C5CAE
:100930004FEA430C18BF7FEA6C5C1BD001B050EA51
:10094000410C0CBF52EA430C91EA030F02BF90EA3C
:10095000020F0020704710F1000F91EA030F58BFFB
:10096000994208BF90422CBFD8176FEAE37040F05D
:10097000010070474FEA410C7FEA6C5C02D150EAFB
:10098000013C07D14FEA430C7FEA6C5CD6D152EAB6
:10099000033CD3D05DF8040B704700BF844610467B
:1009A00062468C461946634600E000BF01B5FFF77A
:1009B000B7FF002848BF10F1000F01BD4DF808ED4A
:1009C000FFF7F4FF0CBF012000205DF808FB00BF1B
:1009D0004DF808EDFFF7EAFF34BF012000205DF875
:1009E00008FB00BF4DF808EDFFF7E0FF94BF0120C2
:1009F00000205DF808FB00BF4DF808EDFFF7CEFFC3
:100A000094BF012000205DF808FB00BF4DF808ED01
:100A1000FFF7C4FF34BF012000205DF808FB00BFD2
:100A20004FEA410C7FEA6C5C02D150EA013C0AD1EA
:100A30004FEA430C7FEA6C5C02D152EA033C02D1DC
:100A40004FF0000070474FF0010070474FEA41023D
:100A500012F5001215D211D56FF47873B3EB625210
:100A600012D94FEAC12343F0004343EA505311F037
:100A7000004F23FA02F018BF404270474FF00000C9
:100A8000704750EA013005D111F0004008BF6FF007
:100A9000004070474FF00000704700BF4FEA41022E
:100AA000B2F1E04324BFB3F5001CDCF1FE5C0DD9CC
:100AB00001F0004C4FEAC0024CEA5070B2F1004F16
:100AC00040EB830008BF20F00100704711F0804F19
:100AD00021D113F13872BCBF01F00040704741F4DE
:100AE00080114FEA5252C2F11802C2F1200C10FAE2
:100AF0000CF320FA02F018BF40F001004FEAC123C6
:100B00004FEAD32303FA0CFC40EA0C0023FA02F369
:100B10004FEA4303CCE77FEA625307D150EA01333F
:100B20001EBF4FF0FE4040F44000704701F000400F
:100B300040F0FE4040F40000704700BF80B48BB02E
:100B400000AFF860B9607A603B60FB680433FB601B
:100B500007F1140300221A605A609A6000237B6236
:100B600033E000233B620DE03A6A13469B001344D6
:100B70005B001A46FB681B78303B13443B62FB6802
:100B80000133FB60FB681B78002B03D0FB681B78EC
:100B90005F2BE9D17B6A9B0028333B443A6A43F8D8
:100BA000142CFB681B785F2B03D1FB680133FB60BF
:100BB00008E07B6A012B03DDFB681B78002B01D06A
:100BC00000230FE07B6A01337B627B6A022BC8DD66
:100BD0007A69BB681A60BA697B681A60FA693B680F
:100BE0001A60012318462C37BD4680BC70470000B0
:100BF00080B586B000AF4FF400510C4801F0B6FD4F
:100C00000346381D0A4A142104F086FD3B1D184690
:100C1000FFF7A8FA03469AB2391D6423054803F08A
:100C200091F900BF1837BD4680BD00BF00100140DC
:100C3000F07800089802002080B586B004AF00F07C
:100C4000CBFD00F0AFF800F03BFA00F00FFA00F037
:100C500005F900F041F900F07DF9474800F0F6FE93
:100C6000464800F0F3FE01224549464803F0EDF9FD
:100C70000421454802F0FEFB0821434802F0FAFB3C
:100C80000C21414802F0F6FB404B1B681A461B0240
:100C9000D31A03F57F43FF334FF0804293633C4BFD
:100CA0001B681A461B02D31A03F57F43FF334FF02C
:100CB0008042D363374B1B681A461B02D31A03F5D5
:100CC0007F43FF334FF08042136464212A4800F0D1
:100CD0006BFF6421294800F067FF274801F06AF89C
:100CE0000346FB71254801F065F80346BB71FB79AB
:100CF0001846FFF791FB1CA3D3E90023FFF7F6FB8F
:100D000002460B461AA1D1E90001FFF737FA024665
:100D10000B46104619464FF000021F4BFFF710FD1F
:100D200002460B4610461946FFF7B8FE03463B60E5
:100D30003868FFF783FB02460B46B9790291CDE98B
:100D40000023164A3221164804F0E6FC1448FFF747
:100D500009FA03469AB2642311490A4803F0F2F8EB
:100D6000B3E700BFAFF30080AD4F39268BFBC73F21
:100D7000B0726891ED587640F0010020200200200A
:100D80001203002098020020500200201C030020C3
:100D900020030020240300200000244000790008E4
:100DA000E002002080B594B000AF07F128032822AC
:100DB0000021184604F047FD07F1140300221A60D1
:100DC0005A609A60DA601A613B1D00221A605A600C
:100DD0009A60DA600123BB624FF48033FB62002328
:100DE0003B630123BB6302237B644FF48033BB640A
:100DF0004FF4E013FB6407F12803184601F016FDD9
:100E00000346002B01D000F099FA0F237B610223E7
:100E1000BB610023FB614FF480633B6200237B6274
:100E200007F114030221184601F082FF0346002B4C
:100E300001D000F083FA02237B604FF40043FB6093
:100E40003B1D184602F002F90346002B01D000F0CA
:100E500075FA00BF5037BD4680BD000080B584B034
:100E600000AF3B1D00221A605A609A60184B194A65
:100E70001A60174B00229A60154B00221A73144B0C
:100E800000221A75124B4FF46022DA61104B0022D7
:100E90005A600F4B01221A610D4800F0FFFC034617
:100EA000002B01D000F04AFA10237B600123BB60C5
:100EB0000023FB603B1D1946054800F087FF0346F1
:100EC000002B01D000F03AFA00BF1037BD4680BDBC
:100ED000F00100200024014080B584B000AF3B1D2C
:100EE00000221A605A609A60184B194A1A60174B10
:100EF00000229A60154B01221A73144B00221A75B6
:100F0000124B4FF46022DA61104B00225A600F4BF3
:100F100001221A610D4800F0C1FC0346002B01D0EC
:100F200000F00CFA07237B600123BB600623FB6003
:100F30003B1D1946054800F049FF0346002B01D030
:100F400000F0FCF900BF1037BD4680BD2002002034
:100F50000028014080B58EB000AF07F128030022C1
:100F60001A605A609A60DA6007F1200300221A6062
:100F70005A603B1D00221A605A609A60DA601A615A
:100F80005A619A61384B4FF080421A60364B00220A
:100F90005A60354B00229A60334B4FF6FF72DA608D
:100FA000314B00221A61304B80229A612E4802F0A8
:100FB000B9F90346002B01D000F0C0F94FF480537B
:100FC000BB6207F128031946274802F0B1FB03462C
:100FD000002B01D000F0B2F9234802F0F2F90346E9
:100FE000002B01D000F0AAF900233B6200237B62B2
:100FF00007F1200319461C4802F0FCFE0346002BB3
:1010000001D000F09BF960237B600023BB600023CC
:10101000FB6000237B613B1D04221946124802F04D
:10102000C5FA0346002B01D000F088F93B1D0822C9
:1010300019460D4802F0BAFA0346002B01D000F021
:101040007DF93B1D0C221946074802F0AFFA034612
:10105000002B01D000F072F9034800F013FA00BF32
:101060003837BD4680BD00BF5002002080B500AFBC
:10107000114B124A1A60104B4FF4E1325A600E4B7A
:1010800000229A600C4B0022DA600B4B00221A619E
:10109000094B0C225A61084B00229A61064B002230
:1010A000DA61054802F0FEFE0346002B01D000F095
:1010B00045F900BF80BD00BF980200200038014004
:1010C00080B588B000AF07F1100300221A605A60A3
:1010D0009A60DA602E4B9B692D4A43F010039361AE
:1010E0002B4B9B6903F01003FB60FB68284B9B694B
:1010F000274A43F020039361254B9B6903F02003AB
:10110000BB60BB68224B9B69214A43F00403936197
:101110001F4B9B6903F004037B607B681C4B9B693E
:101120001B4A43F008039361194B9B6903F00803C2
:101130003B603B6800224FF40051164801F02DFB44
:101140004FF400533B6101237B610023BB61022309
:10115000FB6107F1100319460E4801F08BF94FF4BB
:1011600080733B610C4B7B610023BB6107F1100373
:1011700019460A4801F07EF900220021172001F0EB
:1011800090F8172001F0A9F800BF2037BD4680BDB8
:10119000001002400010014000002110000C01402E
:1011A00080B582B000AF0346FB8000F06DFB0346C4
:1011B0000D4A1360FB88B3F5807F11D10A4B1A6882
:1011C0000A4B1B68D31AC82B0AD94FF400510848A0
:1011D00001F0FBFAFFF70CFD034B1B68034A136099
:1011E00000BF0837BD4680BD18030020140300204F
:1011F0000010014080B584B000AF7860444B1B788C
:101200000D2B6ED1434B93F90020D3B20133DBB2E7
:1012100059B2404B1970404B002199543E48FEF79B
:10122000A1FF03460333FB60F86803F0B3FC0346F9
:10123000BB60394A3949B86804F0A2FAB868FEF7C9
:1012400091FF03469AB26423B968354802F07AFEEA
:1012500004223449304804F0FEFA0346002B26D11C
:10126000314B324A32492C48FFF768FC304B1B683F
:101270001A461B02D31A03F57F43FF334FF0804217
:1012800093632A4B1B681A461B02D31A03F57F434C
:10129000FF334FF08042D363234B1B681A461B0277
:1012A000D31A03F57F43FF334FF080421364214983
:1012B0001948FEF74DFF0346002B06D14FF40051AD
:1012C0001D4801F082FAFFF793FC124B00221A70BE
:1012D000104B93F900301A4600210F4804F0B3FA7E
:1012E0000CE00C4B93F90020D3B20133DBB259B2BE
:1012F000084B1970064B1978074B99540122044981
:10130000074802F0A2FE00BF1037BD4680BD00BFF7
:101310001203002028030020E002002020790008AA
:1013200098020020287900082403002020030020D0
:101330001C030020307900080010014080B400AF89
:1013400000BFBD4680BC704780B485B000AF154B70
:101350009B69144A43F001039361124B9B6903F0AC
:101360000103BB60BB680F4BDB690E4A43F080533F
:10137000D3610C4BDB6903F080537B607B680A4BC5
:101380005B68FB60FB6823F0E063FB60FB6843F095
:101390000073FB60044AFB68536000BF1437BD460E
:1013A00080BC7047001002400000014080B58AB048
:1013B00000AF786007F1180300221A605A609A6043
:1013C000DA607B681B681D4A93420CD11C4B9B69F9
:1013D0001B4A43F400739361194B9B6903F4007338
:1013E0007B617B6926E07B681B68164A934221D1AA
:1013F000134B9B69124A43F480639361104B9B69C2
:1014000003F480633B613B690D4B9B690C4A43F0DD
:10141000040393610A4B9B6903F00403FB60FB68C0
:101420008023BB610323FB6107F1180319460648BB
:1014300001F020F800BF2837BD4680BD00240140E0
:1014400000100240002801400008014080B485B02F
:1014500000AF78607B681B68B3F1804F0BD1084BFD
:10146000DB69074A43F00103D361054BDB6903F0F5
:101470000103FB60FB6800BF1437BD4680BC7047AA
:101480000010024080B588B000AF786007F110030B
:1014900000221A605A609A60DA607B681B68B3F1B8
:1014A000804F17D10D4B9B690C4A43F004039361A5
:1014B0000A4B9B6903F00403FB60FB680E233B614E
:1014C00002237B610223FB6107F1100319460448E4
:1014D00000F0D0FF00BF2037BD4680BD00100240A5
:1014E0000008014080B588B000AF786007F11003B4
:1014F00000221A605A609A60DA607B681B68204A92
:10150000934239D11F4B9B691E4A43F48043936138
:101510001C4B9B6903F48043FB60FB68194B9B6980
:10152000184A43F004039361164B9B6903F00403CC
:10153000BB60BB684FF400733B6102237B610323F4
:10154000FB6107F1100319460F4800F093FF4FF4B9
:1015500080633B6100237B610023BB6107F11003C3
:101560001946094800F086FF00220021252000F0DE
:1015700098FE252000F0B1FE00BF2037BD4680BD9B
:1015800000380140001002400008014080B400AF64
:10159000FEE780B400AFFEE780B400AFFEE780B4A2
:1015A00000AFFEE780B400AFFEE780B400AF00BF3D
:1015B000BD4680BC704780B400AF00BFBD4680BC54
:1015C000704780B400AF00BFBD4680BC704780B597
:1015D00000AF00F047F900BF80BD80B500AF4FF409
:1015E000807001F00BF900BF80BD000080B500AF36
:1015F000024802F04FFD00BF80BD00BF98020020EE
:1016000080B400AF01231846BD4680BC704780B54A
:1016100082B000AF7860396004F08AF90346162280
:101620001A604FF0FF3318460837BD4680BD80B5BD
:1016300082B000AF78604FF0FF317868FFF7E7FFC6
:10164000FEE780B586B000AFF860B9607A6000232D
:101650007B610AE0AFF300800146BB685A1CBA60A8
:10166000CAB21A707B6901337B617A697B689A42DE
:10167000F0DB7B6818461837BD4680BD80B586B064
:1016800000AFF860B9607A6000237B6109E0BB6855
:101690005A1CBA601B781846AFF300807B6901338F
:1016A0007B617A697B689A42F1DB7B681846183760
:1016B000BD4680BD80B483B000AF78604FF0FF338B
:1016C00018460C37BD4680BC704780B483B000AF6D
:1016D000786039603B684FF400525A600023184626
:1016E0000C37BD4680BC704780B483B000AF7860D3
:1016F000012318460C37BD4680BC704780B485B0C6
:1017000000AFF860B9607A60002318461437BD4610
:1017100080BC704780B586B000AF7860144A154B26
:10172000D31A7B617B693B61134B1B68002B02D191
:10173000114B124A1A60104B1A687B6813443A69BD
:101740009A4207D204F0F4F803460C221A604FF0D4
:10175000FF3309E0084B1B68FB60074B1A687B6886
:101760001344054A1360FB6818461837BD4680BD10
:1017700000280020000400002C030020800400202A
:1017800080B400AF00BFBD4680BC7047FFF7F8FFD4
:101790000B480C490C4A002302E0D458C4500433CF
:1017A000C4188C42F9D3094A094C002301E01360A4
:1017B0000432A242FBD304F0C1F8FFF73DFA7047B0
:1017C00000000020D4010020F47C0008D401002097
:1017D00080040020FEE7000080B500AF084B1B68C6
:1017E000074A43F010031360032000F04FFD0F2061
:1017F00000F008F8FFF7A8FD0023184680BD00BFE1
:101800000020024080B582B000AF7860124B1A68A9
:10181000124B1B7819464FF47A73B3FBF1F3B2FB0A
:10182000F3F3184600F067FD0346002B01D00123B7
:101830000EE07B680F2B0AD8002279684FF0FF304A
:1018400000F02FFD064A7B681360002300E00123AF
:1018500018460837BD4680BD000000200800002063
:101860000400002080B400AF054B1B781A46054BDE
:101870001B681344034A136000BFBD4680BC704719
:10188000080000203003002080B400AF024B1B682A
:101890001846BD4680BC70473003002080B586B036
:1018A00000AF78600023FB7500233B610023BB6021
:1018B0000023FB607B68002B01D10123BEE07B6825
:1018C0009B68002B7B689B6A002B09D17B680022F8
:1018D000DA627B68002283F824207868FFF766FDCF
:1018E000786800F0C5FB0346FB757B689B6A03F0D4
:1018F0001003002B40F09980FB7D002B40F0958079
:101900007B689B6A23F4885323F0020343F00202AE
:101910007B689A627B685A687B68DB691A437B68DC
:101920001B7B5B001343BA681343BB607B689B68F7
:10193000B3F5807F03D07B689B68012B02D14FF405
:10194000807300E000233A6913433B617B681B7D91
:10195000012B19D17B681B7B002B09D17B689B690C
:10196000013B5A033B69134343F400633B610BE0C3
:101970007B689B6A43F020027B689A627B68DB6A23
:1019800043F001027B68DA627B681B685B6823F4C2
:1019900069417B681B683A690A435A607B681B6827
:1019A0009A68284B13407A681268B9680B439360B1
:1019B0007B689B68B3F5807F03D07B689B68012BB5
:1019C00004D17B681B69013B1B05FB607B681B68BE
:1019D000DB6A23F470017B681B68FA680A43DA62E9
:1019E0007B681B689A68184B1340BA689A420BD1FF
:1019F0007B680022DA627B689B6A23F0030343F072
:101A000001027B689A6218E07B689B6A23F01203EC
:101A100043F010027B689A627B68DB6A43F0010244
:101A20007B68DA620123FB7507E07B689B6A43F001
:101A300010027B689A620123FB75FB7D18461837FC
:101A4000BD4680BDFDF7E1FFFE0E1FFF80B584B0EF
:101A500000AF78600023FB737B6893F82430012B80
:101A600001D1022398E07B68012283F82420786862
:101A700000F0A4FA0346FB73FB7B002B40F0878049
:101A80007B689B6A23F4407323F0010343F4807264
:101A90007B689A627B681B68414A934205D1414B3F
:101AA0005B6803F47023002B15D17B689B6A23F4D9
:101AB00080127B689A627B681B685B6803F48063B2
:101AC000002B26D07B689B6A23F4405343F480525A
:101AD0007B689A621DE07B689B6A43F480127B6896
:101AE0009A627B681B682F4A934204D07B681B680C
:101AF0002B4A93420DD12B4B5B6803F48063002B80
:101B000007D07B689B6A23F4405343F480527B6880
:101B10009A627B689B6A03F48053002B06D07B6833
:101B2000DB6A23F006027B68DA6202E07B6800224F
:101B3000DA627B68002283F824207B681B686FF0E0
:101B400002021A607B681B689B6803F46023B3F58C
:101B5000602F13D17B681B68114A934205D1114B4A
:101B60005B6803F47023002B08D17B681B689A68BC
:101B70007B681B6842F4A0029A600CE07B681B68DB
:101B80009A687B681B6842F480129A6003E07B6865
:101B9000002283F82420FB7B18461037BD4680BD09
:101BA000002801400024014090B587B000AF786064
:101BB000396000237B610023FB6000233B61FFF75A
:101BC00063FE78617B681B689B6803F48073002B5D
:101BD0000BD07B689B6A43F020027B689A627B682B
:101BE000002283F824200123D3E07B681B685B6814
:101BF00003F48073002B31D17B681B68DB6A03F42C
:101C00007003002B2AD121E03B68B3F1FF3F1DD0C8
:101C10003B68002B07D0FFF737FE02467B69D31ADB
:101C20003A689A4212D27B681B681B6803F0020371
:101C3000002B0BD17B689B6A43F004027B689A629D
:101C40007B68002283F824200323A2E07B681B68C2
:101C50001B6803F00203002BD6D070E04F4B1C68CA
:101C6000022001F0A9FA0346B4FBF3F27B681B687B
:101C700019694B4B0B40002B18D17B681B68D96846
:101C8000484B0B40002B11D17B681B681969464BF0
:101C90000B40002B08D17B681B68D968434B0B4075
:101CA000002B01D1142320E029231EE07B681B6850
:101CB00019693D4B0B40002B06D17B681B68D96826
:101CC0003A4B0B40002B0DD07B681B681969384BD1
:101CD0000B40002B08D17B681B68D968344B0B4044
:101CE000002B01D1542300E0FC2302FB03F33B61F2
:101CF00021E03B68B3F1FF3F1AD03B68002B07D0CF
:101D0000FFF7C2FD02467B69D31A3A689A420FD2A6
:101D1000FB683A699A420BD97B689B6A43F00402DC
:101D20007B689A627B68002283F82420032330E0DA
:101D3000FB680133FB60FB683A699A42D9D87B683B
:101D40001B686FF012021A607B689B6A43F4007292
:101D50007B689A627B681B689B6803F46023B3F519
:101D6000602F15D17B681B7B002B11D17B689B6A90
:101D700023F480727B689A627B689B6A03F48053C9
:101D8000002B05D17B689B6A43F001027B689A6255
:101D9000002318461C37BD4690BD00BF0000002040
:101DA0002449922424499200922449129224490001
:101DB0004992240080B483B000AF78607B681B68D0
:101DC000DB6C18460C37BD4680BC704780B485B0CC
:101DD00000AF786039600023FB730023BB607B6831
:101DE00093F82430012B01D10223DCE07B6801222F
:101DF00083F824203B685B68062B1CD87B681B6833
:101E0000596B3B685A6813469B001344053B1F22DD
:101E100002FA03F3DB4319403B6818683B685A68D1
:101E200013469B001344053B00FA03F27B681B68D2
:101E30000A435A633CE03B685B680C2B1CD87B6808
:101E40001B68196B3B685A6813469B001344233B7D
:101E50001F2202FA03F3DB4319403B6818683B6812
:101E60005A6813469B001344233B00FA03F27B6835
:101E70001B680A431A631BE07B681B68D96A3B68CE
:101E80005A6813469B001344413B1F2202FA03F396
:101E9000DB4319403B6818683B685A6813469B004F
:101EA0001344413B00FA03F27B681B680A43DA6281
:101EB0003B681B68092B1CD97B681B68D9683B6889
:101EC0001A6813465B0013441E3B072202FA03F311
:101ED000DB4319403B6898683B681A6813465B000F
:101EE00013441E3B00FA03F27B681B680A43DA6066
:101EF00019E07B681B6819693B681A6813465B0028
:101F00001344072202FA03F3DB4319403B68986845
:101F10003B681A6813465B00134400FA03F27B68BF
:101F20001B680A431A613B681B68102B03D03B688F
:101F30001B68112B32D17B681B681D4A934225D147
:101F40007B681B689B6803F40003002B26D17B6829
:101F50001B689A687B681B6842F400029A603B68C1
:101F60001B68102B1AD1134B1B68134AA2FB0323C7
:101F70009A0C13469B0013445B00BB6002E0BB68F5
:101F8000013BBB60BB68002BF9D107E07B689B6A13
:101F900043F020027B689A620123FB737B68002276
:101FA00083F82420FB7B18461437BD4680BC70475D
:101FB000002401400000002083DE1B4380B584B074
:101FC00000AF78600023FB600023BB607B681B6868
:101FD0009B6803F00103012B40D07B681B689A6863
:101FE0007B681B6842F001029A601F4B1B681F4A06
:101FF000A2FB03239B0CBB6002E0BB68013BBB6000
:10200000BB68002BF9D1FFF73FFCF8601FE0FFF73A
:102010003BFC0246FB68D31A022B18D97B681B686D
:102020009B6803F00103012B11D07B689B6A43F08E
:1020300010027B689A627B68DB6A43F001027B686E
:10204000DA627B68002283F82420012307E07B68A2
:102050001B689B6803F00103012BD8D100231846AD
:102060001037BD4680BD00BF0000002083DE1B434B
:1020700080B584B000AF78600023FB607B681B688C
:102080009B6803F00103012B2ED17B681B689A68C3
:102090007B681B6822F001029A60FFF7F5FBF8608D
:1020A0001BE0FFF7F1FB0246FB68D31A022B14D9A1
:1020B0007B681B689B6803F00103012B0DD17B68D3
:1020C0009B6A43F010027B689A627B68DB6A43F08C
:1020D00001027B68DA62012307E07B681B689B686A
:1020E00003F00103012BDCD0002318461037BD4656
:1020F00080BD000080B485B000AF78607B6803F0DD
:102100000703FB600C4BDB68BB60BA684FF6FF034C
:102110001340BB60FB681A02BB68134343F0BF6304
:1021200043F40033BB60044ABB68D36000BF14377C
:10213000BD4680BC704700BF00ED00E080B400AF3A
:10214000044BDB681B0A03F007031846BD4680BC3E
:10215000704700BF00ED00E080B483B000AF0346DD
:10216000FB7197F90730002B0BDBFB7903F01F02A3
:10217000064997F907305B09012000FA02F241F89D
:10218000232000BF0C37BD4680BC704700E100E053
:1021900080B483B000AF03463960FB7197F9073014
:1021A000002B0ADB3B68DAB20C4997F907301201C1
:1021B000D2B20B4483F800230AE03B68DAB2084944
:1021C000FB7903F00F03043B1201D2B20B441A76E1
:1021D00000BF0C37BD4680BC704700BF00E100E087
:1021E00000ED00E080B489B000AFF860B9607A60BB
:1021F000FB6803F00703FB61FB69C3F10703042BD2
:1022000028BF0423BB61FB690433062B02D9FB6999
:10221000033B00E000237B614FF0FF32BB6902FA11
:1022200003F3DA43BB681A407B699A404FF0FF31F1
:102230007B6901FA03F3D9437B680B4013431846CB
:102240002437BD4680BC704780B582B000AF78604F
:102250007B68013BB3F1807F01D301230FE00A4A81
:102260007B68013B53600F214FF0FF30FFF790FF79
:10227000054B00229A60044B07221A60002318467F
:102280000837BD4680BD00BF10E000E080B582B0D9
:1022900000AF78607868FFF72DFF00BF0837BD46B4
:1022A00080BD80B586B000AF0346B9607A60FB732D
:1022B00000237B61FFF742FF78617A68B96878692B
:1022C000FFF790FF024697F90F3011461846FFF7C7
:1022D0005FFF00BF1837BD4680BD80B582B000AF3C
:1022E0000346FB7197F907301846FFF735FF00BF2B
:1022F0000837BD4680BD80B582B000AF7860786891
:10230000FFF7A2FF034618460837BD4680BD80B4DC
:1023100085B000AF78600023FB737B6893F82130B1
:10232000DBB2022B08D07B6804229A637B68002210
:1023300083F82020012320E07B681B681A687B68F3
:102340001B6822F00E021A607B681B681A687B68A3
:102350001B6822F001021A607B681A6C7B68DB6BD9
:10236000012101FA02F25A607B68012283F82120E0
:102370007B68002283F82020FB7B18461437BD467B
:1023800080BC704780B584B000AF78600023FB73D9
:102390007B6893F82130DBB2022B05D07B680422E6
:1023A0009A630123FB7351E07B681B681A687B68A2
:1023B0001B6822F00E021A607B681B681A687B6833
:1023C0001B6822F001021A607B681B68224A934254
:1023D00029D07B681B68214A934222D07B681B6806
:1023E0001F4A93421AD07B681B681E4A934212D040
:1023F0007B681B681C4A93420AD07B681B681B4A97
:10240000934202D14FF480130EE04FF080730BE043
:102410004FF4803308E04FF4805305E04FF48073AD
:1024200002E0102300E00123114A53607B6801227F
:1024300083F821207B68002283F820207B685B6B77
:10244000002B03D07B685B6B78689847FB7B184652
:102450001037BD4680BD00BF080002401C0002408E
:102460003000024044000240580002406C0002402C
:102470000000024080B48BB000AF78603960002368
:102480007B6200233B6261E101227B6A02FA03F373
:10249000FB613B681B68FA691340BB61BA69FB6961
:1024A0009A4240F050813B685B68974A93425ED005
:1024B000954A934275D8954A934258D0934A93428D
:1024C0006FD8934A934252D0914A934269D8914A25
:1024D00093424CD08F4A934263D88F4A934246D05E
:1024E0008D4A93425DD8122B2AD8122B59D801A2BB
:1024F00052F823F06F250008492500085B250008E5
:102500009D250008A3250008A3250008A325000891
:10251000A3250008A3250008A3250008A32500087B
:10252000A3250008A3250008A3250008A32500086B
:10253000A3250008A32500085125000865250008EB
:10254000764A934213D02CE03B68DB683B6229E07B
:102550003B68DB6804333B6224E03B68DB6808339C
:102560003B621FE03B68DB680C333B621AE03B6870
:102570009B68002B02D104233B6213E03B689B68FD
:10258000012B05D108233B627B68FA691A6109E0D7
:1025900008233B627B68FA695A6103E000233B62CF
:1025A00000E000BFBB69FF2B01D87B6801E07B68BE
:1025B00004337B61BB69FF2B02D87B6A9B0002E07E
:1025C0007B6A083B9B003B617B691A680F213B6972
:1025D00001FA03F3DB431A40396A3B6901FA03F35A
:1025E0001A437B691A603B685B6803F08053002BD9
:1025F00000F0A9804A4B9B69494A43F0010393616B
:10260000474B9B6903F00103BB60BB68454A7B6A8B
:102610009B08023352F82330FB607B6A03F003030C
:102620009B000F2202FA03F3DB43FA681340FB60BE
:102630007B683D4A93420DD07B683C4A934207D069
:102640007B683B4A934201D1022304E0032302E06A
:10265000012300E000237A6A02F003029200934013
:10266000FA681343FB602F497B6A9B080233FA68C0
:1026700041F823203B685B6803F48013002B06D0ED
:102680002C4B9A682B49BB6913438B6006E0294B9E
:102690009A68BB69DB43274913408B603B685B68E2
:1026A00003F40013002B06D0224BDA682149BB69E2
:1026B0001343CB6006E01F4BDA68BB69DB431D495F
:1026C0001340CB603B685B6803F40033002B06D0FB
:1026D000184B5A681749BB6913434B6006E0154B0A
:1026E0005A68BB69DB43134913404B603B685B6826
:1026F00003F48033002B1FD00E4B1A680D49BB69C1
:1027000013430B601FE000BF0000321000003110C7
:102710000000221000002110000012100000111013
:10272000001002400000014000080140000C014080
:1027300000100140000401400B4B1A68BB69DB43E9
:10274000094913400B607B6A01337B623B681A685E
:102750007B6A22FA03F3002B7FF496AE00BF00BF22
:102760002C37BD4680BC70470004014080B485B062
:1027700000AF78600B467B807B689A687B8813404B
:10278000002B02D00123FB7301E00023FB73FB7BD2
:1027900018461437BD4680BC704780B483B000AF84
:1027A00078600B467B8013467B707B78002B03D0D0
:1027B0007A887B681A6103E07B881A047B681A6157
:1027C00000BF0C37BD4680BC704780B485B000AFF9
:1027D00078600B467B807B68DB68FB607A88FB68EF
:1027E00013401A04FB68D9437B880B401A437B686B
:1027F0001A6100BF1437BD4680BC704780B582B0F7
:1028000000AF0346FB80084B5A69FB881340002B3E
:1028100006D0054AFB885361FB881846FEF7C0FCCA
:1028200000BF0837BD4680BD0004014080B586B0BA
:1028300000AF78607B68002B01D1012372E27B68D6
:102840001B6803F00103002B00F08780924B5B684C
:1028500003F00C03042B0CD08F4B5B6803F00C03CC
:10286000082B12D18C4B5B6803F48033B3F5803FA7
:102870000BD1894B1B6803F40033002B6CD07B68B1
:102880005B68002B68D101234CE27B685B68B3F581
:10289000803F06D1804B1B687F4A43F4803313602E
:1028A0002EE07B685B68002B0CD17B4B1B687A4A5F
:1028B00023F480331360784B1B68774A23F480231A
:1028C00013601DE07B685B68B3F5A02F0CD1724BE1
:1028D0001B68714A43F4802313606F4B1B686E4A78
:1028E00043F4803313600BE06B4B1B686A4A23F49C
:1028F00080331360684B1B68674A23F4802313609E
:102900007B685B68002B13D0FEF7BEFF386108E0E0
:10291000FEF7BAFF02463B69D31A642B01D90323A1
:1029200000E25D4B1B6803F40033002BF0D014E091
:10293000FEF7AAFF386108E0FEF7A6FF02463B69F2
:10294000D31A642B01D90323ECE1534B1B6803F426
:102950000033002BF0D100E000BF7B681B6803F060
:102960000203002B63D04C4B5B6803F00C03002B7D
:102970000BD0494B5B6803F00C03082B1CD1464B72
:102980005B6803F48033002B16D1434B1B6803F0C4
:102990000203002B05D07B681B69012B01D00123AA
:1029A000C0E13D4B1B6823F0F8027B685B69DB00EC
:1029B000394913430B603AE07B681B69002B20D038
:1029C000364B01221A60FEF75FFF386108E0FEF720
:1029D0005BFF02463B69D31A022B01D90323A1E115
:1029E0002D4B1B6803F00203002BF0D02A4B1B6811
:1029F00023F0F8027B685B69DB00274913430B6017
:102A000015E0264B00221A60FEF73EFF386108E011
:102A1000FEF73AFF02463B69D31A022B01D9032382
:102A200080E11D4B1B6803F00203002BF0D17B6893
:102A30001B6803F00803002B3AD07B689B69002BCE
:102A400019D0174B01221A60FEF71EFF386108E00B
:102A5000FEF71AFF02463B69D31A022B01D9032362
:102A600060E10D4B5B6A03F00203002BF0D0012004
:102A700000F0CEFA1CE00A4B00221A60FEF704FFB9
:102A800038610FE0FEF700FF02463B69D31A022BC4
:102A900008D9032346E100BF001002400000424273
:102AA00080044242924B5B6A03F00203002BE9D19F
:102AB0007B681B6803F00403002B00F0A680002352
:102AC000FB758B4BDB6903F08053002B0DD1884BDA
:102AD000DB69874A43F08053D361854BDB6903F0A0
:102AE0008053BB60BB680123FB75824B1B6803F4FA
:102AF0008073002B18D17F4B1B687E4A43F4807390
:102B00001360FEF7C1FE386108E0FEF7BDFE024625
:102B10003B69D31A642B01D9032303E1754B1B686E
:102B200003F48073002BF0D07B68DB68012B06D1A7
:102B30006F4B1B6A6E4A43F0010313622DE07B6802
:102B4000DB68002B0CD16A4B1B6A694A23F0010336
:102B50001362674B1B6A664A23F0040313621CE08E
:102B60007B68DB68052B0CD1614B1B6A604A43F024
:102B7000040313625E4B1B6A5D4A43F00103136258
:102B80000BE05B4B1B6A5A4A23F001031362584B5C
:102B90001B6A574A23F0040313627B68DB68002B2F
:102BA00015D0FEF771FE38610AE0FEF76DFE0246B1
:102BB0003B69D31A41F28832934201D90323B1E031
:102BC0004B4B1B6A03F00203002BEED014E0FEF720
:102BD0005BFE38610AE0FEF757FE02463B69D31AF6
:102BE00041F28832934201D903239BE0404B1B6A98
:102BF00003F00203002BEED1FB7D012B05D13C4BF2
:102C0000DB693B4A23F08053D3617B68DB69002B8F
:102C100000F08780364B5B6803F00C03082B61D013
:102C20007B68DB69022B46D1334B00221A60FEF72A
:102C30002BFE386108E0FEF727FE02463B69D31AF7
:102C4000022B01D903236DE0294B1B6803F00073AD
:102C5000002BF0D17B681B6AB3F5803F08D1244B71
:102C60005B6823F400327B689B68214913434B6007
:102C70001F4B5B6823F474127B68196A7B685B6A7C
:102C80000B431B4913434B601B4B01221A60FEF799
:102C9000FBFD386108E0FEF7F7FD02463B69D31AF9
:102CA000022B01D903233DE0114B1B6803F0007395
:102CB000002BF0D035E0104B00221A60FEF7E4FD47
:102CC000386108E0FEF7E0FD02463B69D31A022BAB
:102CD00001D9032326E0064B1B6803F00073002B89
:102CE000F0D11EE07B68DB69012B07D1012319E0DD
:102CF0000010024000700040600042420B4B5B68D5
:102D0000FB60FB6803F480327B681B6A9A4206D141
:102D1000FB6803F470127B685B6A9A4201D001235E
:102D200000E0002318461837BD4680BD0010024061
:102D300080B584B000AF786039607B68002B01D12A
:102D40000123D0E06A4B1B6803F007033A689A42FC
:102D500010D9674B1B6823F0070265493B68134392
:102D60000B60634B1B6803F007033A689A4201D07B
:102D70000123B8E07B681B6803F00203002B20D01E
:102D80007B681B6803F00403002B05D0594B5B687C
:102D9000584A43F4E06353607B681B6803F0080300
:102DA000002B05D0534B5B68524A43F46053536089
:102DB000504B5B6823F0F0027B689B684D491343DE
:102DC0004B607B681B6803F00103002B40D07B68DD
:102DD0005B68012B07D1474B1B6803F40033002BC2
:102DE00015D101237FE07B685B68022B07D1414B43
:102DF0001B6803F00073002B09D1012373E03D4BE6
:102E00001B6803F00203002B01D101236BE0394B57
:102E10005B6823F003027B685B68364913434B60B1
:102E2000FEF732FDF8600AE0FEF72EFD0246FB6871
:102E3000D31A41F28832934201D9032353E02D4B38
:102E40005B6803F00C027B685B689B009A42EBD1E5
:102E5000274B1B6803F007033A689A4210D2244BB1
:102E60001B6823F0070222493B6813430B60204B89
:102E70001B6803F007033A689A4201D0012332E04D
:102E80007B681B6803F00403002B08D0194B5B68B8
:102E900023F4E0627B68DB68164913434B607B6870
:102EA0001B6803F00803002B09D0124B5B6823F466
:102EB00060527B681B69DB000E4913434B6000F0D6
:102EC00021F802460B4B5B681B0903F00F030A490C
:102ED000CB5C22FA03F3094A1360094B1B681846BE
:102EE000FEF790FC002318461037BD4680BD00BF9A
:102EF00000200240001002403C7900080000002041
:102F00000400002080B487B000AF0023FB600023E2
:102F1000BB6000237B6100237B6000233B611E4B71
:102F20005B68FB60FB6803F00C03042B02D0082BEA
:102F300003D027E0194B3B6127E0FB689B0C03F0B3
:102F40000F03174AD35C7B60FB6803F48033002BCC
:102F500010D0114B5B685B0C03F00103114AD35C8A
:102F6000BB607B680D4A03FB02F2BB68B2FBF3F364
:102F70007B6104E07B680C4A02FB03F37B617B69A5
:102F80003B6102E0054B3B6100BF3B6918461C37C3
:102F9000BD4680BC704700BF0010024000127A009E
:102FA000547900086479000800093D0080B400AF3E
:102FB000024B1B681846BD4680BC704700000020CD
:102FC00080B500AFFFF7F2FF0246054B5B681B0AB6
:102FD00003F007030349CB5C22FA03F3184680BDD4
:102FE000001002404C79000880B500AFFFF7DEFF0B
:102FF0000246054B5B68DB0A03F007030349CB5C21
:1030000022FA03F3184680BD001002404C790008F4
:1030100080B485B000AF78600A4B1B680A4AA2FBF7
:1030200003235B0A7A6802FB03F3FB6000BFFB68C3
:103030005A1EFA60002BF9D100BF00BF1437BD46FD
:1030400080BC704700000020D34D621080B586B070
:1030500000AF786000233B610023FB607B681B6846
:1030600003F00103002B7DD00023FB754F4BDB6980
:1030700003F08053002B0DD14C4BDB694B4A43F0DE
:103080008053D361494BDB6903F08053BB60BB685D
:103090000123FB75464B1B6803F48073002B18D18A
:1030A000434B1B68424A43F480731360FEF7ECFB0A
:1030B000386108E0FEF7E8FB02463B69D31A642B4F
:1030C00001D903236DE03A4B1B6803F48073002B96
:1030D000F0D0364B1B6A03F44073FB60FB68002B97
:1030E0002ED07B685B6803F44073FA689A4227D05D
:1030F0002E4B1B6A23F44073FB602E4B01221A6097
:103100002C4B00221A60294AFB681362FB6803F00B
:103110000103002B14D0FEF7B7FB38610AE0FEF77D
:10312000B3FB02463B69D31A41F28832934201D97C
:10313000032336E01D4B1B6A03F00203002BEED085
:103140001A4B1B6A23F440727B685B681749134370
:103150000B62FB7D012B05D1144BDB69134A23F075
:103160008053D3617B681B6803F00203002B08D0F7
:103170000E4B5B6823F440427B689B680B4913430A
:103180004B607B681B6803F01003002B08D0074BD3
:103190005B6823F480027B68DB68044913434B605F
:1031A000002318461837BD4680BD00BF00100240FE
:1031B000007000404004424280B588B000AF7860A3
:1031C00000237B610023FB6100233B610023FB6044
:1031D0000023BB617B68102B0AD07B68102B00F2A8
:1031E0008A807B68012B45D07B68022B75D082E0FA
:1031F000464B5B68FB60454B1B6803F08073002BFC
:103200007BD0FB689B0C03F00F03414AD35C3B610E
:10321000FB6803F48033002B15D03C4B5B685B0CE0
:1032200003F001033B4AD35C7B61FB6803F480330A
:10323000002B0DD0384A7B69B2FBF3F23B6902FBED
:1032400003F3FB6104E03B69344A02FB03F3FB61D7
:103250002E4B5B6803F48003B3F5800F02D1FB694A
:10326000BB614AE0FB695B002D4AA2FB03235B08BC
:10327000BB6142E0254B1B6AFB60FB6803F44073B3
:10328000B3F5807F08D1FB6803F00203002B03D065
:103290004FF40043BB611FE0FB6803F44073B3F5D8
:1032A000007F09D1194B5B6A03F00203002B03D0A6
:1032B00049F64043BB610FE0FB6803F44073B3F58C
:1032C000407F1CD1114B1B6803F40033002B16D038
:1032D0004FF22443BB6112E011E0FFF785FE024686
:1032E0000A4B5B689B0B03F0030301335B00B2FBEB
:1032F000F3F3BB6104E000BF02E000BF00E000BFE9
:10330000BB6918462037BD4680BD00BF0010024093
:10331000687900087879000800127A0000093D00F9
:10332000ABAAAAAA80B582B000AF78607B68002BF8
:1033300001D1012341E07B6893F83D30DBB2002BE3
:1033400006D17B68002283F83C207868FEF77EF87F
:103350007B68022283F83D207B681A687B6804330F
:103360001946104600F0ACFA7B68012283F846202B
:103370007B68012283F83E207B68012283F83F208E
:103380007B68012283F840207B68012283F841207A
:103390007B68012283F842207B68012283F8432066
:1033A0007B68012283F844207B68012283F8452052
:1033B0007B68012283F83D20002318460837BD466C
:1033C00080BD80B582B000AF78607B68002B01D1F2
:1033D000012341E07B6893F83D30DBB2002B06D13E
:1033E0007B68002283F83C20786800F039F87B681D
:1033F000022283F83D207B681A687B6804331946F3
:10340000104600F05DFA7B68012283F846207B6855
:10341000012283F83E207B68012283F83F207B68ED
:10342000012283F840207B68012283F841207B68D9
:10343000012283F842207B68012283F843207B68C5
:10344000012283F844207B68012283F845207B68B1
:10345000012283F83D20002318460837BD4680BD71
:1034600080B483B000AF786000BF0C37BD4680BC2D
:103470007047000080B584B000AF786039603B6869
:10348000002B09D17B6893F83E30DBB2012B14BFCF
:1034900001230023DBB222E03B68042B09D17B68C7
:1034A00093F83F30DBB2012B14BF01230023DBB2C2
:1034B00015E03B68082B09D17B6893F84030DBB2FC
:1034C000012B14BF01230023DBB208E07B6893F8D3
:1034D0004130DBB2012B14BF01230023DBB2002BF0
:1034E00001D0012359E03B68002B04D17B68022204
:1034F00083F83E2013E03B68042B04D17B68022252
:1035000083F83F200BE03B68082B04D17B68022244
:1035100083F8402003E07B68022283F841207B6827
:103520001B6801223968184600F040FC7B681B6864
:103530001C4A934207D17B681B685A6C7B681B68E6
:1035400042F400425A647B681B68164A934209D0D1
:103550007B681B68B3F1804F04D07B681B68124AFC
:10356000934211D17B681B689B6803F00703FB60E3
:10357000FB68062B10D07B681B681A687B681B6889
:1035800042F001021A6007E07B681B681A687B68DA
:103590001B6842F001021A60002318461037BD462E
:1035A00080BD00BF002C01400004004080B586B003
:1035B00000AFF860B9607A600023FB75FB6893F890
:1035C0003C30012B01D10223AEE0FB68012283F8DD
:1035D0003C207B680C2B00F29F8001A252F823F064
:1035E0001536000819370008193700081937000880
:1035F0005536000819370008193700081937000830
:1036000097360008193700081937000819370008DD
:10361000D7360008FB681B68B968184600F0A8F99F
:10362000FB681B689A69FB681B6842F008029A6194
:10363000FB681B689A69FB681B6822F004029A61A8
:10364000FB681B689969BB681A69FB681B680A43B9
:103650009A6164E0FB681B68B968184600F0EEF9EF
:10366000FB681B689A69FB681B6842F400629A61F8
:10367000FB681B689A69FB681B6822F480629A6188
:10368000FB681B689969BB681B691A02FB681B68A9
:103690000A439A6143E0FB681B68B968184600F06A
:1036A00037FAFB681B68DA69FB681B6842F008029E
:1036B000DA61FB681B68DA69FB681B6822F00402A8
:1036C000DA61FB681B68D969BB681A69FB681B680B
:1036D0000A43DA6123E0FB681B68B968184600F00A
:1036E00081FAFB681B68DA69FB681B6842F40062B8
:1036F000DA61FB681B68DA69FB681B6822F4806288
:10370000DA61FB681B68D969BB681B691A02FB6830
:103710001B680A43DA6102E00123FB7500BFFB6806
:10372000002283F83C20FB7D18461837BD4680BD3B
:1037300080B584B000AF786039600023FB737B688C
:1037400093F83C30012B01D10223B4E07B680122C5
:1037500083F83C207B68022283F83D207B681B684D
:103760009B68BB60BB6823F07703BB60BB6823F436
:103770007F43BB607B681B68BA689A603B681B68C4
:10378000B3F5005F3ED0B3F5005F00F28780B3F57C
:10379000805F00F08680B3F5805F7FD8702B1AD0F1
:1037A000702B7BD8602B50D0602B77D8502B3CD01F
:1037B000502B73D8402B58D0402B6FD8302B64D06F
:1037C000302B6BD8202B60D0202B67D8002B5CD0FF
:1037D000102B5AD062E07B6818683B6899683B6898
:1037E0005A683B68DB6800F0C2FA7B681B689B681C
:1037F000BB60BB6843F07703BB607B681B68BA683B
:103800009A604FE07B6818683B6899683B685A6823
:103810003B68DB6800F0ABFA7B681B689A687B68E2
:103820001B6842F480429A603CE07B6818683B6801
:1038300059683B68DB681A4600F022FA7B681B680F
:103840005021184600F079FA2CE07B6818683B6834
:1038500059683B68DB681A4600F040FA7B681B68D1
:103860006021184600F069FA1CE07B6818683B6824
:1038700059683B68DB681A4600F002FA7B681B68EF
:103880004021184600F059FA0CE07B681A683B6842
:103890001B681946104600F050FA03E00123FB7341
:1038A00000E000BF7B68012283F83D207B68002296
:1038B00083F83C20FB7B18461037BD4680BD0000D6
:1038C00080B485B000AF786039607B681B68FB60AE
:1038D0007B68254A934207D07B68B3F1804F03D0C1
:1038E0007B68224A934208D1FB6823F07003FB6097
:1038F0003B685B68FA681343FB607B681A4A934233
:1039000007D07B68B3F1804F03D07B68174A93429E
:1039100008D1FB6823F44073FB603B68DB68FA68FE
:103920001343FB60FB6823F080023B685B69134331
:10393000FB607B68FA681A603B689A687B68DA62A9
:103940003B681A687B689A627B68074A934203D196
:103950003B681A697B681A637B6801225A6100BF61
:103960001437BD4680BC7047002C01400004004065
:1039700080B487B000AF786039607B681B6A7B6178
:103980007B681B6A23F001027B681A627B685B68B4
:103990003B617B689B69FB60FB6823F07003FB6005
:1039A000FB6823F00303FB603B681B68FA68134362
:1039B000FB607B6923F002037B613B689B687A694B
:1039C00013437B617B681C4A93420CD17B6923F0D3
:1039D00008037B613B68DB687A6913437B617B6921
:1039E00023F004037B617B68134A934211D13B6946
:1039F00023F480733B613B6923F400733B613B68B4
:103A00005B693A6913433B613B689B693A691343BD
:103A10003B617B683A695A607B68FA689A613B68E7
:103A20005A687B685A637B687A691A6200BF1C37E0
:103A3000BD4680BC704700BF002C014080B487B0F9
:103A400000AF786039607B681B6A7B617B681B6AAA
:103A500023F010027B681A627B685B683B617B68BD
:103A60009B69FB60FB6823F4E043FB60FB6823F485
:103A70004073FB603B681B681B02FA681343FB60E2
:103A80007B6923F020037B613B689B681B017A699B
:103A900013437B617B681D4A93420DD17B6923F000
:103AA00080037B613B68DB681B017A6913437B61A0
:103AB0007B6923F040037B617B68144A934213D1F6
:103AC0003B6923F480633B613B6923F400633B6102
:103AD0003B685B699B003A6913433B613B689B69A8
:103AE0009B003A6913433B617B683A695A607B6883
:103AF000FA689A613B685A687B689A637B687A695E
:103B00001A6200BF1C37BD4680BC7047002C0140C4
:103B100080B487B000AF786039607B681B6A7B61D6
:103B20007B681B6A23F480727B681A627B685B681F
:103B30003B617B68DB69FB60FB6823F07003FB6023
:103B4000FB6823F00303FB603B681B68FA681343C0
:103B5000FB607B6923F400737B613B689B681B02FD
:103B60007A6913437B617B681D4A93420DD17B695F
:103B700023F400637B613B68DB681B027A691343B3
:103B80007B617B6923F480637B617B68144A934289
:103B900013D13B6923F480533B613B6923F4005309
:103BA0003B613B685B691B013A6913433B613B68BE
:103BB0009B691B013A6913433B617B683A695A6010
:103BC0007B68FA68DA613B685A687B68DA637B680D
:103BD0007A691A6200BF1C37BD4680BC704700BFBF
:103BE000002C014080B487B000AF786039607B68FA
:103BF0001B6A3B617B681B6A23F480527B681A62F4
:103C00007B685B687B617B68DB69FB60FB6823F436
:103C1000E043FB60FB6823F44073FB603B681B6878
:103C20001B02FA681343FB603B6923F400533B61BA
:103C30003B689B681B033A6913433B617B680F4AEF
:103C4000934209D17B6923F480437B613B685B69C4
:103C50009B017A6913437B617B687A695A607B6850
:103C6000FA68DA613B685A687B681A647B683A696B
:103C70001A6200BF1C37BD4680BC7047002C014053
:103C800080B487B000AFF860B9607A60FB681B6AE7
:103C90007B61FB681B6A23F00102FB681A62FB6808
:103CA0009B693B613B6923F0F0033B617B681B012F
:103CB0003A6913433B617B6923F00A037B617A69AC
:103CC000BB6813437B61FB683A699A61FB687A6958
:103CD0001A6200BF1C37BD4680BC704780B487B0F5
:103CE00000AFF860B9607A60FB681B6A7B61FB68B3
:103CF0001B6A23F01002FB681A62FB689B693B6138
:103D00003B6923F470433B617B681B033A691343AF
:103D10003B617B6923F0A0037B61BB681B017A696F
:103D200013437B61FB683A699A61FB687A691A629E
:103D300000BF1C37BD4680BC704780B485B000AF63
:103D4000786039607B689B68FB60FB6823F07003D8
:103D5000FB603A68FB68134343F00703FB607B6832
:103D6000FA689A6000BF1437BD4680BC704780B4C3
:103D700087B000AFF860B9607A603B60FB689B6811
:103D80007B617B6923F47F437B613B681A027B681C
:103D90001A43BB6813437A6913437B61FB687A69F2
:103DA0009A6000BF1C37BD4680BC704780B487B0A6
:103DB00000AFF860B9607A60BB6803F01F030122AE
:103DC00002FA03F37B61FB681A6A7B69DB431A40E2
:103DD000FB681A62FB681A6ABB6803F01F03796804
:103DE00001FA03F31A43FB681A6200BF1C37BD4691
:103DF00080BC704780B485B000AF786039607B6864
:103E000093F83C30012B01D1022341E07B68012271
:103E100083F83C207B68022283F83D207B681B6886
:103E20005B68FB607B681B689B68BB60FB6823F07A
:103E30007003FB603B681B68FA681343FB607B6898
:103E40001B68FA685A607B681B68144A934209D061
:103E50007B681B68B3F1804F04D07B681B68104AF5
:103E600093420CD1BB6823F08003BB603B685B6866
:103E7000BA681343BB607B681B68BA689A607B684A
:103E8000012283F83D207B68002283F83C20002338
:103E900018461437BD4680BC704700BF002C014057
:103EA0000004004080B582B000AF78607B68002BD2
:103EB00001D1012342E07B6893F84130DBB2002B53
:103EC00006D17B68002283F840207868FDF70AFB62
:103ED0007B68242283F841207B681B68DA687B6852
:103EE0001B6822F40052DA60786800F0C5FD7B6838
:103EF0001B681A697B681B6822F490421A617B6810
:103F00001B685A697B681B6822F02A025A617B6829
:103F10001B68DA687B681B6842F40052DA607B68D1
:103F200000225A647B68202283F841207B6820228B
:103F300083F842207B6800225A6300231846083722
:103F4000BD4680BD80B58AB002AFF860B9603B6005
:103F50001346FB8000237B61FB6893F84130DBB2A2
:103F6000202B6DD1BB68002B02D0FB88002B01D128
:103F7000012366E0FB6800225A64FB68212283F873
:103F80004120FDF781FC7861FB68FA889A84FB6820
:103F9000FA88DA84FB689B68B3F5805F08D1FB6818
:103FA0001B69002B04D10023FB61BB68BB6103E0EC
:103FB000BB68FB610023BB612AE03B6800937B691F
:103FC00000228021F86800F014FB0346002B01D08A
:103FD000032336E0FB69002B0BD1BB691B881A4613
:103FE000FB681B68C2F308025A60BB690233BB61FD
:103FF00007E0FB691A78FB681B685A60FB690133AC
:10400000FB61FB68DB8C9BB2013B9AB2FB68DA84F4
:10401000FB68DB8C9BB2002BCFD13B6800937B69A4
:1040200000224021F86800F0E4FA0346002B01D09A
:10403000032306E0FB68202283F84120002300E0F0
:10404000022318462037BD4680BD80B584B000AF3E
:10405000F860B9601346FB80FB6893F84230DBB22E
:10406000202B12D1BB68002B02D0FB88002B01D182
:1040700001230BE0FB6800221A63FB881A46B9682B
:10408000F86800F024FB034600E0022318461037CE
:10409000BD4680BD80B5BAB000AF78607B681B6854
:1040A0001B68C7F8E4307B681B68DB68C7F8E03042
:1040B0007B681B685B69C7F8DC300023C7F8D83021
:1040C0000023C7F8D430D7F8E43003F00F03C7F863
:1040D000D830D7F8D830002B0FD1D7F8E43003F020
:1040E0002003002B09D0D7F8E03003F02003002B89
:1040F00003D0786800F001FC5BE2D7F8D830002BE1
:1041000000F0DE80D7F8DC3003F00103002B06D18D
:10411000D7F8E03003F49073002B00F0D180D7F88B
:10412000E43003F00103002B0BD0D7F8E03003F4A8
:104130008073002B05D07B685B6C43F001027B68C9
:104140005A64D7F8E43003F00403002B0BD0D7F8FF
:10415000DC3003F00103002B05D07B685B6C43F07F
:1041600002027B685A64D7F8E43003F00203002BA4
:104170000BD0D7F8DC3003F00103002B05D07B68AF
:104180005B6C43F004027B685A64D7F8E43003F0B8
:104190000803002B11D0D7F8E03003F02003002BE8
:1041A00005D1D7F8DC3003F00103002B05D07B6884
:1041B0005B6C43F008027B685A647B685B6C002B85
:1041C00000F0F281D7F8E43003F02003002B08D090
:1041D000D7F8E03003F02003002B02D0786800F01D
:1041E0008CFB7B681B685B6903F04003002B14BFEA
:1041F00001230023DBB2C7F8D4307B685B6C03F08B
:104200000803002B03D1D7F8D430002B4FD07868A7
:1042100000F096FA7B681B685B6903F04003002B93
:1042200041D07B681B681433C7F89C30D7F89C30AA
:1042300053E8003FC7F89830D7F8983023F0400390
:10424000C7F8D0307B681B681433D7F8D020C7F884
:10425000A820C7F8A430D7F8A410D7F8A82041E8C0
:104260000023C7F8A030D7F8A030002BD9D17B6845
:10427000DB6B002B13D07B68DB6B7E4A5A637B6859
:10428000DB6B1846FEF77EF80346002B16D07B68E2
:10429000DB6B5B6B7A68D26B104698470EE07868F0
:1042A00000F093F90AE0786800F08FF906E078688A
:1042B00000F08BF97B6800225A6475E100BF73E15E
:1042C0007B681B6B012B40F04F81D7F8E43003F083
:1042D0001003002B00F04881D7F8E03003F0100302
:1042E000002B00F041810023BB607B681B681B68CA
:1042F000BB607B681B685B68BB60BB687B681B68D6
:104300005B6903F04003002B00F0B6807B68DB6B39
:104310001B685B68A7F8BE30B7F8BE30002B00F012
:1043200045817B689B8DB7F8BE209A4280F03E8124
:104330007B68B7F8BE20DA857B68DB6B9B69202B36
:1043400000F088807B681B680C33C7F88830D7F88A
:10435000883053E8003FC7F88430D7F8843023F41E
:104360008073C7F8B8307B681B680C33D7F8B82067
:10437000C7F89420C7F89030D7F89010D7F8942059
:1043800041E80023C7F88C30D7F88C30002BD9D106
:104390007B681B6814337B677B6F53E8003F3B6788
:1043A0003B6F23F00103C7F8B4307B681B681433FC
:1043B000D7F8B420C7F88020FB67F96FD7F88020C2
:1043C00041E80023BB67BB6F002BE1D17B681B6812
:1043D00014333B663B6E53E8003FFB65FB6D23F0F7
:1043E0004003C7F8B0307B681B681433D7F8B0209F
:1043F000FA66BB66B96EFA6E41E800237B667B6E97
:10440000002BE3D17B68202283F842207B680022C6
:104410001A637B681B680C33FB64FB6C53E8003F3A
:10442000BB64BB6C23F01003C7F8AC307B681B681F
:104430000C33D7F8AC20BA657B65796DBA6D41E86D
:1044400000233B653B6D002BE3D17B68DB6B18469B
:10445000FDF75DFF7B6802225A637B689A8D7B685B
:10446000DB8D9BB2D31A9BB21946786800F0B6F880
:104470009CE000BF054800087B689A8D7B68DB8D57
:104480009BB2D31AA7F8CE307B68DB8D9BB2002B92
:1044900000F08E80B7F8CE30002B00F089807B686A
:1044A0001B680C33BB63BB6B53E8003F7B637B6BC8
:1044B00023F49073C7F8C8307B681B680C33D7F8B7
:1044C000C8207A643B64396C7A6C41E80023FB6352
:1044D000FB6B002BE3D17B681B6814337B627B6A28
:1044E00053E8003F3B623B6A23F00103C7F8C43046
:1044F0007B681B681433D7F8C4203A63FB62F96AFF
:104500003A6B41E80023BB62BB6A002BE3D17B68B6
:10451000202283F842207B6800221A637B681B6894
:104520000C333B613B6953E8003FFB60FB6823F0C1
:104530001003C7F8C0307B681B680C33D7F8C02065
:10454000FA61BB61B969FA6941E800237B617B6963
:10455000002BE3D17B6802225A63B7F8CE301946AC
:10456000786800F03BF823E0D7F8E43003F08003EC
:10457000002B09D0D7F8E03003F08003002B03D0E4
:10458000786800F053F914E0D7F8E43003F0400302
:10459000002B0ED0D7F8E03003F04003002B08D0FA
:1045A000786800F092F904E000BF02E000BF00E08C
:1045B00000BFE837BD4680BD80B483B000AF7860EF
:1045C00000BF0C37BD4680BC704780B483B000AFDD
:1045D000786000BF0C37BD4680BC704780B483B0A4
:1045E00000AF78600B467B8000BF0C37BD4680BCB7
:1045F000704780B590B000AFF860B9603B6013467B
:10460000FB7150E0BB6CB3F1FF3F4CD0BB6C002B97
:1046100007D0FDF739F902463B68D31ABA6C9A42C3
:1046200041D2FB681B680C33BB62BB6A53E8003F96
:104630007B627B6A23F4D073FB63FB681B680C33DB
:10464000FA6B7A633B63396B7A6B41E80023FB6258
:10465000FB6A002BE5D1FB681B6814337B617B6927
:1046600053E8003F3B613B6923F00103BB63FB68F8
:104670001B681433BA6B3A62FB61F9693A6A41E824
:104680000023BB61BB69002BE5D1FB68202283F8C6
:104690004120FB68202283F84220FB68002283F837
:1046A000402003230FE0FB681B681A68BB681340B7
:1046B000BA689A420CBF01230023DBB21A46FB7989
:1046C0009A429FD0002318464037BD4680BD80B433
:1046D00085B000AFF860B9601346FB80FB68BA682C
:1046E0009A62FB68FA889A85FB68FA88DA85FB6823
:1046F00000225A64FB68222283F84220FB681B696F
:10470000002B07D0FB681B68DA68FB681B6842F463
:104710008072DA60FB681B685A69FB681B6842F0AC
:1047200001025A61FB681B68DA68FB681B6842F08B
:104730002002DA60002318461437BD4680BC70475B
:1047400080B495B000AF78607B681B680C337B63E6
:104750007B6B53E8003F3B633B6B23F49073FB643C
:104760007B681B680C33FA6C3A64FB63F96B3A6C38
:1047700041E80023BB63BB6B002BE5D17B681B6862
:1047800014333B623B6A53E8003FFB61FB6923F053
:104790000103BB647B681B681433BA6CFA62BB62AA
:1047A000B96AFA6A41E800237B627B6A002BE5D193
:1047B0007B681B6B012B19D17B681B680C33FB607A
:1047C000FB6853E8003FBB60BB6823F010037B64C9
:1047D0007B681B680C337A6CBA617B617969BA6952
:1047E00041E800233B613B69002BE5D17B68202237
:1047F00083F842207B6800221A6300BF5437BD460D
:1048000080BC704780B584B000AF78607B685B6A1D
:10481000FB60FB680022DA85FB680022DA84F86816
:10482000FFF7D3FE00BF1037BD4680BD80B485B012
:1048300000AF78607B6893F84130DBB2212B3ED12A
:104840007B689B68B3F5805F14D17B681B69002B84
:1048500010D17B681B6AFB60FB681B881A467B686B
:104860001B68C2F308025A607B681B6A9A1C7B684B
:104870001A6208E07B681B6A591C7A6811621A7810
:104880007B681B685A607B68DB8C9BB2013B9BB2E8
:104890007A681946D184002B0FD17B681B68DA68CF
:1048A0007B681B6822F08002DA607B681B68DA682C
:1048B0007B681B6842F04002DA60002300E00223BC
:1048C00018461437BD4680BC704780B582B000AF33
:1048D00078607B681B68DA687B681B6822F040029E
:1048E000DA607B68202283F841207868FFF764FE55
:1048F000002318460837BD4680BD80B58CB000AF98
:1049000078607B6893F84230DBB2222B40F0AE80B7
:104910007B689B68B3F5805F17D17B681B69002BB0
:1049200013D10023FB627B689B6ABB627B681B68B8
:104930005B689BB2C3F308039AB2BB6A1A807B68B8
:104940009B6A9A1C7B689A6226E07B689B6AFB6282
:104950000023BB627B689B68B3F5805F07D07B68F0
:104960009B68002B0AD17B681B69002B06D17B68F2
:104970001B685B68DAB2FB6A1A7008E07B681B6828
:104980005B68DBB203F07F03DAB2FB6A1A707B6804
:104990009B6A5A1C7B689A627B68DB8D9BB2013BE9
:1049A0009BB27A681946D185002B5DD17B681B6864
:1049B000DA687B681B6822F02002DA607B681B687B
:1049C000DA687B681B6822F48072DA607B681B6897
:1049D0005A697B681B6822F001025A617B682022B9
:1049E00083F842207B6800225A637B681B6B012B93
:1049F00035D17B6800221A637B681B680C337B61AE
:104A00007B6953E8003F3B613B6923F010037B6205
:104A10007B681B680C337A6A3A62FB61F9693A6A0F
:104A200041E80023BB61BB69002BE5D17B681B68B3
:104A30001B6803F01003102B0AD10023FB607B6876
:104A40001B681B68FB607B681B685B68FB60FB681E
:104A50007B689B8D19467868FFF7C0FD02E0786897
:104A6000FCF7C8FB002302E0002300E00223184605
:104A70003037BD4680BD000080B584B000AF78609F
:104A80007B681B681B6923F440517B68DA687B688C
:104A90001B680A431A617B689A687B681B691A4322
:104AA0007B685B691343BB607B681B68DB6823F42E
:104AB000B05323F00C037A681268B9680B43D360D3
:104AC0007B681B685B6923F440717B689A697B682B
:104AD0001B680A435A617B681B682C4A934203D1C6
:104AE000FEF782FAF86002E0FEF76AFAF860FA6808
:104AF00013469B0013449A001A447B685B689B0032
:104B0000B2FBF3F3224AA2FB03235B091901FA6803
:104B100013469B0013449A001A447B685B689B0011
:104B2000B2FBF3F21A4BA3FB02035B09642000FB08
:104B300003F3D31A1B013233154AA2FB03235B098B
:104B400003F0F0031944FA6813469B0013449A00DB
:104B50001A447B685B689B00B2FBF3F20C4BA3FB2F
:104B600002035B09642000FB03F3D31A1B013233F9
:104B7000074AA2FB03235B0903F00F027B681B6853
:104B80000A449A6000BF1037BD4680BD003801401E
:104B90001F85EB51024B0146186800F023B800BF97
:104BA0006400002070B50E4E0C463168054611B900
:104BB00000F09CFE30602146284600F097FE431C22
:104BC0000AD0C41C24F00304A04207D0211A2846AE
:104BD00000F08CFE013001D14FF0FF34204670BD53
:104BE000380300202DE9F843CD1C25F003050835D6
:104BF0000C2D38BF0C25002D074601DBA94205D935
:104C00000C2300263B603046BDE8F883DFF8D080F7
:104C100000F068F8D8F800301C465CBB29463846DE
:104C2000FFF7C0FF431C044655D1D8F80040264684
:104C3000002E45D1002C48D023683146384604EB7D
:104C4000030900F053FE81453FD1216838466D1AB3
:104C50002946FFF7A7FF013037D023682B44236094
:104C6000D8F80030002B38D05A68A2422BD100224D
:104C70005A600FE02268521B1FD40B2A17D9611902
:104C8000A342256018BF5960636808BFC8F80010C8
:104C900062514B60384604F10B0600F029F826F00B
:104CA0000706231DF21AAED09B1BA350ABE7A3420D
:104CB0006268DDD1C8F80020ECE723466468ACE701
:104CC00034467668B4E71346CCE70C2338463B609D
:104CD00000F00EF897E72560DCE75B60FFDE00BFC1
:104CE00034030020014800F04DBE00BF7C040020CA
:104CF000014800F048BE00BF7C040020002B2DE9D5
:104D0000F0471F46BBBF03F100431F4600232D237E
:104D100088B01446129A109D1370149BDDF84CA0B5
:104D200023F02008B8F1460F05D0B8F1450F00D1A7
:104D30000135022300E0032307AA049206AACDE965
:104D400002A2CDE9003522463B4600F0B5FEB8F19F
:104D5000470F064602D1119BDB0722D5B8F1460F5B
:104D600006EB050910D13378302B0AD1002200233D
:104D700020463946FBF722FE18B9C5F10105CAF8ED
:104D80000050DAF8003099440022002320463946CA
:104D9000FBF714FE08B1CDF81C903022079B4B4561
:104DA00007D33046079B159A9B1B136008B0BDE8DC
:104DB000F087591C07911A70F0E70346F7B50029F0
:104DC00003F8022BB6BF2D222B224942092942703B
:104DD0002ADD0DF1070217460A2691FBF6F59446E7
:104DE00006FB151430340CF8014C0C46632C294694
:104DF00002F1FF32F1DC3031ACF1020402F8011CA7
:104E00002246411CBA420AD30DF10902A2EB0C0260
:104E1000BC4288BF00221344181A03B0F0BD12F838
:104E2000015B01F8015FEDE7302330318370C17021
:104E3000031DF1E72DE9F04F91B00C46DDF86880D5
:104E400016461F46054600F019FD036818460993EB
:104E5000FBF788F900230E93D8F800300A90073347
:104E600023F0070303F1080294F81890D4F800B077
:104E7000C8F80020D3E900A852464346C4E91223EB
:104E800028F000430B934FF0FF3250469C4B0B9998
:104E9000FBF7C6FD70BB4FF0FF325046984B0B99A5
:104EA000FBF7A0FD30BB0022002350464146FBF734
:104EB0008FFD10B12D2384F84330924A924BB9F103
:104EC000470F94BF9046984603234FF0000A236192
:104ED0002BF00403236033462146284600970FAA8F
:104EE00000F0D6F9013040F090804FF0FF3011B063
:104EF000BDE8F08F5246434650464146FBF790FDD1
:104F000048B1B8F1000FB8BF2D23804AB8BF84F86C
:104F100043307F4BD3E7636809F0DF015A1C42D16D
:104F200006236360002206920EAACDE904920DAA20
:104F30004BF4806303920DF13302CDE9013223601B
:104F4000636852460093284643460B91FFF7D6FE0E
:104F50000B99804647290D9908D1C81C02DB63686C
:104F6000994240DDA9F102095FFA89F9B9F1650FAB
:104F70001FD84A46013904F150000D91FFF71DFF7B
:104F80000E9A82461318012A236102DC2268D20796
:104F900001D5013323619DF83330002B9BD02D23A5
:104FA00084F8433097E74729BCD1002BBAD10123BD
:104FB000B7E7B9F1660F18D1002963680BDD2161ED
:104FC00013B92268D00702D501330B4423614FF097
:104FD000000AA165DFE713B92268D20701D50233C1
:104FE000F4E70123F2E74FF067090E9B994205DBD6
:104FF00023682161D807EAD54B1CE7E70029CCBF1D
:105000000122C1F102021344E0E723685A0507D4E4
:105010002369424631462846B84701302BD164E720
:10502000B9F1650F40F2DD80D4E9120100220023BE
:10503000FBF7C4FC002833D0012331462846354A0B
:10504000B84701303FF451AFDDE90D239A4202DB4E
:105050002368D8070FD5DDE9092331462846B8472C
:1050600001303FF442AF4FF0000804F11A090E9BE3
:10507000013B434509DC23689B0700F10481E0689C
:105080000F9B9842B8BF184631E701234A46314684
:105090002846B84701303FF428AF08F10108E6E799
:1050A0000D9B002B38DC012331462846194AB847AE
:1050B00001303FF41AAFDDE90D32134302D123680A
:1050C000D907D8D5DDE9092331462846B84701304C
:1050D0003FF40BAF4FF0000904F11A0A0D9B5B423D
:1050E0004B4501DC0E9B94E701235246314628468E
:1050F000B84701303FF4F9AE09F10109EEE700BF0E
:10510000FFFFEF7F7A7900087E7900088279000836
:10511000867900088A7900080E9AA36D9A42A8BF82
:105120001A46002A914637DC4FF0000B29EAE9794C
:1051300004F11A02D4F858A0AAEB09035B4533DC4A
:10514000DDE90D239A423BDB2368DA0738D4DDE939
:105150000D32A2EB0309A2EB0A029145A8BF9146CA
:10516000B9F1000F34DC4FF0000829EAE97904F1C5
:105170001A0ADDE90D239B1AA3EB090343457FF7C8
:105180007AAF0123524631462846B84701303FF4F2
:10519000ACAE08F10108ECE713463146424628461A
:1051A000B8470130C0D1A0E60123314628460B9212
:1051B000B84701303FF499AE0B9A0BF1010BB9E7F8
:1051C0003146DDE909232846B8470130BFD18CE6D6
:1051D0004B463146284608EB0A02B8470130C2D197
:1051E00083E60E9A012A01DCDB0739D5012342460A
:1051F00031462846B84701303FF477AEDDE9092350
:1052000031462846B84701303FF46FAED4E9120169
:1052100000220023DDF83890FBF7D0FBD8B909F164
:10522000FF3308F1010231462846B84701300ED15C
:105230005BE601234A4631462846B84701303FF431
:1052400054AE08F101080E9B013B4345F1DC534687
:1052500004F15002DEE64FF0000804F11A09F2E70B
:1052600001234246DFE701234A4631462846B84734
:1052700001303FF43AAE08F10108E3680F995B1A78
:105280004345F0DCFBE64FF0000804F11909F4E7B0
:105290002DE9F047164699468A680B6907469342FE
:1052A000B8BF1346336091F843200C46DDF82080E8
:1052B0000AB1013333602368990642BF3368023371
:1052C0003360256815F0060506D104F1190AE36874
:1052D00032689B1AAB422BDC94F84320131E2268E1
:1052E00018BF0123920630D44946384604F14302E0
:1052F000C047013023D02368226903F00603042B42
:1053000014BF002533684FF0000608BFE56804F1BC
:105310001A0408BFED1A54F8123C08BF25EAE575D7
:105320009342C4BF9B1AED18B5421AD1002008E081
:105330000123524649463846C047013003D14FF059
:10534000FF30BDE8F0870135C1E73020E11881F872
:1053500043005A1C94F845102244023382F843104B
:10536000C2E70123224649463846C0470130E6D00D
:105370000136D9E72DE9FF470F7E9146782F804609
:105380000C469A460C9D01F1430207D8622F0AD8B9
:10539000002F00F0D580582F00F0C18004F14205A5
:1053A00084F842703AE0A7F16303152BF6D801A107
:1053B00051F823F00D540008215400089D530008B3
:1053C0009D5300089D5300089D5300082154000878
:1053D0009D5300089D5300089D5300089D530008ED
:1053E000275500084D540008E15400089D5300085B
:1053F0009D530008495500089D5300084D5400086E
:105400009D5300089D530008E95400082B681A1D9D
:105410001B682A6004F1420584F842300123A0E0B1
:1054200020682B68070603F10401296001D51E6876
:1054300003E04606FBD5B3F90060002E03DA2D2306
:10544000764284F843300A23594812E02B682068DA
:10545000191D2960050601D51E6802E04106FBD52D
:105460001E886F2F0CBF08230A235148002184F89F
:1054700043106568002DA8BF2168A560A4BF21F076
:10548000040121600EB9002D4BD01546B6FBF3F197
:1054900003FB1167C75D05F8017D3746BB420E4629
:1054A000F4D9082B0BD12368DE0708D5236961687E
:1054B0009942DEBF302305F8013C05F1FF35521B50
:1054C00022614B4621464046CDF800A003AAFFF7D3
:1054D000DFFE01304AD14FF0FF3004B0BDE8F08765
:1054E000236843F0200323607827324884F845700E
:1054F000236829681F0651F8046B02D45F0648BF71
:10550000B6B2DF0748BF43F02003296048BF2360DD
:105510001EB9236823F0200323601023A6E7244844
:10552000E4E71546BDE72B682668181D6169286009
:1055300035061B6801D5196002E07006FBD519809D
:10554000002315462361BCE72B6800211A1D2A6041
:105550001D686268284600F017FA08B1401B6060B9
:1055600063682361002384F84330AAE72A4649464A
:1055700040462369D0470130ADD023689B0713D440
:10558000E068039B9842B8BF1846A6E7012332465D
:1055900049464046D04701309DD00135E368039924
:1055A0005B1AAB42F2DCEBE7002504F11906F5E7E4
:1055B0008C7900089D790008002310B50446C0E9E5
:1055C0000033C0E90433836081814366C281836113
:1055D000194608225C3000F036F9054B24626362FC
:1055E000044BA362044BE362044B236310BD00BF72
:1055F000C1570008E35700081B5800083F5800082F
:10560000024A0349034800F069B800BF0C000020BB
:10561000B57100081800002041680C4B10B5994284
:10562000044601D001F0C6FDA168094B994202D0A1
:10563000204601F0BFFDE168064B994204D02046A8
:10564000BDE8104001F0B6BD10BD00BF3C03002016
:10565000A40300200C04002010B50B4B0B4C0C4A8B
:1056600020461A6004210022FFF7A6FF04F168001B
:1056700001220921FFF7A0FF04F1D0000222BDE8BA
:1056800010401221FFF798BF740400203C03002053
:1056900001560008014800F075B900BF7D040020E4
:1056A000014800F070B900BF7D04002010B5044629
:1056B000FFF7F0FF236A1BB1BDE81040FFF7F0BF12
:1056C000044B2362044B1B68002BF5D1FFF7C4FF8A
:1056D000F2E700BF19560008740400202DE9F843D2
:1056E0000746884614460026D4E90195B9F1010918
:1056F00005D52468002CF7D13046BDE8F883AB8986
:10570000012B07D9B5F90E30013303D029463846AD
:10571000C04706436835E9E70CB430B5174B0C1E9B
:105720001D689DB008DA8B234FF0FF302B601DB051
:10573000BDE8304002B070474FF40273ADF814304A
:105740000CBF234604F1FF33049307934FF6FF7316
:1057500002900690ADF81630284621AB209A02A997
:10576000019301F0A7FB431CBCBF8B232B60002CD3
:10577000DDD00022029B1A70D9E700BF6400002030
:105780000EB46FF0004100B59CB01DAB02900690C6
:10579000079104910848094953F8042B05910068C2
:1057A00002A9019301F086FB0022029B1A701CB033
:1057B0005DF804EB03B07047640000200802FFFFAF
:1057C00010B50C46B1F90E1000F07EF80028ABBF02
:1057D000636DA3891B1823F48053ACBF6365A38159
:1057E00010BD2DE9F0411F468B890546DB050C46AF
:1057F000164605D502230022B1F90E1000F052F82A
:10580000A389324623F48053A38128463B46B4F94A
:105810000E10BDE8F04100F079B810B50C46B1F9B2
:105820000E1000F03FF8431CA38915BF606523F4F8
:10583000805343F48053A38118BFA38110BDB1F9F5
:105840000E1000F01FB803460244934200D1704787
:1058500003F8011BF9E710B56AB10139841810F893
:10586000012B11F8013F9A4203D1A04201D0002A36
:10587000F5D1D01A10BD1046FCE700000048704773
:105880005801002038B50023054D044608462B601A
:10589000FBF710FF431C02D12B6803B1236038BD16
:1058A0007804002038B50446084611460022054D0C
:1058B0002A601A46FBF722FF431C02D12B6803B172
:1058C000236038BD7804002038B5044608461146E8
:1058D0000022054D2A601A46FBF7B3FE431C02D195
:1058E0002B6803B1236038BD7804002038B500234D
:1058F000054D044608462B60FBF70CFF431C02D104
:105900002B6803B1236038BD7804002038B5044605
:10591000084611460022054D2A601A46FBF7AEFEE6
:10592000431C02D12B6803B1236038BD78040020EA
:10593000014B1868704700BF6400002070B5002656
:105940000C4D0D4C641BA410A64209D101F0C2FFFE
:1059500000260A4D0A4C641BA410A64205D170BD56
:1059600055F8043B98470136EEE755F8043B984755
:105970000136F2E7EC7C0008EC7C0008EC7C0008C7
:10598000F07C000870477047034610B5C9B2024466
:105990009342184601D1002003E0047801338C4281
:1059A000F6D110BD2DE9F74F03690C690746A342F4
:1059B0007FDB013C00F1140501F1140805EB8403C1
:1059C000019358F8243055F8242001339A42B2FB51
:1059D000F3F64FEA840B08EB840931D34FF0000E45
:1059E0004046AC46F24650F8042B93B206FB03E364
:1059F0004FEA124E1A0C9BB206FB0E22AAEB0303CF
:105A0000DCF800A04FEA124E1FFA8AFA5344DCF881
:105A100000A092B2C2EB1A4202EB23429BB243EACD
:105A2000024381454FEA224A4CF8043BDBD255F849
:105A30000B302BB9019B043B9D421A462DD33C6190
:105A4000384601F0DFF8002823DB29460020013624
:105A500058F8042BD1F800C093B2C31A120C1FFAE5
:105A60008CF00344C2EB1C4202EB23429BB243EA9C
:105A70000243C1454FEA224041F8043BE8D255F8C1
:105A8000242005EB840322B9043B9D421A460AD325
:105A90003C61304603B0BDE8F08F1268043B002A39
:105AA000CDD1013CC8E71268043B002AF0D1013C8B
:105AB000EBE70020EEE700002DE9F04F16461F4609
:105AC000C46999B00546CDE90467DDF8948074B9DE
:105AD0001020FFF75FF80246E86120B9EF21AC4BD8
