:020000040800F2
:1000000000280020A1120008C5110008C71100082F
:10001000C9110008CB110008CD1100080000000034
:10002000000000000000000000000000CF110008E8
:10003000D111000800000000D3110008D5110008FC
:10004000E9120008E9120008E9120008E9120008A4
:10005000E9120008E9120008E9120008E912000894
:10006000E9120008E9120008E9120008E912000884
:10007000E9120008E9120008E9120008E912000874
:10008000E9120008E9120008E9120008E912000864
:10009000E9120008E9120008E9120008D911000865
:1000A000E9120008E9120008E9120008E912000844
:1000B000E9120008E912000800000000E912000837
:1000C000E91200080000000000000000E91200082A
:1000D00000000000E1110008E91200080000000023
:1000E000E9120008E9120008E91200080000000007
:1000F0000000000000000000000000000000000000
:0C01000000000000000000005FF808F1A3
:1001100010B5054C237833B9044B13B10448AFF341
:1001200000800123237010BDD401002000000000D6
:10013000D45B000808B5034B1BB103490348AFF378
:10014000008008BD00000000D8010020D45B00083A
:1001500010F8012B11F8013B012A28BF9A42F7D071
:10016000D01A7047034613F8012B002AFBD1181A46
:100170000138704781F0004102E000BF83F0004386
:1001800030B54FEA41044FEA430594EA050F08BF32
:1001900090EA020F1FBF54EA000C55EA020C7FEAF6
:1001A000645C7FEA655C00F0E2804FEA5454D4EB73
:1001B0005555B8BF6D420CDD2C4480EA020281EA3D
:1001C000030382EA000083EA010180EA020281EA75
:1001D0000303362D88BF30BD11F0004F4FEA0131C7
:1001E0004FF4801C4CEA113102D0404261EB4101D6
:1001F00013F0004F4FEA03334CEA133302D052425C
:1002000063EB430394EA050F00F0A780A4F1010417
:10021000D5F1200E0DDB02FA0EFC22FA05F2801851
:1002200041F1000103FA0EF2801843FA05F3594137
:100230000EE0A5F120050EF1200E012A03FA0EFCB6
:1002400028BF4CF0020C43FA05F3C01851EBE371E0
:1002500001F0004507D54FF0000EDCF1000C7EEBFD
:1002600000006EEB0101B1F5801F1BD3B1F5001F3B
:100270000CD349085FEA30004FEA3C0C04F101045A
:100280004FEA445212F5800F80F09A80BCF1004F83
:1002900008BF5FEA500C50F1000041EB045141EA05
:1002A000050130BD5FEA4C0C404141EB0101013CCE
:1002B00028BFB1F5801FE9D291F0000F04BF0146BD
:1002C0000020B1FA81F308BF2033A3F10B03B3F18F
:1002D00020020CDA0C3208DD02F1140CC2F10C021F
:1002E00001FA0CF021FA02F10CE002F11402D8BF7D
:1002F000C2F1200C01FA02F120FA0CFCDCBF41EA49
:100300000C019040E41AA2BF01EB0451294330BD17
:100310006FEA04041F3C1CDA0C340EDC04F11404F4
:10032000C4F1200220FA04F001FA02F340EA0300CB
:1003300021FA04F345EA030130BDC4F10C04C4F111
:10034000200220FA02F001FA04F340EA03002946F1
:1003500030BD21FA04F0294630BD94F0000F83F43B
:10036000801306BF81F480110134013D4EE77FEA1E
:10037000645C18BF7FEA655C29D094EA050F08BF6A
:1003800090EA020F05D054EA000C04BF194610464B
:1003900030BD91EA030F1EBF0021002030BD5FEA8F
:1003A000545C05D14000494128BF41F0004130BDB7
:1003B00014F580043CBF01F5801130BD01F000450B
:1003C00045F0FE4141F470014FF0000030BD7FEA7E
:1003D000645C1ABF194610467FEA655C1CBF0B4679
:1003E000024650EA013406BF52EA033591EA030F90
:1003F00041F4002130BD00BF90F0000F04BF002188
:10040000704730B54FF4806404F132044FF00005BA
:100410004FF0000150E700BF90F0000F04BF002133
:10042000704730B54FF4806404F1320410F0004599
:1004300048BF40424FF000013EE700BF42004FEA94
:10044000E2014FEA31014FEA02701FBF12F07F4311
:1004500093F07F4F81F06051704732F07F4208BFC8
:10046000704793F07F4F04BF41F40021704730B5CF
:100470004FF4607401F0004521F000411CE700BF1B
:1004800050EA010208BF704730B54FF000050AE09E
:1004900050EA010208BF704730B511F0004502D59F
:1004A000404261EB41014FF4806404F132045FEAA1
:1004B000915C3FF4D8AE4FF003025FEADC0C18BF4A
:1004C00003325FEADC0C18BF033202EBDC02C2F13C
:1004D000200300FA03FC20FA02F001FA03FE40EACE
:1004E0000E0021FA02F11444BDE600BF70B54FF0D2
:1004F000FF0C4CF4E06C1CEA11541DBF1CEA1355B0
:1005000094EA0C0F95EA0C0F00F0DEF82C4481EA17
:10051000030621EA4C5123EA4C5350EA013518BF37
:1005200052EA033541F4801143F4801338D0A0FB24
:1005300002CE4FF00005E1FB02E506F00042E0FBD1
:1005400003E54FF00006E1FB03569CF0000F18BFD7
:100550004EF0010EA4F1FF04B6F5007F64F540747F
:1005600004D25FEA4E0E6D4146EB060642EAC62112
:1005700041EA55514FEAC52040EA5E504FEACE2E7F
:10058000B4F1FD0C88BFBCF5E06F1ED8BEF1004F82
:1005900008BF5FEA500E50F1000041EB045170BDFE
:1005A00006F0004646EA010140EA020081EA030142
:1005B000B4EB5C04C2BFD4EB0C0541EA045170BD3E
:1005C00041F480114FF0000E013C00F3AB8014F1B8
:1005D000360FDEBF002001F0004170BDC4F1000401
:1005E000203C35DA0C341BDC04F11404C4F1200582
:1005F00000FA05F320FA04F001FA05F240EA0200DD
:1006000001F0004221F0004110EBD37021FA04F612
:1006100042EB06015EEA430E08BF20EAD37070BDCC
:10062000C4F10C04C4F1200500FA04F320FA05F02B
:1006300001FA04F240EA020001F0004110EBD3702D
:1006400041F100015EEA430E08BF20EAD37070BD9D
:10065000C4F1200500FA05F24EEA020E20FA04F376
:1006600001FA05F243EA020321FA04F001F0004125
:1006700021FA04F220EA020000EBD3705EEA430E96
:1006800008BF20EAD37070BD94F0000F0FD101F0C5
:100690000046400041EB010111F4801F08BF013CFE
:1006A000F7D041EA060195F0000F18BF704703F03C
:1006B0000046520043EB030313F4801F08BF013DC3
:1006C000F7D043EA0603704794EA0C0F0CEA13557F
:1006D00018BF95EA0C0F0CD050EA410618BF52EA39
:1006E0004306D1D181EA030101F000414FF000003F
:1006F00070BD50EA410606BF1046194652EA43064D
:1007000019D094EA0C0F02D150EA013613D195EAC0
:100710000C0F05D152EA03361CBF104619460AD108
:1007200081EA030101F0004141F0FE4141F4700112
:100730004FF0000070BD41F0FE4141F4780170BD02
:1007400070B54FF0FF0C4CF4E06C1CEA11541DBF67
:100750001CEA135594EA0C0F95EA0C0F00F0A7F869
:10076000A4EB050481EA030E52EA03354FEA013196
:1007700000F088804FEA03334FF0805545EA1313A9
:1007800043EA12634FEA022245EA111545EA106571
:100790004FEA00260EF000419D4208BF964244F108
:1007A000FD0404F5407402D25B084FEA3202B61A27
:1007B00065EB03055B084FEA32024FF480104FF4FB
:1007C000002CB6EB020E75EB030E22BFB61A75466F
:1007D00040EA0C005B084FEA3202B6EB020E75EB02
:1007E000030E22BFB61A754640EA5C005B084FEA6A
:1007F0003202B6EB020E75EB030E22BFB61A754637
:1008000040EA9C005B084FEA3202B6EB020E75EB41
:10081000030E22BFB61A754640EADC0055EA060E02
:1008200018D04FEA051545EA16754FEA06164FEA45
:10083000C30343EA52734FEAC2025FEA1C1CC0D1F1
:1008400011F4801F0BD141EA00014FF000004FF07E
:10085000004CB6E711F4801F04BF01430020B4F13F
:10086000FD0C88BFBCF5E06F3FF6AFAEB5EB030CF7
:1008700004BFB6EB020C5FEA500C50F1000041EBF4
:10088000045170BD0EF0004E4EEA113114EB5C04C1
:10089000C2BFD4EB0C0541EA045170BD41F4801194
:1008A0004FF0000E013C90E645EA060E8DE60CEA9C
:1008B000135594EA0C0F08BF95EA0C0F3FF43BAFB9
:1008C00094EA0C0F0AD150EA01347FF434AF95EA70
:1008D0000C0F7FF425AF104619462CE795EA0C0F54
:1008E00006D152EA03353FF4FDAE1046194622E721
:1008F00050EA410618BF52EA43067FF4C5AE50EAFB
:1009000041047FF40DAF52EA43057FF4EBAE12E7EA
:100910004FF0FF3C06E000BF4FF0010C02E000BFCB
:100920004FF0010C4DF804CD4FEA410C7FEA6C5CAE
:100930004FEA430C18BF7FEA6C5C1BD001B050EA51
:10094000410C0CBF52EA430C91EA030F02BF90EA3C
:10095000020F0020704710F1000F91EA030F58BFFB
:10096000994208BF90422CBFD8176FEAE37040F05D
:10097000010070474FEA410C7FEA6C5C02D150EAFB
:10098000013C07D14FEA430C7FEA6C5CD6D152EAB6
:10099000033CD3D05DF8040B704700BF844610467B
:1009A00062468C461946634600E000BF01B5FFF77A
:1009B000B7FF002848BF10F1000F01BD4DF808ED4A
:1009C000FFF7F4FF0CBF012000205DF808FB00BF1B
:1009D0004DF808EDFFF7EAFF34BF012000205DF875
:1009E00008FB00BF4DF808EDFFF7E0FF94BF0120C2
:1009F00000205DF808FB00BF4DF808EDFFF7CEFFC3
:100A000094BF012000205DF808FB00BF4DF808ED01
:100A1000FFF7C4FF34BF012000205DF808FB00BFD2
:100A20004FEA410C7FEA6C5C02D150EA013C0AD1EA
:100A30004FEA430C7FEA6C5C02D152EA033C02D1DC
:100A40004FF0000070474FF0010070474FEA41023D
:100A500012F5001215D211D56FF47873B3EB625210
:100A600012D94FEAC12343F0004343EA505311F037
:100A7000004F23FA02F018BF404270474FF00000C9
:100A8000704750EA013005D111F0004008BF6FF007
:100A9000004070474FF00000704700BF4FEA41022E
:100AA000B2F1E04324BFB3F5001CDCF1FE5C0DD9CC
:100AB00001F0004C4FEAC0024CEA5070B2F1004F16
:100AC00040EB830008BF20F00100704711F0804F19
:100AD00021D113F13872BCBF01F00040704741F4DE
:100AE00080114FEA5252C2F11802C2F1200C10FAE2
:100AF0000CF320FA02F018BF40F001004FEAC123C6
:100B00004FEAD32303FA0CFC40EA0C0023FA02F369
:100B10004FEA4303CCE77FEA625307D150EA01333F
:100B20001EBF4FF0FE4040F44000704701F000400F
:100B300040F0FE4040F40000704700BFF0B50024D4
:100B40004FF00A0E85B0CDE901440430039401ADA5
:100B50008446002702E0303E0EFB076760461CF823
:100B6000016B0EB15F2EF6D15F2E45F8047B0CD1E0
:100B700001300134032CEBD1019808600120029967
:100B80001160039A1A6005B0F0BD022CF1D000206C
:100B9000F9E7000010B50D4C86B04FF40051204627
:100BA00001F010F80A4A0346142101A802F080FE61
:100BB00020464FF4005101F010F86423142201A9DB
:100BC000044801F042FF06B010BD00BF0010014014
:100BD000F05B0008E002002010B5142494B0224617
:100BE00000210CA802F0FBFE22460DEB04000021C0
:100BF00002F0F5FE0021102201A802F0F0FE02240E
:100C000001224FF48033CDE90A23CDE911434FF49B
:100C1000E0130AA80E92139300F0F4FF0F234FF491
:100C20008062CDE905340023214605A8CDE90732CD
:100C3000099301F0A9F94FF4004301A8019403932B
:100C400001F05EFA14B010BD2DE9F04F102597B0F9
:100C500000F070FBFFF7C0FF2A4600210FA802F04A
:100C6000BEFE9B4B4FF400519A699A482A439A6101
:100C70009A694FF001092A400592059A9A69002461
:100C800042F020029A619A694FF00C0A02F02002A9
:100C90000692069A9A694FF4602B42F004029A6118
:100CA0009A69DFF8348202F004020792079A9A697F
:100CB0008A4F42F008029A619B69002203F0080300
:100CC0000893089B00F084FF4FF40053CDE90F39DF
:100CD000022380480FA9CDE9114300F09DFE4FF497
:100CE00080727F4B7F480FA9CDE90F23119400F04C
:100CF00093FE22462146172000F0D4FD172000F075
:100D000001FE4FF4E13378494046C8E90013C8E9D1
:100D10000244C8E905A4C8F81040C8F81C4001F016
:100D200065FE724B3846724E3B60C7F81090CDE9B5
:100D30000F441194BC603C733C75C7F81CB07C60D8
:100D400000F020FD0FA93846CDE90F59119400F0AD
:100D5000D7FB684B3046336086F80C90C6F810908D
:100D6000CDE90F441194B4603475C6F81CB07460BA
:100D700000F008FD0723CDE90F3906230FA93046FF
:100D8000119300F0BDFB2A4621460BA802F027FE76
:100D90001C2221460FA8CDE9094402F020FE4FF0A5
:100DA0008043554DC5E900344FF6FF73C5E9033460
:100DB00080232846AB61AC6001F022FB4FF48053E6
:100DC0000BA928460B9301F054FC284601F070FB58
:100DD000284601F041FB09A92846CDE9094401F064
:100DE0003DFD602304220FA92846CDE90F3411945C
:100DF000139401F0DBFB08220FA9284601F0D6FB73
:100E000052460FA928460F9401F0AAFB284600F08D
:100E100071F9384600F02EFC304600F02BFC4A46B3
:100E200040460FF29C09D9E90089344902F021F8C3
:100E30000421284601F010FD0821284601F00CFD90
:100E40005146284601F008FD6421384600F0A8FA12
:100E50006421304600F0A4FA384600F04DFB044609
:100E6000304600F049FBC0B20290E0B2FFF7D4FA7E
:100E700042464B46FFF73AFB02460B4612A1D1E928
:100E80000001FFF77BF91E4B0022FFF759FCFFF72B
:100E900005FEFFF7D3FA1B4ACDE9000132211A48BB
:100EA00002F006FD6423322217490B4801F0CDFD04
:100EB0004FF47A7000F062FAC6E700BFAFF300802B
:100EC000AD4F39268BFBC73FB0726891ED58764025
:100ED0000010024000100140E00200203802002013
:100EE00000002110000C01400038014000240140A6
:100EF000680200200028014098020020FC01002028
:100F000000002440FD5B00080402002038B50446C0
:100F100000F02EFA074DB4F5807F286008D1064C0A
:100F20002368C01AC82803D9FFF734FE2B68236052
:100F300038BD00BF0002002028030020F0B5294D75
:100F4000294B95F900201978531C5BB20D29274CC9
:100F500091B02B7043D100232549A35401A8224608
:100F600002F0DAFC01A8FFF7FDF801A982B26423C0
:100F7000204801F06AFD042220461F4902F037FD97
:100F800020BB1E4E1E4F3246394620461D4B4FF6A3
:100F9000FF74FFF7D3FD4FF08040396832681B685B
:100FA000A1EB0121A2EB0222A3EB03232144224463
:100FB00023448163C263036400232B7001220A4926
:100FC0000C4811B0BDE8F04001F053BF20460E4977
:100FD000FFF7BEF80028EFD1FFF7DCFDECE7A154E6
:100FE000ECE700BFFD010020FC010020040200200E
:100FF0001D5C0008E0020020225C0008F4010020D3
:10100000F8010020F0010020275C00080E4B82B0A0
:101010009A6942F001029A619A6902F00102009213
:10102000009ADA6942F08052DA61DB69074A03F01C
:1010300080530193019B536823F0E06343F00073F6
:10104000536002B0704700BF001002400000014032
:10105000102210B5044688B00DEB0200002102F00A
:10106000BEFC2368164A93420BD1164B9A6942F490
:1010700000729A619B6903F400730193019B08B0AD
:1010800010BD114A9342FAD10E4B10489A6904A937
:1010900042F480629A619A6902F480620292029A32
:1010A0009A6942F004029A619B69802203F004036A
:1010B0000393039B0323CDE9042300F0ADFCDEE79B
:1010C00000240140001002400028014000080140B7
:1010D000036882B0B3F1804F0AD103F50433DA69B3
:1010E00042F00102DA61DB6903F001030193019B25
:1010F00002B0704710B5044686B01022002102A845
:1011000002F06DFC2368B3F1804F13D103F5043373
:101110009A69094842F004029A619B690E2203F021
:1011200004030193019B022302A9CDE90223059345
:1011300000F072FC06B010BD0008014010B5044676
:1011400086B01022002102A802F049FC22681B4B45
:101150009A4230D103F558439A69194842F48042C3
:101160009A619A6902A902F480420092009A9A69EF
:10117000002442F004029A619B694FF4007203F06C
:1011800004030193019B0223CDE90223032305936A
:1011900000F042FC4FF48063094802A9CDE9023413
:1011A000049400F039FC25202246214600F07AFB09
:1011B000252000F0A7FB06B010BD00BF003801409D
:1011C00000080140FEE7FEE7FEE7FEE7FEE77047A6
:1011D0007047704700F0C0B84FF4807000F006BD53
:1011E000014801F0E3BC00BFE0020020012070478D
:1011F00008B502F059FC162303604FF0FF3008BD1C
:1012000008B502F051FC16230360FEE770B50D46E9
:1012100014460E46731B9C4201DC204670BDAFF3A2
:10122000008006F8010BF5E770B50D4614460E4632
:10123000731B9C4201DC204670BD16F8010BAFF316
:101240000080F5E74FF0FF3070474FF40053002067
:101250004B60704701207047002070470B4A0346DF
:10126000116810B509B90A491160106809490A4C9A
:101270000344091B8B4206D902F016FC0C230360C1
:101280004FF0FF3010BD1360FCE700BF2C030020BF
:1012900080040020002800200004000070470000A7
:1012A000FFF7FCFF0B480C490C4A002302E0D4581E
:1012B000C4500433C4188C42F9D3094A094C0023A2
:1012C00001E013600432A242FBD302F0F3FBFFF70C
:1012D000BBFC704700000020D4010020E45F000840
:1012E000D401002080040020FEE7000038B50E4B3A
:1012F00005461A784FF47A73B3FBF2F30B4A106881
:10130000B0FBF3F000F00CFB044658B90F2D09D8E0
:10131000024629464FF0FF3000F0C4FA2046044B45
:101320001D6038BD0120FCE7040000200000002003
:1013300008000020074A08B51368032043F0100393
:10134000136000F09DFA0F20FFF7D0FFFFF75EFE5D
:10135000002008BD00200240034A044B11681B789E
:101360000B441360704700BF3003002004000020CE
:10137000014B1868704700BF3003002038B50446A1
:10138000FFF7F6FF0546631C1EBF044B1B78E418ED
:10139000FFF7EEFF431BA342FAD338BD0400002041
:1013A000F7B5002604460D460196FFF7E1FF2368D6
:1013B00007469A68D20508D50120A36A84F82460FC
:1013C00043F02003A36203B0F0BD5A68D60503D4EE
:1013D000DB6A13F4700F3FD0414B02201E6800F00F
:1013E00009FF23683F4A1969B6FBF0F611423E4AED
:1013F00053D1D8683D4908424FD1196911425DD196
:10140000DA683B4B1A4214BF292314235E43019B25
:10141000B34225D26A1C5CD0002D55D1019BB3424A
:1014200057D2A36A43F00403A36200230BE0681CB5
:1014300013D065B923681B6813F002030CD1A26AAC
:1014400042F00402A262032084F82430BBE7FFF7D5
:101450008FFFC01BA842EDD8226813689907E6D514
:101460006FF0120322681360A36A43F40073A3624F
:10147000936803F46023B3F5602F2ED1207B0028FE
:101480002BD1A36A23F48073A362A36ADB0424D460
:10149000A36A43F00103A36295E71969114203D1DE
:1014A000D968134A11420BD01969124A114209D165
:1014B000DB68134214BFFC235423A7E72923A5E7C5
:1014C0005423A3E7FC23A1E7FFF752FFC01BA84268
:1014D000A4D8019B0133019399E7002073E700BF73
:1014E00000000020244992249224491224499200A9
:1014F00092244900499224000368D86C7047000088
:10150000002373B5019390F824300446012B6CD06E
:10151000012380F824304D680268062D086805EB29
:10152000850322D81F26556B053B9E4025EA0605FC
:1015300000FA03F32B43536309288B6800EB400543
:101540004FF0070129D9D6681E3DA94026EA0101BE
:10155000AB400B43D360A0F11003012B25D9002031
:10156000002384F8243002B070BD0C2D4FF01F050D
:1015700009D8166B233B9D4026EA050500FA03F3C4
:101580002B431363D8E7D66A413B9D4026EA050505
:1015900000FA03F32B43D362CEE71069A94020EA97
:1015A0000101AB400B431361D9E7114B9A4216D1AD
:1015B00093681B02D3D49368102843F4000393600C
:1015C000CDD10C4B0C4A1B68B3FBF2F30A225343F8
:1015D0000193019B002BC2D0019B013BF8E7A36A5A
:1015E000012043F02003A362BAE70220BBE700BF5B
:1015F000002401400000002040420F00002337B5C6
:101600000193036804469A68D20702D5002003B00C
:1016100030BD9A6842F001029A60144B144A1B686C
:10162000B3FBF2F30193019BE3B9FFF7A1FE05467B
:1016300023689B68DB07E9D4FFF79AFE401B02286A
:10164000F6D923689B6813F00103F1D1A26A012047
:1016500042F01002A262E26A84F8243042F00102F1
:10166000E262D4E7019B013BDCE700BF0000002001
:1016700040420F0010B590F824300446012B54D09E
:10168000012380F82430FFF7B9FF002849D1A36A6D
:10169000274A23F4407323F0010343F48073A362C9
:1016A0002368934204D123494A6812F4702F2ED143
:1016B000A26A22F48012A2625A68520541BFA26A4D
:1016C00022F4405242F48052A262A26A12F4805282
:1016D0001CBFE26A22F00602E262002284F82420A3
:1016E0006FF002021A609A6802F46022B2F5602F6D
:1016F00013D10F4A934205D1A2F58062526812F4C9
:10170000702F0AD19A6842F4A0029A6010BDA26AB2
:1017100042F48012A2624A68CFE79A6842F48012CB
:10172000F3E7002384F82430F0E70220EEE700BF5F
:10173000002801400024014038B5036804469A6837
:10174000D10701D4002038BD9A6822F001029A60C6
:10175000FFF70EFE054623689B68DB07F2D5FFF70F
:1017600007FE401B0228F6D923689B68DA07F2D5EA
:10177000A36A012043F01003A362E36A43F001036C
:10178000E362E0E7F8B5044600286DD0836A23B928
:10179000C36280F82430FFF75BFC2046FFF7CCFFE4
:1017A000A36A13F0100361D100285FD1A26A6168B7
:1017B00022F4885222F0020242F00202E569A66891
:1017C000A262227B2943B6F5807F41EA420136D0EE
:1017D000771E7D427D412D02277D012F06D182BBE0
:1017E000A269013A45EA423242F400652268B6F540
:1017F000807F576827F4694745EA07055560976871
:101800001D4D05EA070545EA0105956001D0012E49
:1018100002D12369013B1B05D56A25F470052B43D2
:10182000D3629268154B1340994213D10023E362AF
:10183000A36A23F0030343F00103A362F8BD354616
:10184000CAE7A26A42F02002A262E26A42F0010202
:10185000E262CBE7A36A23F0120343F01003A36212
:10186000E36A43F00103E3620120E7E7A36A43F080
:101870001003A362F8E700BFFDF7E1FFFE0E1FFFB4
:1018800007490302CA6803F4E06322F4E062120429
:10189000120C134343F0BF6343F40033CB60704733
:1018A00000ED00E0154B30B5DC68C4F30224C4F150
:1018B0000703251D042B28BF0423062D4FF0FF35F9
:1018C00094BF0024033C05FA03F321EA0303A54077
:1018D00022EA0502A340002843EA0203ACBF00F15C
:1018E0006040074A4FEA0313DBB2ABBF00F561402B
:1018F00000F00F0080F80033135430BD00ED00E01D
:1019000014ED00E0002807DB01234109034A00F041
:101910001F00834042F82130704700BF00E100E023
:101920000138B0F1807F0BD24FF0E023F021054A5F
:10193000586182F823100020072298611A617047CD
:101940000120704700ED00E090F821200346022AB4
:1019500006D0042282630120002283F820207047F1
:101960000268C06B116821F00E011160116821F04E
:101970000101116001211A6C01FA02F2426000209B
:1019800083F82110E8E7000010B590F82130022B11
:1019900003D004238363012010BD03681A6822F07A
:1019A0000E021A601A6822F001021A60184A934265
:1019B0001FD0143293421ED0143293421DD01432E1
:1019C00093421DD0143293421DD0143293420CBF67
:1019D0004FF480134FF080730E4A002453600123AC
:1019E00080F82130436B80F820407BB19847204637
:1019F000D2E70123F0E71023EEE74FF48073EBE723
:101A00004FF48053E8E74FF48033E5E71846C3E727
:101A100008000240000002402DE9F74F0022164660
:101A2000614F624BDFF888C1DFF888E10D6835FA55
:101A300006F402D103B0BDE8F08F4FF0010808FAB8
:101A400006F805EA080438EA050576D14D68032D45
:101A500007D8013D022D00F28180DFE805F0919664
:101A60009C00122D00F0948069D8112D00F08A801E
:101A7000FF2C98BF82464FF00F0988BF00F1040A7F
:101A80004FEA8605DAF8008088BF203D09FA05FB99
:101A900028EA0B0802FA05F548EA0505CAF80050DD
:101AA000D1F804A01AF0805F47D0BD6926F0030882
:101AB00045F00105BD61BD6908F1804805F00105EB
:101AC000019508F5803806F0030B019D4FEA8B0B5A
:101AD000D8F8085009FA0BF925EA0909364DA84249
:101AE0005DD005F58065A8425BD005F58065A8420C
:101AF0000CBF0225032505FA0BF545EA0905C8F8D0
:101B000008509D681AF4801F14BF2543A5439D60AB
:101B1000DD681AF4001F14BF2543A543DD605D682E
:101B20001AF4003F14BF2543A5435D601D681AF4F5
:101B3000803F14BF2543A5431D60013676E7DFF8DB
:101B40007C904D450AD015D8754507D0A9F5803948
:101B50004D4503D0A9F580194D4589D18A68E2B178
:101B6000012A08BFC0F810804FF0080218BFC0F863
:101B700014807DE7DFF848904D45EFD06545ECE7F0
:101B8000CA6875E7CA68043272E7CA6808326FE744
:101B9000CA680C326CE700226AE7042268E7002575
:101BA000A9E70125A7E700BF00100240000401409B
:101BB0000000321000001210000801400000221046
:101BC000000031108368194214BF012000207047C3
:101BD0000AB1016170470904FBE7C36801EA030227
:101BE00021EA030141EA024101617047044A08B554
:101BF0005169014202D05061FFF788F908BD00BF6A
:101C0000000401402DE9F341054638B30368DB07C2
:101C100010D42B689F075ED42B68190700F19580BC
:101C20002B685A0700F1C180E869002840F02C8138
:101C3000002029E0904C636803F00C03042B07D0CC
:101C4000636803F00C03082B0AD16368DE0307D531
:101C500023689C03DDD56B68002BDAD1012013E0EB
:101C60006B68B3F5803F12D1236843F4803323605F
:101C7000FFF77EFB064623689803CAD4FFF778FB7C
:101C8000801B6428F7D9032002B0BDE8F0819BB91E
:101C9000236823F480332360236823F480232360A4
:101CA000FFF766FB064623689903B2D5FFF760FB92
:101CB000801B6428F7D9E6E7B3F5A02F236803D18A
:101CC00043F480232360CFE723F480332360236829
:101CD00023F48023CBE7684C636813F00C0F07D024
:101CE000636803F00C03082B10D16368DA030DD48A
:101CF00023689B0702D52B69012BAFD123686A6942
:101D000023F0F80343EAC203236085E72A695B4BAB
:101D10006AB101221A60FFF72BFB064623689F0772
:101D2000ECD4FFF725FB801B0228F7D9ABE71A603C
:101D3000FFF71EFB0646236898077FF56DAFFFF798
:101D400017FB801B0228F6D99DE7AA694A4E4B4B28
:101D5000E2B10122C3F88024FFF70AFB0446736A4C
:101D60009B070DD54FF4FA52454B1B68B3FBF2F3BA
:101D7000019300BF019B5A1E0192002BF9D14FE73E
:101D8000FFF7F6FA001B0228E9D97CE7C3F88024A4
:101D9000FFF7EEFA0446736A9F077FF541AFFFF73E
:101DA000E7FA001B0228F6D96DE7334CE369D80047
:101DB00024D40127E36943F08053E361E36903F02E
:101DC00080530093009B2F4E3368D90518D5EB68DC
:101DD000012B26D1236A43F001032362FFF7C8FADF
:101DE00041F288380646236A9B073FD5002F3FF40F
:101DF0001BAFE36923F08053E36115E70027E2E7B7
:101E0000336843F480733360FFF7B2FA8046336877
:101E1000DA05DCD4FFF7ACFAA0EB08006428F6D9A9
:101E200031E7ABB9236A41F2883823F0010323621A
:101E3000236A23F004032362FFF79AFA0646236A13
:101E40009807D3D5FFF794FA801B4045F7D91AE7D6
:101E5000052B236A03D143F004032362BAE723F07E
:101E600001032362236A23F00403B6E7FFF780FA35
:101E7000801B4045B7D906E70010024000004242EF
:101E800000000020007000402A4C636803F00C033F
:101E9000082B3ED00022284B02281A662CD1FFF7CF
:101EA00067FA06462368990120D42B6AB3F5803F70
:101EB00005D16268A96822F400320A436260696A47
:101EC00062680B4322F474121343012263601A4BBD
:101ED0001A66FFF74DFA054623689A013FF5A8AE4A
:101EE000FFF746FA401B0228F6D9CCE6FFF740FA86
:101EF000801B0228D6D9C6E6FFF73AFA05462368C2
:101F00009B017FF595AEFFF733FA401B0228F6D907
:101F1000B9E601283FF4B8AE63682A6A03F4803159
:101F200091427FF49BAE6A6A03F4701393423FF4CC
:101F30007FAE93E600100240000042420D4A536813
:101F400003F00C01082912D10B48C3F38341DB03D2
:101F5000405C09D55368094AC3F340435043084ADB
:101F6000D35CB0FBF3F07047064B5843704703480F
:101F7000704700BF001002404A5C000800127A005F
:101F80005A5C000800093D002DE9F0410D46044669
:101F900010B90120BDE8F081444A136803F007033B
:101FA0008B4228D321688E0730D4CA0743D43F4AD6
:101FB000136803F00703AB4265D822683C4D12F06A
:101FC000040F6CD1130706D56B68226923F46053A4
:101FD00043EAC2036B60FFF7B1FF6B68354AC3F396
:101FE0000313D35CD840344B1860344B1868FFF7A8
:101FF0007DF90020CEE7136823F007030B4313603D
:10200000136803F007038B42C3D1CBE7284B11F0D1
:10201000040F1EBF5A6842F4E0625A60080742BFCC
:102020005A6842F460525A605A68A06822F0F0027E
:1020300002435A60B9E762681D4E012A33681AD11B
:1020400013F4003FA5D0736841F2883823F00303EE
:1020500013437360FFF78CF907467368626803F0F7
:102060000C03B3EB820FA2D0FFF782F9C01B4045EF
:10207000F3D903208EE7022A02D113F0007FE1E7B3
:1020800013F0020FDEE7136823F007032B431360FE
:10209000136803F00703AB427FF47BAF8DE76B68F7
:1020A000E16823F4E0630B436B608BE700200240A0
:1020B00000100240325C00080000002008000020F0
:1020C000044B054A5B68C3F30223D35C034A1068E0
:1020D000D840704700100240425C00080000002019
:1020E000044B054A5B68C3F3C223D35C034A106800
:1020F000D840704700100240425C000800000020F9
:1021000003682DE9F341D907054621D5364CE3692B
:10211000DA0033D40126E36943F08053E361E369D5
:1021200003F080530193019B304F3B68DB0527D5BB
:10213000236A6A6813F4407336D1236A6A6823F409
:102140004073134323621EB1E36923F08053E361BC
:102150002868830706D52449AB684A6822F44042C0
:102160001A434A6010F010001BD01F4AE9685368F8
:10217000002023F480030B43536012E00026D3E7D2
:102180003B6843F480733B60FFF7F2F880463B689E
:10219000D805CDD4FFF7ECF8A0EB08006428F6D9F9
:1021A000032002B0BDE8F08102F440729A42C4D02C
:1021B00001200F4A236AC2F84004002023F4407132
:1021C000C2F840042162D907B7D5FFF7D1F841F230
:1021D00088380746236A9A07AFD4FFF7C9F8C01BAF
:1021E0004045F7D9DCE700BF001002400070004016
:1021F00000004242022808B544D0102803D001282C
:1022000022D0002034E0254B5A68186810F0807006
:102210002ED0C2F383412248D20348BF5A68405CA3
:1022200041BF2049C2F34042895C1F4A5B684CBFF2
:10223000B2FBF1F21D4A5B0202FB00F018D403234B
:102240004000B0FBF3F013E040F20231134A136A8E
:102250001940B1F5817F1ED003F44073B3F5007FC0
:1022600007D149F64043506A10F0020018BF1846E3
:1022700008BDB3F5407FC4D110684FF2244310F479
:102280000030F3E7FFF72CFF044B5B68C3F38133A7
:1022900001335B00D5E74FF40040E9E7001002404E
:1022A0005C5C00086C5C000800127A0000093D00CC
:1022B000036A026A70B522F0010202624468826910
:1022C0000D6822F073022A438D6823F002032B432A
:1022D0000A4DA8420BD1CD6823F008032B4324F408
:1022E0004074D1E90556354323F004032C43446080
:1022F00082614A684263036270BD00BF002C0140E6
:10230000036A026A70B522F4807202624468C2698C
:102310000D6822F073022A438D6823F4007343EAA8
:1023200005230B4DA8420DD1CD6823F4006343EA89
:10233000052324F44054D1E90556354323F4806342
:1023400044EA05144460C2614A68C263036270BD16
:10235000002C0140036A026A30B522F48052026206
:102360004468C2690D6822F4E64242EA05228D689B
:1023700023F4005343EA0533064DA84202BF4D69DA
:1023800024F4804444EA85144460C2614A680264CB
:10239000036230BD002C014070477047164A10B5EB
:1023A0009042036805D0B0F1804F02D0134CA04298
:1023B00010D14C6823F07003904243EA040305D027
:1023C000B0F1804F02D00D4A904203D1CA6823F485
:1023D000407313434A6923F08003134303608B68FF
:1023E000C3620B688362044B984204BF0B690363AA
:1023F0000123436110BD00BF002C014000040040D8
:1024000010B5044630B390F83D3003F0FF021BB91D
:1024100080F83C20FEF75CFE0223206884F83D3003
:10242000211DFFF7BBFF0123002084F8463084F80C
:102430003E3084F83F3084F8403084F8413084F8EE
:10244000423084F8433084F8443084F8453084F8CE
:102450003D3010BD0120FCE710B5044630B390F8C4
:102460003D3003F0FF021BB980F83C20FFF794FFDA
:102470000223206884F83D30211DFFF78FFF0123E0
:10248000002084F8463084F83E3084F83F3084F8E9
:10249000403084F8413084F8423084F8433084F886
:1024A000443084F8453084F83D3010BD0120FCE70D
:1024B00010B5044630B390F83D3003F0FF021BB96D
:1024C00080F83C20FFF769FF0223206884F83D3044
:1024D000211DFFF763FF0123002084F8463084F8B4
:1024E0003E3084F83F3084F8403084F8413084F83E
:1024F000423084F8433084F8443084F8453084F81E
:102500003D3010BD0120FCE7036A026A70B522F07D
:1025100010020262446882690D6822F4E64242EACF
:1025200005228D6823F0200343EA05130B4DA842D2
:102530000DD1CD6823F0800343EA051324F44064F1
:10254000D1E90556354323F0400344EA850444604D
:1025500082614A688263036270BD00BF002C014043
:1025600038B590F83C300546012B1DD0082A17D00D
:1025700007D862B1042A0FD00120002385F83C302F
:1025800038BD0C2AF8D10068FFF7E4FE02E00068CD
:10259000FFF78EFE0020F0E70068FFF7B5FFF9E7D0
:1025A0000068FFF7ADFEF5E70220E9E770B590F8A7
:1025B0003C300546012B50D00123082A80F83C30DE
:1025C0003BD007D8C2B1042A27D01846002385F88B
:1025D0003C3070BD0C2AF8D10068FFF7BBFEC36920
:1025E0000A6943F40063C361C36923F48063C36170
:1025F000C36943EA02232EE00068FFF759FE8369AE
:102600000A6943F008038361836923F0040383614B
:102610008369134383610020D8E70068FFF774FFE4
:1026200083690A6943F400638361836923F48063E7
:102630008361836943EA0223ECE70068FFF760FEE9
:10264000C3690A6943F00803C361C36923F0040343
:10265000C361C3691343C361DDE70220B9E710B565
:1026600084680A4324F47F4442EA032222438260BE
:1026700010BD38B590F83C300446012B4FF00200F5
:1026800000F08E80012284F83D00206884F83C2010
:10269000836823F47F4323F0770383600B68602B08
:1026A0004FD032D8402B64D016D8202B0DD00AD86A
:1026B00033F0100109D0012384F83D30002384F861
:1026C0003C30104638BD302BF5D1826822F07002C4
:1026D000134343F0070328E0502BECD14A68CD6840
:1026E000016A036A21F00A0123F00103036283698E
:1026F0000A4323F0F00343EA05138361026283680F
:1027000023F0700343F057030FE0B3F5805F0DD063
:10271000B3F5005F0CD0702BCDD1CB68D1E901218E
:10272000FFF79DFF836843F0770383600022C2E7D1
:10273000CB68D1E90121FFF792FF836843F480431E
:10274000F3E7036A026A4D6822F01002C968026268
:10275000826923F0A00322F4704243EA051342EA9F
:10276000013282610362836823F0700343F06703E0
:10277000DBE74A68CD68016A036A21F00A0123F0A9
:102780000103036283690A4323F0F00343EA05135C
:1027900083610262836823F0700343F04703C4E758
:1027A00002468EE710B50124036A01F01F018C4038
:1027B00023EA04030362036A8A401A43026210BDDB
:1027C00008B529B990F83E30012B21D0012008BD71
:1027D000042907D190F83F30012BF7D1022380F86C
:1027E0003F3018E0082907D190F84030012BEDD197
:1027F000022380F840300EE090F84130012BE5D103
:102800000429EBD00829F3D0022380F8413002E0FC
:10281000022380F83E3000680122FFF7C3FF0C4B13
:1028200098420AD1436C43F400434364836803F045
:102830000703062B07D10020C9E7B0F1804FF5D080
:10284000044B9842F2D0036843F001030360F2E7BF
:10285000002C014000040040FFF7B2BF30B590F8F3
:102860003C200346012A4FF002001ED01A6883F86C
:102870003D0054680D6824F070042C439068546047
:102880000A4CA24206D0B2F1804F03D0A4F5943492
:10289000A24204D1496820F08000014391600122E6
:1028A000002083F83D2083F83C0030BD002C01401F
:1028B000026802F10C0353E8003F23F490730C32DA
:1028C00042E8003102680029F2D102F1140353E812
:1028D000003F23F0010302F1140C4CE80031002901
:1028E000F3D1036B012B0BD102F10C0353E8003F32
:1028F00023F0100302F10C0C4CE800310029F3D155
:10290000202380F8423000230363704710B504464B
:102910000368C1681A6922F440520A431A61826846
:102920000069D9680243606921F4B05121F00C01BB
:1029300002430A43DA605A69A16922F440720A43E9
:102940005A610E4A934215D1FFF7CAFB192343433C
:10295000626820689200B3FBF2F36422B3FBF2F1E9
:1029600002FB11331B013233B3FBF2F303EB011310
:10297000836010BDFFF7A4FBE8E700BF003801400B
:10298000F8B504460E4617461D462268136836EA17
:10299000030301D1002028E06B1CF7D025B1FEF71E
:1029A000E7FCC01B8542F0D2226802F10C0353E819
:1029B000003F23F4D0730C3242E800302168002835
:1029C000F2D101F1140353E8003F23F0010301F1B8
:1029D000140040E80032002AF3D12023032084F8B9
:1029E000413084F8402084F84230F8BD10B50446E8
:1029F00048B390F8413003F0FF021BB980F8402043
:102A0000FEF79CFB2423226884F84130D3682046DB
:102A100023F40053D360FFF779FF236800201A697D
:102A200022F490421A615A6922F02A025A61DA6845
:102A300042F40052DA602023606484F8413084F864
:102A40004230606310BD0120FCE72DE9F843994650
:102A500090F841300446202B0E4617463CD1002901
:102A60003CD0002A3AD021230025456480F841302B
:102A7000FEF77EFCA3688046B3F5805FA784E784F9
:102A800003D123690BB935461E46E38C9BB253B97B
:102A90004B46424640212046FFF772FF50B92023A3
:102AA00084F8413007E04B46424680212046FFF73C
:102AB00067FF10B10320BDE8F88322684EB935F8EE
:102AC000023BC3F308035360E18C013989B2E1840E
:102AD000DBE716F8013BF6E70220ECE70120EAE726
:102AE0007047704708B50023406AC385C384FFF769
:102AF000F8FF08BD704790F8423007B5222B42D14D
:102B00008168836AB1F5805F02683FD1016900295D
:102B10003FD15268C2F3080223F8022B8362C38DAF
:102B2000013B9BB2C385002B2DD10268D16821F0F7
:102B30002001D160D16821F48071D160516921F008
:102B400001015161202280F842204363026B012A77
:102B5000026828D1036302F10C0353E8003F23F01D
:102B6000100302F10C0C4CE800310029F3D113687A
:102B7000DB0605D501911368019353680193019B0E
:102B8000818DFFF7B7FF03B05DF804FB39B9016928
:102B900029B95268D2B21A70836A0133BEE752680B
:102BA00002F07F02F7E7FEF7C9F9ECE7036873B5B7
:102BB0001A6804461607D9685D6908D1960668D573
:102BC0008D0666D502B0BDE87040FFF794BF05F0F2
:102BD000010001F4907505435BD0D60705D5CD05FE
:102BE00042BF636C43F001036364530704D518B11B
:102BF000636C43F002036364960704D518B1636CF9
:102C000043F004036364150707D501F02003034371
:102C10001EBF636C43F008036364636C002B32D007
:102C2000920604D58B0602D52046FFF764FF26687E
:102C300020467369626C03F0400302F0080253EA15
:102C4000020522D0FFF734FE73695E0618D52268AC
:102C500002F1140353E8003F23F04003143242E82A
:102C600000310029F3D1E06B50B1744B4363FEF7A0
:102C70008BFE40B1E06B436B02B0BDE8704018477B
:102C80002046FFF72EFF02B070BDFFF72AFF6564F4
:102C9000F9E7206B012840F09480D50640F191803F
:102CA000C80640F18E80002201921A6801925A688B
:102CB0000192019A5A6952064DD5E16B0A68526831
:102CC00092B2002ADFD0A08D9042DCD9E2858A69D9
:102CD000202A36D003F10C0252E8002F22F4807231
:102CE00003F10C0040E800210029F3D103F11402A4
:102CF00052E8002F22F0010203F1140040E8002105
:102D00000029F3D103F1140252E8002F22F040020F
:102D100003F1140040E800210029F3D1202284F8B7
:102D20004220216303F10C0252E8002F22F010022E
:102D300003F10C0040E800210029F3D1E06BFEF71D
:102D400003FE02236363E38DA18DC91A89B2204675
:102D5000FFF7D0FE97E7E28DE08DA18D80B292B2B1
:102D6000002890D0891A89B200298CD003F10C0276
:102D700052E8002F22F4907203F10C0545E8002080
:102D80000028F3D103F1140252E8002F22F00102CF
:102D900003F1140545E800200028F3D1202284F82F
:102DA0004220206303F10C0252E8002F22F01002AF
:102DB00003F10C0545E800200028F3D102236363EA
:102DC000C5E7160628D50D0626D594F84120212AF8
:102DD0007FF459AFA168226AB1F5805F17D12169EC
:102DE000A9B932F8021BC1F3080159602262E28CD2
:102DF000013A92B2E284002A7FF445AFDA6822F009
:102E00008002DA60DA6842F04002DA603BE7511C87
:102E1000216212785A60EAE750067FF534AF4A061D
:102E20007FF531AFDA68204622F04002DA602023D5
:102E300084F84130FFF754FE25E700BFE52A00087B
:102E40000023C285436422238285026980F84230D0
:102E5000816203681AB1DA6842F48072DA605A69F2
:102E6000002042F001025A61DA6842F02002DA6082
:102E7000704770B490F84260202E06D141B13AB14B
:102E80000024046370BCFFF7DBBF022070BC7047F6
:102E90000120FBE7002B2DE9F0471F46BBBF03F1E4
:102EA00000431F4600232D2388B01446129A109D1C
:102EB0001370149BDDF84CA023F02008B8F1460FE6
:102EC00005D0B8F1450F00D10135022300E00323FE
:102ED00007AA049206AACDE902A2CDE9003522464E
:102EE0003B4600F0A5FEB8F1470F064602D1119B04
:102EF000DB0722D5B8F1460F06EB050910D1337870
:102F0000302B0AD10022002320463946FDF756FD1A
:102F100018B9C5F10105CAF80050DAF80030994433
:102F20000022002320463946FDF748FD08B1CDF8C0
:102F30001C903022079B4B4507D33046079B159AC0
:102F40009B1B136008B0BDE8F087591C07911A70ED
:102F5000F0E70346F7B5002903F8022BB6BF2D2290
:102F60002B224942092942702ADD0DF1070217463A
:102F70000A2691FBF6F5944606FB151430340CF83E
:102F8000014C0C46632C294602F1FF32F1DC303152
:102F9000ACF1020402F8011C2246411CBA420AD3D9
:102FA0000DF10902A2EB0C02BC4288BF00221344BF
:102FB000181A03B0F0BD12F8015B01F8015FEDE7EC
:102FC000302330318370C170031DF1E72DE9F04FDC
:102FD00091B00C46DDF8688016461F46054600F0A5
:102FE00019FD036818460993FDF7BCF800230E93FA
:102FF000D8F800300A90073323F0070303F10802E2
:1030000094F81890D4F800B0C8F80020D3E900A8CC
:1030100052464346C4E9122328F000430B934FF075
:10302000FF3250469C4B0B99FDF7FAFC70BB4FF0FA
:10303000FF325046984B0B99FDF7D4FC30BB002271
:10304000002350464146FDF7C3FC10B12D2384F800
:103050004330924A924BB9F1470F94BF904698463D
:1030600003234FF0000A23612BF00403236033464F
:103070002146284600970FAA00F0D6F9013040F00B
:1030800090804FF0FF3011B0BDE8F08F52464346BC
:1030900050464146FDF7C4FC48B1B8F1000FB8BF37
:1030A0002D23804AB8BF84F843307F4BD3E7636851
:1030B00009F0DF015A1C42D1062363600022069208
:1030C0000EAACDE904920DAA4BF4806303920DF190
:1030D0003302CDE9013223606368524600932846EB
:1030E00043460B91FFF7D6FE0B99804647290D9971
:1030F00008D1C81C02DB6368994240DDA9F10209CE
:103100005FFA89F9B9F1650F1FD84A46013904F110
:1031100050000D91FFF71DFF0E9A82461318012AE9
:10312000236102DC2268D20701D5013323619DF8B7
:103130003330002B9BD02D2384F8433097E7472969
:10314000BCD1002BBAD10123B7E7B9F1660F18D172
:10315000002963680BDD216113B92268D00702D50D
:1031600001330B4423614FF0000AA165DFE713B977
:103170002268D20701D50233F4E70123F2E74FF0CA
:1031800067090E9B994205DB23682161D807EAD5C0
:103190004B1CE7E70029CCBF0122C1F10202134416
:1031A000E0E723685A0507D423694246314628469A
:1031B000B84701302BD164E7B9F1650F40F2DD80EB
:1031C000D4E9120100220023FDF7F8FB002833D0D8
:1031D000012331462846354AB84701303FF451AF04
:1031E000DDE90D239A4202DB2368D8070FD5DDE91C
:1031F000092331462846B84701303FF442AF4FF02B
:10320000000804F11A090E9B013B434509DC2368C1
:103210009B0700F10481E0680F9B9842B8BF1846F5
:1032200031E701234A4631462846B84701303FF48A
:1032300028AF08F10108E6E70D9B002B38DC0123DD
:1032400031462846194AB84701303FF41AAFDDE944
:103250000D32134302D12368D907D8D5DDE90923FC
:1032600031462846B84701303FF40BAF4FF0000914
:1032700004F11A0A0D9B5B424B4501DC0E9B94E75F
:103280000123524631462846B84701303FF4F9AE93
:1032900009F10109EEE700BFFFFFEF7F6E5C000858
:1032A000725C0008765C00087A5C00087E5C0008AE
:1032B0000E9AA36D9A42A8BF1A46002A914637DC9F
:1032C0004FF0000B29EAE97904F11A02D4F858A06A
:1032D000AAEB09035B4533DCDDE90D239A423BDBB6
:1032E0002368DA0738D4DDE90D32A2EB0309A2EB3B
:1032F0000A029145A8BF9146B9F1000F34DC4FF0A6
:10330000000829EAE97904F11A0ADDE90D239B1A7C
:10331000A3EB090343457FF77AAF012352463146B9
:103320002846B84701303FF4ACAE08F10108ECE79D
:103330001346314642462846B8470130C0D1A0E680
:103340000123314628460B92B84701303FF499AE2D
:103350000B9A0BF1010BB9E73146DDE90923284649
:10336000B8470130BFD18CE64B463146284608EBC2
:103370000A02B8470130C2D183E60E9A012A01DC65
:10338000DB0739D50123424631462846B84701308C
:103390003FF477AEDDE9092331462846B8470130CE
:1033A0003FF46FAED4E9120100220023DDF838901B
:1033B000FDF704FBD8B909F1FF3308F101023146EA
:1033C0002846B84701300ED15BE601234A46314614
:1033D0002846B84701303FF454AE08F101080E9B6F
:1033E000013B4345F1DC534604F15002DEE64FF069
:1033F000000804F11A09F2E701234246DFE701233E
:103400004A4631462846B84701303FF43AAE08F103
:103410000108E3680F995B1A4345F0DCFBE64FF0C7
:10342000000804F11909F4E72DE9F047164699461A
:103430008A680B6907469342B8BF1346336091F818
:1034400043200C46DDF820800AB101333360236845
:10345000990642BF336802333360256815F00605CC
:1034600006D104F1190AE36832689B1AAB422BDCDF
:1034700094F84320131E226818BF0123920630D40B
:103480004946384604F14302C047013023D023683F
:10349000226903F00603042B14BF002533684FF0A4
:1034A000000608BFE56804F11A0408BFED1A54F8D5
:1034B000123C08BF25EAE5759342C4BF9B1AED187C
:1034C000B5421AD1002008E0012352464946384649
:1034D000C047013003D14FF0FF30BDE8F087013520
:1034E000C1E73020E11881F843005A1C94F84510D8
:1034F0002244023382F84310C2E7012322464946A0
:103500003846C0470130E6D00136D9E72DE9FF47FC
:103510000F7E9146782F80460C469A460C9D01F10D
:10352000430207D8622F0AD8002F00F0D580582F09
:1035300000F0C18004F1420584F842703AE0A7F13E
:103540006303152BF6D801A151F823F0A535000827
:10355000B93500083535000835350008353500081F
:1035600035350008B935000835350008353500080F
:103570003535000835350008BF360008E535000848
:10358000793600083535000835350008E136000881
:1035900035350008E53500083535000835350008B3
:1035A000813600082B681A1D1B682A6004F1420549
:1035B00084F842300123A0E020682B68070603F15D
:1035C0000401296001D51E6803E04606FBD5B3F966
:1035D0000060002E03DA2D23764284F843300A235C
:1035E000594812E02B682068191D2960050601D58D
:1035F0001E6802E04106FBD51E886F2F0CBF082312
:103600000A235148002184F843106568002DA8BFA3
:103610002168A560A4BF21F0040121600EB9002D2E
:103620004BD01546B6FBF3F103FB1167C75D05F8F8
:10363000017D3746BB420E46F4D9082B0BD12368D7
:10364000DE0708D5236961689942DEBF302305F89B
:10365000013C05F1FF35521B22614B462146404695
:10366000CDF800A003AAFFF7DFFE01304AD14FF0EA
:10367000FF3004B0BDE8F087236843F020032360E7
:103680007827324884F84570236829681F0651F866
:10369000046B02D45F0648BFB6B2DF0748BF43F0F1
:1036A0002003296048BF23601EB9236823F020034C
:1036B00023601023A6E72448E4E71546BDE72B68FE
:1036C0002668181D6169286035061B6801D51960D8
:1036D00002E07006FBD51980002315462361BCE784
:1036E0002B6800211A1D2A601D686268284600F0B8
:1036F00007FA08B1401B606063682361002384F807
:103700004330AAE72A46494640462369D04701305C
:10371000ADD023689B0713D4E068039B9842B8BFE1
:103720001846A6E70123324649464046D0470130B5
:103730009DD00135E36803995B1AAB42F2DCEBE7FD
:10374000002504F11906F5E7805C0008915C00088B
:10375000002310B50446C0E90033C0E90433836098
:1037600081814366C2818361194608225C3000F082
:1037700036F9054B24626362044BA362044BE36297
:10378000044B236310BD00BF593900087B39000882
:10379000B3390008D7390008024A0349034800F04A
:1037A00069B800BF0C0000209554000818000020E4
:1037B00041680C4B10B59942044601D001F06AFEF5
:1037C000A168094B994202D0204601F063FEE168EE
:1037D000064B994204D02046BDE8104001F05ABE85
:1037E00010BD00BF340300209C030020040400200F
:1037F00010B50B4B0B4C0C4A20461A6004210022DA
:10380000FFF7A6FF04F1680001220921FFF7A0FFDE
:1038100004F1D0000222BDE810401221FFF798BF4A
:103820006C0400203403002099370008014800F0A0
:1038300065B900BF75040020014800F060B900BF01
:103840007504002010B50446FFF7F0FF236A1BB192
:10385000BDE81040FFF7F0BF044B2362044B1B6828
:10386000002BF5D1FFF7C4FFF2E700BFB137000826
:103870006C0400202DE9F8430746884614460026CC
:10388000D4E90195B9F1010905D52468002CF7D1D7
:103890003046BDE8F883AB89012B07D9B5F90E3066
:1038A000013303D029463846C04706436835E9E767
:1038B0000CB430B5174B0C1E1D689DB008DA8B2375
:1038C0004FF0FF302B601DB0BDE8304002B07047B4
:1038D0004FF40273ADF814300CBF234604F1FF33EC
:1038E000049307934FF6FF7302900690ADF81630DD
:1038F000284621AB209A02A9019301F04BFC431CFE
:10390000BCBF8B232B60002CDDD00022029B1A70E1
:10391000D9E700BF640000200EB46FF0004100B58D
:103920009CB01DAB0290069007910491084809498C
:1039300053F8042B0591006802A9019301F02AFCB9
:103940000022029B1A701CB05DF804EB03B07047B4
:10395000640000200802FFFF10B50C46B1F90E10FC
:1039600000F07EF80028ABBF636DA3891B1823F419
:103970008053ACBF6365A38110BD2DE9F0411F46A4
:103980008B890546DB050C46164605D50223002229
:10399000B1F90E1000F052F8A389324623F4805397
:1039A000A38128463B46B4F90E10BDE8F04100F073
:1039B00069B810B50C46B1F90E1000F03FF8431C81
:1039C000A38915BF606523F4805343F48053A3811A
:1039D00018BFA38110BDB1F90E1000F01FB8034647
:1039E0000244934200D1704703F8011BF9E710B578
:1039F0006AB10139841810F8012B11F8013F9A427D
:103A000003D1A04201D0002AF5D1D01A10BD104632
:103A1000FCE70000004870475801002038B500233B
:103A2000054D044608462B60FDF70CFC431C02D1F3
:103A30002B6803B1236038BD7004002038B50446FC
:103A4000084611460022054D2A601A46FDF704FC7F
:103A5000431C02D12B6803B1236038BD70040020E1
:103A600038B50446084611460022054D2A601A461C
:103A7000FDF7CCFB431C02D12B6803B1236038BD9A
:103A80007004002038B50446084611460022054D52
:103A90002A601A46FDF7C8FB431C02D12B6803B10C
:103AA000236038BD70040020014B1868704700BFC8
:103AB0006400002070B500260C4D0D4C641BA41052
:103AC000A64209D102F086F800260A4D0A4C641B72
:103AD000A410A64205D170BD55F8043B98470136A5
:103AE000EEE755F8043B98470136F2E7DC5F000843
:103AF000DC5F0008DC5F0008E05F0008704770478B
:103B0000034610B5C9B202449342184601D10020C1
:103B100003E0047801338C42F6D110BD2DE9F74F54
:103B200003690C690746A3427FDB013C00F11405E1
:103B300001F1140805EB8403019358F8243055F87B
:103B4000242001339A42B2FBF3F64FEA840B08EBD0
:103B5000840931D34FF0000E4046AC46F24650F88F
:103B6000042B93B206FB03E34FEA124E1A0C9BB2EE
:103B700006FB0E22AAEB0303DCF800A04FEA124E6C
:103B80001FFA8AFA5344DCF800A092B2C2EB1A4240
:103B900002EB23429BB243EA024381454FEA224AA9
:103BA0004CF8043BDBD255F80B302BB9019B043B9E
:103BB0009D421A462DD33C61384601F093F9002806
:103BC00023DB29460020013658F8042BD1F800C029
:103BD00093B2C31A120C1FFA8CF00344C2EB1C42BE
:103BE00002EB23429BB243EA0243C1454FEA224023
:103BF00041F8043BE8D255F8242005EB840322B9B0
:103C0000043B9D421A460AD33C61304603B0BDE8EE
:103C1000F08F1268043B002ACDD1013CC8E712683E
:103C2000043B002AF0D1013CEBE70020EEE7000066
:103C30002DE9F04F16461F46C46999B00546CDE9F7
:103C40000467DDF8948074B9102000F01DFE024670
:103C5000E86120B9EF21AC4BAC4801F07BFCC0E936
:103C600001440460C460EB69196851B15A680123CA
:103C700093404A608B60284600F0FAFE0022EB6910
:103C80001A603B1EAFBF0023012223F000430593BF
:103C9000A8BFC8F80030DDF814909D4BB8BFC8F835
:103CA000002033EA090319D142F20F73249A1360FA
:103CB000C9F31303334300F08985269B53B9954B11
:103CC00023E0954B03930833269A1360039819B0A9
:103CD000BDE8F08F8F4B03930333F5E7DDE9043440
:103CE000CDE90C34DDE90C0100220023FCF766FE6F
:103CF000804660B10123249A1360269B002B00F0BC
:103D00006285864B269A1360013B0393DEE716AB70
:103D1000019317AB00932846DDE90C2301F08AF9E3
:103D2000C9F30A548246002C7ED0DDE90C010D9BBC
:103D3000A4F2FF34C3F3130343F07F5343F440135F
:103D4000CDF84C8019460022754BFCF717FA68A392
:103D5000D3E90023FCF7CAFB67A3D3E90023FCF7F0
:103D60000FFA064620460F46FCF756FB64A3D3E93C
:103D70000023FCF7BBFB02460B4630463946FCF7F6
:103D8000FFF906460F46FCF761FE0022834600233A
:103D900030463946FCF71CFE48B15846FCF73CFB60
:103DA00032463B46FCF70AFE08B90BF1FF3BBBF17C
:103DB000160F57D8DDE90C015A4B03EBCB03D3E9BF
:103DC0000023FCF705FE00284ED000230BF1FF3B3B
:103DD0000F93169B1B1B5A1E46BFC3F101090023FC
:103DE0004FF00009099248BF0993BBF1000F3DDB7A
:103DF000099BCDF838B05B44099300230A93229BBA
:103E0000092B67D8052BC4BF043B2293229BC8BF54
:103E10000024A3F10203D8BF0124032B00F2868003
:103E2000DFE803F02C393756DDE916431C4404F271
:103E30003243202BC1BFC3F1400309FA03F904F256
:103E4000124326FA03F3D6BFC3F1200349EA030065
:103E500006FA03F0FCF7D0FA0122A1F1F873013C55
:103E600013926FE70123B3E70F90B2E7CBF10003A2
:103E70000A930023A9EB0B090E93C0E700230B93D1
:103E8000239B002B55DC01231A46069308932392AB
:103E90000BE00123F3E700230B93239B5B44069382
:103EA0000133012B0893B8BF012300210422E869E4
:103EB00002F114069E4240D94160284600F098FD68
:103EC000039000283CD1024640F2AF11164BC3E6E6
:103ED0000123E1E7012400230B9422934FF0FF33E9
:103EE0000022069308931223D1E700BFAFF30080AE
:103EF00061436F63A787D23FB3C8608B288AC63FF0
:103F0000FB799F501344D33FAF5C0008C65C0008A8
:103F10000000F07FAB5C0008A25C00087F5C00083A
:103F20000000F83FB05D00081E5D000801230B9300
:103F3000D4E7239B06930893B7E701315200B7E714
:103F4000EB69039A1A60089B0E2B00F2A880002CE4
:103F500000F0A580BBF1000F34DD9A4B0BF00F028F
:103F600003EBC2031BF4807FD3E90034CDE91034A6
:103F70004FEA2B1416D0DDE90C01934B0327D3E94C
:103F80000823FCF7DDFBCDE9040104F00F048E4E9D
:103F900054B9DDE91023DDE90401FCF7D1FBCDE9DB
:103FA000040129E00227F2E7E10708D5DDE9100165
:103FB000D6E90023FCF79AFACDE910010137641025
:103FC0000836E5E700F0A580DDE90C01CBF100043F
:103FD0007C4B04F00F0203EBC203D3E90023FCF790
:103FE00085FA02270023CDE90401774E2411002C25
:103FF00040F08480002BD2D1DDE90434CDE91034C7
:104000000F9B002B00F08780DDE9100100226F4B31
:10401000FCF7DEFC00287ED0089B002B7BD0069BA3
:10402000002B38DDDDE910010022694BFCF75EFA58
:10403000CDE90401069C0BF1FF3801373846FCF747
:10404000EBF9DDE90423FCF751FA0022614BFCF7A0
:1040500097F8A1F15076CDE910011196002C5DD1B1
:10406000DDE9040100225C4BFCF788F802460B46B0
:10407000CDE904233346109AFCF7C8FC002840F031
:104080009582DDE90401109A06F10043FCF7A0FCDB
:10409000002840F08982DDE90C34CDE90434179B17
:1040A000002BC0F25181BBF10E0F00F34D81454B47
:1040B00003EBCB03D3E90034CDE90634239B002B7B
:1040C00080F2DA80089B002B00F3D68040F06B82F0
:1040D000DDE906010022404BFCF708FADDE9042384
:1040E000FCF78AFC089C2646002840F041823123D8
:1040F000039F0BF1010B07F8013B3DE2E20705D5F9
:10410000D6E90023FCF7F2F90123013764100836E1
:104110006DE7022770E7D846089C8FE70399294B83
:10412000214412910B9903EBC403DDE9106753E9B5
:104130000223002954D000202849FCF701FB3B460C
:104140003246FCF71BF8CDE91001039FDDE90401BD
:10415000FCF77CFC0446FCF75FF902460B46DDE900
:104160000401FCF70BF802460B463034CDE904237A
:10417000DDE9102307F8014BFCF72AFC002873D176
:10418000DDE9042300201149FBF7F8FFDDE91023E6
:10419000FCF71EFC002840F0B680129B9F423FF4C3
:1041A0007AAFDDE910010022094BFCF79FF90022EC
:1041B000CDE91001DDE90401054BFCF797F9CDE9E4
:1041C0000401C3E7B05D0008885D00080000F03F0F
:1041D0000000244000001C40000014400000E03FAC
:1041E00030463946FCF782F9129BCDE91001039C59
:1041F0001493DDE90401FCF729FC1590FCF70CF998
:1042000002460B46DDE90401FBF7B8FF159B0646A5
:10421000303304F8013B129B0F469C424FF00002E2
:1042200024D1DDE91001AF4BFBF7AAFF02460B4694
:1042300030463946FCF7EAFB002863D1DDE910235C
:104240000020A849FBF79AFF02460B463046394644
:10425000FCF7BEFB00283FF41EAF149F7B1E149397
:1042600017F8013C302BF8D0C3463BE09E4BFCF7DF
:104270003DF9CDE90401BCE7039FDDE90489DDE9EF
:10428000062340464946FCF75BFAFCF7DFFB044691
:10429000FCF7C2F8DDE90623FCF728F902460B46D5
:1042A00040464946FBF76AFF04F1300607F8016B08
:1042B000039EDDF820C0BE1BB44502460B4636D136
:1042C000FBF75EFFDDE9062380468946FCF79EFB8F
:1042D00058BBDDE9062340464946FCF76FFB08B1B1
:1042E000E30722D45146284600F0C2FB0023249A5B
:1042F0003B700BF101031360269B002B3FF4E6ACEF
:104300001F60E3E427463B461F4613F8012D392A78
:1043100007D1039A9A42F7D13022039908F1010894
:104320000A701A7801321A709EE7D846EBE700222D
:104330006D4BFCF7DBF80022002380468946FCF732
:104340003DFB00289BD0CDE70B9A002A00F0C480EB
:10435000229A012A00F3A880139A002A00F0A08074
:1043600003F233434F460A9C099A01211A44284616
:104370009944099200F032FC06465FB1099B002B7C
:1043800008DDBB42A8BF3B46099AA9EB0309FF1A07
:10439000D31A09930A9BF3B10B9B002B00F0A0806A
:1043A000002C10DD31462246284600F0D5FC52464E
:1043B00001460646284600F027FC8046514628461E
:1043C00000F056FBC2460A9B1A1B04D051462846F1
:1043D00000F0C2FC82460121284600F0FFFB0E9B44
:1043E0000446002B40F382801A460146284600F01E
:1043F000B3FC229B0446012B7BDD4FF000082369B0
:1044000004EB8303186900F09BFBC0F12000099BBB
:10441000184410F01F0000F09280C0F12003042B1C
:1044200040F38580099BC0F11C000344814407448C
:104430000993B9F1000F05DD51464A46284600F0C0
:10444000E5FC8246099B002B05DD21461A462846DD
:1044500000F0DCFC04460F9B002B72D02146504636
:1044600000F040FD00286CDA002351460A2228465D
:1044700000F020FB0B9B82460BF1FF3B002B00F072
:10448000AC81002331460A22284600F013FB069B2C
:104490000646002B00F39380229B022B59DC8EE012
:1044A000169BC3F136035DE7089B5C1E0A9BA34283
:1044B000BFBF0A9B0E9AE31AD218A8BF1C1B089B09
:1044C000BEBF0A940E920024002BB5BFA9EB0307D0
:1044D0004F460023089B47E74F460A9C0B9E4CE73C
:1044E0000A9A73E70000E03F00002440229B012B62
:1044F00018DC049BB3B9059BC3F3130393B9059B65
:1045000023F000431B0D1B057BB14FF00108099BF5
:1045100009F10109013309930E9B002B7FF46FAF62
:10452000012074E74FF00008F6E79846F4E780D0E2
:10453000099A1C331A4499441F44099279E70346A7
:10454000F6E7089B002B34DC229B022B31DD089B15
:104550000693069B63B921460522284600F0AAFA75
:1045600001460446504600F0BDFC00283FF7BFADB1
:10457000239B039F6FEA030B4FF000082146284658
:1045800000F076FA002E3FF4ADAEB8F1000F05D082
:10459000B04503D04146284600F06AFA3146284625
:1045A00000F066FA9EE600242646E1E7C34626466A
:1045B0009DE50B9B002B00F0C880089B0693002F05
:1045C00005DD31463A46284600F020FC0646B8F1A3
:1045D000000F5BD02846716800F00AFA074628B938
:1045E000024640F2EF21814BFFF736BB326906F1FC
:1045F0000C01023292000C3000F09EFF012239467D
:10460000284600F003FCB0460646039B039A01339C
:104610000893069B13440B93049B03F001030A9336
:10462000089B2146013B50460493FFF777FA414629
:10463000069000F13009504600F054FC32460990D3
:104640002146284600F06AFCC268074602BB0146C4
:10465000504600F047FC0246394628460C9200F0CE
:1046600007FA229B0C9A089F43EA02010A9B19430E
:1046700010D1B9F1390F29D0099B002B02DD069B1F
:1046800003F13109049B83F8009077E73046BAE7DD
:104690000122E1E7099B002B04DB22990B430A99D5
:1046A0000B4320D1002AEDDD51460122284600F0BF
:1046B000ADFB2146824600F015FC002803DCE1D169
:1046C00019F0010FDED0B9F1390FD8D13923049A8E
:1046D00013703B461F4617F8012C013B392A6BD05B
:1046E00001321A704AE7002A07DDB9F1390FEDD01F
:1046F000049A09F10103137040E7089B0B9A03F831
:10470000019C934242D0514600230A22284600F0E1
:10471000D1F9B04582464FF000034FF00A024146FE
:10472000284607D100F0C6F980460646089B0133AB
:10473000089375E700F0BEF93146804600230A224F
:10474000284600F0B7F90646F0E7089B0693039F5A
:1047500021465046FFF7E2F9039B00F1300907F8C4
:10476000019BFA1A069B934207DD514600230A2259
:10477000284600F09FF98246EAE7069B4FF00008C2
:10478000002BCCBF1F460127039B1F44514601222B
:10479000284600F03BFB2146824600F0A3FB0028A0
:1047A00097DC02D119F0010F93D13B461F4613F855
:1047B000012D302AFAD0E1E6039A9A428AD13123B8
:1047C0000BF1010B97E70A4BFFF79FBA269B002BD3
:1047D0007FF477AA074BFFF798BA069B002BB6DC4D
:1047E000229B022B3FF7B5AEB1E700BF1E5D00086C
:1047F0007E5C0008A25C000838B50546002940D060
:1048000051F8043C0C1F002BB8BFE41800F0E4F88A
:104810001C4A136833B9636014602846BDE8384009
:1048200000F0E0B8A34208D9206821188B4201BFEC
:1048300019685B6809182160EDE71A465B680BB1DF
:10484000A342FAD911685018A0420BD12068014444
:10485000501883421160E0D118685B68084410600A
:104860005360DAE702D90C232B60D6E720682118C1
:104870008B4201BF19685B6809182160636054604E
:10488000CBE738BD78040020024B0146186800F0E1
:1048900023B800BF6400002070B50E4E0C4631688E
:1048A000054611B900F038FE30602146284600F078
:1048B00033FE431C0AD0C41C24F00304A04207D0DA
:1048C000211A284600F028FE013001D14FF0FF34B4
:1048D000204670BD7C0400202DE9F843CD1C25F056
:1048E000030508350C2D38BF0C25002D074601DBCC
:1048F000A94205D90C2300263B603046BDE8F88369
:10490000DFF8D08000F068F8D8F800301C465CBBB7
:1049100029463846FFF7C0FF431C044655D1D8F856
:1049200000402646002E45D1002C48D02368314651
:10493000384604EB030900F0EFFD81453FD12168C3
:1049400038466D1A2946FFF7A7FF013037D0236894
:104950002B442360D8F80030002B38D05A68A2428C
:104960002BD100225A600FE02268521B1FD40B2A61
:1049700017D96119A342256018BF5960636808BF41
:10498000C8F8001062514B60384604F10B0600F085
:1049900029F826F00706231DF21AAED09B1BA35060
:1049A000ABE7A3426268DDD1C8F80020ECE72346FC
:1049B0006468ACE734467668B4E71346CCE70C236A
:1049C00038463B6000F00EF897E72560DCE75B6057
:1049D000FFDE00BF780400200148FFF78FB800BF5A
:1049E000740400200148FFF78AB800BF7404002057
:1049F00070B5C66904460D4676B91020FFF744FF2E
:104A00000246E06120B96B21174B184800F0A2FD67
:104A1000C0E901660660C660E669F36883B1E369D0
:104A2000DB6853F82500B8B9012101FA05F6721DBB
:104A30002046920000F0ACFD60B1C0E901560EE0E6
:104A400021220421204600F0A3FDE369F060DB6829
:104A5000002BE4D1002070BD026843F8252000231C
:104A6000C0E90333F7E700BFAF5C00082F5D000823
:104A700070B5C66905460C4676B91020FFF704FFED
:104A80000246E86120B98F21084B094800F062FD19
:104A9000C0E901660660C6603CB1EB696268DB682C
:104AA00053F82210216043F8224070BDAF5C00082B
:104AB0002F5D00082DE9F04107460C461E460020F8
:104AC0000D6901F1140CDCF80030013099B202FBE1
:104AD00001611E0C0B0C02FB063389B201EB034192
:104AE00085424FEA13464CF8041BECDC0EB3A36876
:104AF000AB4219DC616838460131FFF779FF804627
:104B000028B90246BA210C4B0C4800F023FD22695B
:104B100004F10C01023292000C3000F00DFD214630
:104B20003846FFF7A5FF444604EB850301355E6177
:104B300025612046BDE8F0811E5D00082F5D00085C
:104B4000020C12040346CAB90304102013F07F4F6D
:104B500004BF1B02083013F0704F04BF1B01043068
:104B600013F0404F04BF9B000230002B05DB13F015
:104B7000804F00F1010008BF202070470020E5E7CA
:104B80000368024613F007000BD0D90721D4980719
:104B900049BF5B089B08012013605CBF02201360C3
:104BA000704799B209B910201B0CD9B209B9083065
:104BB0001B0A190704BF1B090430990704BF9B088F
:104BC0000230D90703D45B0800F1010003D0136061
:104BD00070470020704720207047000010B50C4639
:104BE0000121FFF705FF024628B940F24511044BA9
:104BF000044800F0AFFC01234461036110BD00BF15
:104C00001E5D00082F5D00082DE9F04F91460A69EE
:104C1000D9F810300C469A42BEBF0B464C46994616
:104C20002769D9F810A0A368616807EB0A06B342A8
:104C300085B0B8BF0131FFF7DBFE30B902464FF453
:104C4000B171434B434800F085FC00F114052B463D
:104C5000002205EB8608434521D304F1140303EB3E
:104C6000870709F1140303EB8A0202923A1B153AF3
:104C700022F00302043204F115018F4238BF0422EE
:104C80000192029A03939A420CD8002E03DD58F841
:104C9000043D002B5AD0066105B0BDE8F08F43F803
:104CA000042BD8E7B3F800A0BAF1000F23D0A9462F
:104CB0004FF0000C04F1140E5EF8042BD9F800102C
:104CC0001FFA82FB89B20AFB0B116144D9F800C0BC
:104CD000120C4FEA1C4C0AFB02C202EB114289B2D1
:104CE00041EA024177454FEA124C49F8041BE3D8E8
:104CF000019A45F802C0039A0433B2F80290B9F160
:104D0000000F21D0AE464FF0000A296804F1140CC0
:104D1000BCF800B0BEF8022089B209FB0B22524455
:104D200041EA02414EF8041B5CF8041B4FEA114AA9
:104D3000BEF80010674509FB0A1101EB12414FEA6A
:104D4000114AE5D8019AA95004359AE7013E9CE73B
:104D50001E5D00082F5D00082DE9F843154612F08E
:104D6000030206460F4607D0254C013A002354F8AB
:104D70002220FFF79FFE0746AD103DD0F4697CB9B5
:104D80001020FFF781FD0246F06128B940F2B3110F
:104D90001C4B1D4800F0DEFBC0E901440460C46008
:104DA000D6F81C80D8F808404CB940F27121304642
:104DB000FFF714FF00230446C8F8080003604FF013
:104DC0000009EB070AD5394622463046FFF71CFF9B
:104DD000804639463046FFF74BFE47466D100BD0F4
:104DE000206838B9224621463046FFF70DFF206083
:104DF000C0F800900446E4E73846BDE8F88300BFF9
:104E0000785E0008AF5C00082F5D00082DE9F047D0
:104E10000C46074691462369496803EB6218A3686C
:104E20004FEA621A08F10106B3420BDB3846FFF77E
:104E3000DFFD054648B902464FF4EF71274B28487D
:104E400000F088FB01315B00EEE7002300F1140164
:104E500000F110021846534533DB20692AEAEA7A4A
:104E600004F1140319F01F0901EB8A0103EB800C14
:104E70002BD08A460022C9F1200E186800FA09F0EA
:104E800010434AF8040B53F8042B9C4522FA0EF207
:104E9000F3D8ACEB0403153B23F00303043304F114
:104EA0001500844538BF0423CA500AB108F1020630
:104EB000013E384621462E61FFF7DAFD2846BDE85F
:104EC000F08742F8040F0133C5E7043953F8042B87
:104ED0009C4541F8042FF9D8EAE700BF1E5D0008A1
:104EE0002F5D000803460A69006930B5801A0DD1AC
:104EF0001433143103EB820401EB820154F8045D96
:104F000051F8042D954202D004D3012030BDA342B4
:104F1000F4D3FBE74FF0FF30F8E700002DE9F84F3E
:104F20000D460746114628461446FFF7DBFF061ECE
:104F300011D131463846FFF75BFD024628B940F2F1
:104F400037213A4B3A4800F005FB0123C0E904360B
:104F50001046BDE8F88FA4BF23462C46384661684A
:104F6000A6BF1D4600260126FFF742FD024618B9DE
:104F700040F245212D4BE5E702F11408C2464FF0FF
:104F8000000C2769C6602E6904F1140005F11409AC
:104F900000EB870E09EB8606103454F804BF59F86D
:104FA000043B1FFA8BF161441FFA83FC1B0CA1EB3D
:104FB0000C01C3EB1B4303EB214389B241EA0341DC
:104FC0004E454FEA234C4AF8041BE6D8731B153BA9
:104FD00023F0030315350433AE4238BF04231844CD
:104FE00043441E46054675450ED30EF10301091ACA
:104FF00021F003010338864538BF00210B4453F8E4
:10500000041D89B11761A3E755F8048B1FFA88F1D5
:1050100061440C1404EB184489B241EA04414FEA9C
:10502000244C46F8041BDEE7013FE8E71E5D00085C
:105030002F5D0008F7B5012117461C46089EFFF7B3
:10504000D7FC054630B9024640F20F31224B2348C7
:1050500000F080FAC4F31303C4F30A5424BB002FF6
:10506000019326D068460097FFF78AFDDDE900121C
:10507000E8B1C0F1200302FA03F30B43C2406B61B5
:105080000192019B002B14BF02210121AB61296118
:10509000BCB1A4F2334404443460C0F13500099B30
:1050A0001860284603B0F0BD43F48013D7E7696168
:1050B000E7E701A8FFF764FD019B01216B61203048
:1050C000E5E7A0F2324005EB810330601869FFF795
:1050D00037FDC0EB4110E2E71E5D00082F5D0008C0
:1050E0002DE9F0471F468E688246BE420C46904628
:1050F0000B682CD88A8912F4906F26D065690969EB
:1051000005EB4505A3EB010905EBD5757B1C4B446D
:105110006D109D4238BF1D46530527D52946FFF720
:10512000DBFB064660B34A46216900F005FAA38915
:1051300023F4906343F08003A38126614E442660EC
:105140003E466561A5EB0905A560BE4200D93E4615
:1051500032464146206800F0C5F90020A3689B1B39
:10516000A360236833442360BDE8F0872A4600F03B
:1051700035FA06460028E0D150462169FFF73CFB8E
:105180000C23CAF80030A3894FF0FF3043F04003EE
:10519000A381E9E72DE9F04F98468B8907461B0666
:1051A0000D4614469DB00ED50B6963B94021FFF73B
:1051B00093FB2860286120B90C233B604FF0FF303F
:1051C000D0E040236B610023099320238DF8293020
:1051D00030234FF00109CDF80C80DFF8A0818DF865
:1051E0002A3023469A4613F8012B0AB1252AF9D111
:1051F000BAEB040B0BD05B46224629463846FFF734
:105200006FFF013000F0A980099A5A4409929AF878
:105210000030002B00F0A18000234FF0FF32CDE9D9
:1052200005230AF1010A049307938DF853301A936A
:105230005446052214F8011B5048FEF761FC049AFD
:10524000D8B9D00644BF20238DF85330110744BF8E
:105250002B238DF853309AF800302A2B15D0544662
:1052600000204FF00A0C079A214611F8013B303B11
:10527000092B4DD9B0B1079214E0A0EB080309FA4D
:1052800003F31343A2460493D2E7039B191D1B6843
:105290000391002BBBBF5B4242F0020207930793CE
:1052A000B8BF049223782E2B0CD163782A2B34D1EB
:1052B000039B02341A1D1B680392002BB8BF4FF0EA
:1052C000FF330593DFF8B8A0032250462178FEF79C
:1052D00017FC38B14022049BA0EB0A008240134324
:1052E0000134049314F8011B062226488DF8281077
:1052F000FEF706FC002838D0234B1BBB039B07336B
:1053000023F0070308330393099B3344099368E7A9
:105310000C4601200CFB0232A6E700234FF00A0CDA
:10532000194601340593204610F8012B303A092A1A
:1053300003D9002BC6D00591C4E7044601230CFB1A
:105340000121F0E703AB00932A4638460F4B04A92E
:10535000FDF73CFE421C0646D6D1AB895B063FF505
:105360002DAF09981DB0BDE8F08F03AB00932A461E
:105370003846064B04A9FEF7C9F8EBE7845E00083F
:105380008A5E00088E5E0008CD2F0008E1500008FC
:105390008A89F8B5054610070C4657D44B68002B90
:1053A00004DC0B6C002B01DC0020F8BDE66A002E4B
:1053B000FAD0002312F480522F68216A2B6032D079
:1053C000606DA3895A0705D56368C01A636B0BB17A
:1053D000236CC01A00230246E66A2846216AB047B9
:1053E000431CA38906D129681D292BD8284A0A41C4
:1053F000D60727D4002262602269D904226004D52E
:10540000421C01D12B6803B96065616B2F600029D4
:10541000CAD004F14403994202D02846FFF7ECF9C0
:1054200000206063C1E701232846B047411CC8D172
:105430002B68002BC5D01D2B01D0162B01D12F605E
:10544000B2E7A38943F04003A381AEE70F69002FC1
:10545000AAD0930718BF00230E6808BF4B69F61B3C
:105460000F608B60002E9FDD33463A462846216A46
:10547000D4F828C0E047002806DCA3894FF0FF30AD
:1054800043F04003A38190E70744361AEAE700BFE0
:10549000FEFFBFDF38B50B6905460C4613B9002582
:1054A000284638BD18B1036A0BB9FEF7CBF9B4F939
:1054B0000C30002BF3D0626ED00704D4990502D4CF
:1054C000A06DFEF71BFB28462146FFF761FF636EC8
:1054D0000546DA07E4D4A3899B05E1D4A06DFEF765
:1054E0000EFBDDE7884210B501EB020402D98442CD
:1054F000234607D8431EA14208D011F8012B03F818
:10550000012FF8E7014602448A4200D110BD13F88A
:10551000014D02F8014DF7E738B50023054D04466B
:1055200008462B60FBF79AFE431C02D12B6803B19F
:10553000236038BD700400200A44914200F1FF331B
:1055400000D1704710B511F8014B914203F8014F9B
:10555000F9D110BD1FB514461A46094B05461B6804
:10556000D8684CB1074BCDE9013400912B46064970
:1055700000F070F800F080F8044B1C46F3E700BF21
:10558000640000209F5E0008AC5E0008215C0008FB
:1055900070B5A1FB025434B92946FFF79DF90646C0
:1055A00028B9304670BD0C2200260260F9E72A4671
:1055B0002146FEF714FAF4E782B001B901A942B11D
:1055C0004BB113780B601278101E18BF012002B087
:1055D00070471046FBE76FF00100F8E72DE9F04156
:1055E000804614460E4621B91146BDE8F041FFF74A
:1055F00073B92AB9FFF700F925462846BDE8F081BE
:1056000000F041F88442074602D8B4EB500F12D89C
:1056100021464046FFF760F905460028EDD0BC4220
:105620002246314628BF3A46FFF786FF31464046BC
:10563000FFF7E2F8E1E73546DFE70346084641B108
:10564000FF2A04D98A224FF0FF301A6070470120E8
:105650000A7070470EB403B5014603AB054853F812
:10566000042B0068019300F03DF802B05DF804EBF4
:1056700003B0704764000020062008B500F00AFA65
:105680000120FBF7BDFD51F8043C181F002BBCBFE7
:105690000B58C0187047936810B4013B002B9360FF
:1056A00007DA9469A34201DB0A2902D110BC00F099
:1056B00033B91368581C10601970084610BC704745
:1056C000F8B506460F461446D518AC4201D1002065
:1056D00007E03A46304614F8011BFFF7DCFF431C95
:1056E000F3D1F8BD2DE9F04F0D4614469846064615
:1056F0009DB018B1036A0BB9FEF7A4F86B6ED90719
:1057000005D4AB899A0502D4A86DFEF7F7F9AB89E9
:105710001B0701D52B699BB92946304600F03AF9A1
:1057200070B16B6EDC0704D54FF0FF301DB0BDE8E3
:10573000F08FAB899805F7D4A86DFEF7E0F9F3E791
:105740000023099320238DF8293030234FF00109DD
:10575000CDF80C80DFF8AC818DF82A3023469A46CC
:1057600013F8012B0AB1252AF9D1BAEB040B0BD09F
:105770005B46224629463046FFF7A2FF013000F083
:10578000A980099A5A4409929AF80030002B00F037
:10579000A18000234FF0FF32CDE905230AF1010A71
:1057A000049307938DF853301A935446052214F846
:1057B000011B5448FEF7A4F9049AD8B9D10644BF96
:1057C00020238DF85330130744BF2B238DF853301B
:1057D0009AF800302A2B15D0544600204FF00A0CBE
:1057E000079A214611F8013B303B092B4DD9B0B146
:1057F000079214E0A0EB080309FA03F31343A2464F
:105800000493D2E7039B191D1B680391002BBBBFB8
:105810005B4242F0020207930793B8BF04922378D9
:105820002E2B0CD163782A2B34D1039B02341A1D02
:105830001B680392002BB8BF4FF0FF330593DFF8CE
:10584000C8A0032250462178FEF75AF938B1402209
:10585000049BA0EB0A00824013430134049314F824
:10586000011B062229488DF82810FEF749F9002867
:105870003FD0274B1BBB039B073323F007030833A1
:105880000393099B3B44099368E70C4601200CFBFA
:105890000232A6E700234FF00A0C194601340593A3
:1058A000204610F8012B303A092A03D9002BC6D024
:1058B0000591C4E7044601230CFB0121F0E703AB8B
:1058C00000932A463046134B04A9FDF77FFB074699
:1058D000781CD6D16B6ED90705D4AB899A0502D452
:1058E000A86DFEF70CF9AB895B063FF51DAF099873
:1058F0001CE703AB00932A463046064B04A9FDF78C
:1059000005FEE4E7845E00088A5E00088E5E0008FB
:10591000CD2F0008C1560008F8B50E4614460546BE
:1059200018B1036A0BB9FDF78DFFA369A360A389C2
:105930001A0725D523691BB323682269F6B2981A82
:1059400063693746834204DC21462846FFF7A2FDFF
:10595000E0B9A368013BA36023685A1C22601E7053
:105960006269431C9A4204D0A389DB0706D50A2E3C
:1059700004D121462846FFF78DFD38B93846F8BDD9
:105980002146284600F006F80028D5D04FF0FF3712
:10599000F4E7000038B52A4B054618680C4618B1E4
:1059A000036A0BB9FDF74EFFA389B4F90C20180761
:1059B00022D4D90607D409232B6042F040034FF0CC
:1059C000FF30A38134E0580712D5616B41B104F177
:1059D0004403994202D02846FEF70EFF002363637A
:1059E000A38923F02403A381002363602369236038
:1059F000A38943F00803A38123694BB9A38903F466
:105A00002073B3F5007F03D02146284600F083F8C9
:105A1000A089B4F90C2010F001030AD00023A36080
:105A200063695B42A361236943B910F08000C4D16C
:105A300038BD810758BF6369A360F4E70020F7E72A
:105A4000640000201F2938B504460D4604D91623EA
:105A500003604FF0FF3038BDC26B12B152F82130F5
:105A60004BB9204600F030F82A4601462046BDE8F2
:105A7000384000F017B8012B0AD0591C03D1162367
:105A800003600120E7E70024284642F825409847B4
:105A90000020E0E7024B01461868FFF7D3BF00BFC4
:105AA0006400002038B50023064D04460846114620
:105AB0002B60FBF79DFB431C02D12B6803B12360D5
:105AC00038BD00BF70040020FBF790BB70B50C46DA
:105AD000B1F90E10154600291E4696B00CDAA389BE
